:100000000C9455130C9495130C9495130C94951310
:100010000C9495130C9495130C9495130C949513C0
:100020000C9495130C9495130C9495130C949513B0
:100030000C9495130C9495130C9495130C949513A0
:100040000C9495130C94F0270C9495130C94951321
:100050000C9495130C94A4270C9495130C94D088AD
:100060000C9495130C94235C0C94195C0C949513CC
:100070000C9495130C9495130C9495130C94951360
:100080000C944D510C9495130C9495130C9495135A
:100090000C9495130C9495130C9495130C94951340
:1000A0000C9495130C9495130C941F510C94951368
:1000B0000C9495130C9495130C9495130C94951320
:1000C0000C9495130C9495130C9495130C94951310
:1000D0000C9495130C9495130C9495130C94951300
:1000E0000C949513084AD73B3BCE016E84BCBFFDF0
:1000F000C12F3D6C74319ABD56833DDA3D00C77FF8
:1001000011BED9E4BB4C3E916BAAAABE0000008090
:100110003F05A84CCDB2D44EB93836A9020C50B91F
:10012000918688083CA6AAAA2ABE000000803F004B
:100130004E414E494E495459494E46CDCCCC3D0ACC
:10014000D7233C17B7D13877CC2B329595E6241FAF
:10015000B14F0A000020410000C84200401C462068
:10016000BCBE4CCA1B0E5AAEC59D74434F4D4D5577
:100170004E49434154494F4E0044525952554E0046
:100180004552524F525300494E464F004543484F47
:10019000006563686F3A004572726F723A002F2FE4
:1001A000616374696F6E3A006E6F7469666963614A
:1001B00074696F6E200070726F6D70745F0062758D
:1001C00074746F6E00204800204200205200204CC2
:1001D0000020204D363635205300506F6C61726719
:1001E000726170680020204D3230312058004D611E
:1001F0007820416363656C65726174696F6E202855
:10020000756E6974732F7332290020204D3230339C
:100210002058004D6178206665656472617465736D
:100220002028756E6974732F7329002052002020D6
:100230004D323034205000416363656C65726174E7
:10024000696F6E2028756E6974732F7332292028A8
:10025000503C7072696E742D616363656C3E205210
:100260003C726574726163742D616363656C3E20DA
:10027000543C74726176656C2D616363656C3E29D4
:100280000020540020530020204D32303520420001
:10029000416476616E6365642028423C6D696E5FDF
:1002A0007365676D656E745F74696D655F75733EC8
:1002B00020533C6D696E5F66656564726174653E6E
:1002C00020543C6D696E5F74726176656C5F666523
:1002D0006564726174653E20583C6D61785F6A6543
:1002E000726B3E20593C6D61785F6A65726B3E208F
:1002F0005A3C6D61785F6A65726B3E290020496ED9
:1003000076616C696420657874727564657220002A
:1003100047322F47332062616420706172616D65DE
:10032000746572730A00536C6565702E2E2E006220
:100330006567696E004D302053746F70004D312039
:1003400053746F7000436F6E74696E756500436C13
:1003500069636B20746F20526573756D652E2E2E48
:10036000004E6F204D6F76652E00456E64206669E5
:100370006C65206C6973740A00426567696E20665B
:10038000696C65206C6973740A004E6F206D65643A
:1003900069610A00526573756D696E672053440088
:1003A000526573756D650050617573652053440027
:1003B000286E6F2066696C65290043757272656EE0
:1003C000742066696C653A20004E6F742053442097
:1003D0007072696E74696E670A00534420707269A6
:1003E0006E74696E67206279746520002E0A00447D
:1003F000656C6574696F6E206661696C65642C203C
:1004000046696C653A200046696C652064656C65D8
:100410007465643A002569730025696D2025697348
:10042000002569682025696D2025697300256964A8
:10043000202569682025696D202569730025697963
:1004400020256964202569682025696D2025697348
:10045000005072696E742074696D653A2000706195
:100460007573650020543A300A006F6B006F666642
:10047000008C018701800179016B01444542554799
:100480003A004D313133205300506F6C6172677206
:10049000617068204F46462E00434F4E4649475FE5
:1004A0004558504F5254004D4541545041434B0024
:1004B000434F4F4C45525F54454D50455241545562
:1004C0005245004348414D4245525F54454D5045C9
:1004D000524154555245004241425953544550509F
:1004E000494E470041524353004D4F54494F4E5FD0
:1004F0004D4F44455300544845524D414C5F505276
:100500004F54454354494F4E00455854454E444579
:10051000445F4D323000435553544F4D5F4649526E
:100520004D574152455F55504C4F4144004C464E4B
:100530005F5752495445004C4F4E475F46494C4522
:100540004E414D45004155544F5245504F52545F16
:1005500053445F5354415455530053445F575249D9
:10056000544500524550454154004D554C54495F47
:10057000564F4C554D450053444341524400505250
:100580004F4D50545F535550504F525400484F53A5
:10059000545F414354494F4E5F434F4D4D414E448C
:1005A0005300454D455247454E43595F50415253C4
:1005B000455200434153455F4C494748545F4252BE
:1005C000494748544E45535300544F47474C455FA5
:1005D0004C494748545300534F4654574152455F86
:1005E000504F574552004255494C445F5045524385
:1005F000454E54004C4556454C494E475F44415486
:1006000041005A5F50524F42450052554E4F55548B
:10061000004155544F4C4556454C005052494E549C
:100620005F4A4F420050524F475245535300415585
:10063000544F5245504F52545F54454D5000415510
:10064000544F5245504F52545F504F5300564F4CE9
:10065000554D455452494300454550524F4D004277
:10066000494E4152595F46494C455F5452414E53A1
:100670004645520053455249414C5F584F4E5F58D2
:100680004F4646004649524D574152455F4E414DF7
:10069000453A4D61726C696E206275676669782DA6
:1006A000322E312E7820284D617920323920323097
:1006B00032332031363A31393A33372920534F55C6
:1006C0005243455F434F44455F55524C3A67697406
:1006D0006875622E636F6D2F4D61726C696E46692D
:1006E000726D776172652F4D61726C696E20505228
:1006F0004F544F434F4C5F56455253494F4E3A313A
:100700002E30204D414348494E455F545950453A9B
:10071000506F6C6172677261706820455854525511
:100720004445525F434F554E543A30205555494445
:100730003A63656465326132662D343161322D343D
:100740003734382D396231322D63353563363266B0
:100750003336376666002F2F002058004F4646007C
:100760004F4E0020204D61783A2000200020204D7F
:10077000696E3A2000203B200020204D323131208C
:100780005300250A0046523A00206F7574206F66A8
:100790002072616E67650A00536572766F20003AB9
:1007A000200020536572766F200020286D6D29008F
:1007B00020204D3134392043203B20556E6974731D
:1007C00020696E2043656C736975730A0054656D0A
:1007D000706572617475726520556E69747300205E
:1007E00020473231203B004C696E65617220556EA6
:1007F00069747300454550524F4D204F4B0A004DD0
:10080000383400446F6E65207072696E74696E676B
:100810002066696C650A004D3737004D333100435F
:1008200061703A00A10000006900A20000006300AE
:10083000B00000000900C10000004100C20000003B
:100840004100C30000004100C40000004100C50099
:1008500000004100C60000004145C7000000430001
:10086000C80000004500C90000004500CD000000A0
:100870004900D10000004E00D50000004F00D60016
:1008800000004F00D70000007800DC000000550099
:10089000DD0000005900E00000006100E100000000
:1008A0006100E20000006100E30000006100E4007C
:1008B00000006100E50000006100E60000006165E5
:1008C000E70000006300E80000006500E9000000A8
:1008D0006500EA0000006500EB0000006500EC0028
:1008E00000006900ED0000006900EE0000006900F2
:1008F000EF0000006900F10000006E00F20000004F
:100900006F00F30000006F00F40000006F00F500BE
:1009100000006F00F60000006F00F80000006F009C
:10092000F90000007500FA0000007500FB000000EF
:100930007500FC0000007500FD0000007900FF005C
:100940000000790004010000410005010000610081
:100950000601000043000701000063000C010000D5
:1009600043000D01000063000E01000044000F0170
:10097000000064001101000064001901000065001E
:100980001A01000045001B01000065001F01000066
:100990006700300100004900310100006900410199
:1009A00000004C00420100006C00430100004E00BA
:1009B000440100006E00480100006E005801000074
:1009C00052005901000072005A01000053005B01FF
:1009D000000073005F01000073006001000053001D
:1009E0006101000073006501000074006F010000E8
:1009F00075007C0100007A007D0100005A007E0134
:100A000000007A00920100006600E3020000780016
:100A1000222000002E001E2100005078222100001C
:100A2000544D902100003C2D922100002D3EB0211C
:100A300000000300BB21000004003C2200007E00F7
:100A4000482200007E3D60220000213D612200001E
:100A50003D00642200003C3D652200003E3DF12344
:100A600000000700A03000003D0021F3010002005B
:100A7000C2F401000500A2000000EC00B00000007C
:100A8000DF00E4000000E100F6000000EF00F700E6
:100A90000000FD00FC000000F500E3020000EB0098
:100AA00087030000A5008F030000F40098030000F6
:100AB000F2009E030000E300A3030000F600A90378
:100AC0000000F400AC030000E000AD030000E30010
:100AD000B1030000E000B2030000E200B503000033
:100AE000E300B8030000F200BC030000E400BE0312
:100AF0000000E300C0030000F700C1030000E600AF
:100B0000C3030000E500902100007F009221000057
:100B10007E001A220000E8001E220000F300882553
:100B20000000FF0002300000A1000C300000A20015
:100B30000D300000A3009B300000DE009C30000060
:100B4000DF00A03000003D00A1300000A700A2306F
:100B50000000B100A3300000A800A4300000B200E3
:100B6000A5300000A900A6300000B300A7300000A7
:100B7000AA00A8300000B400A9300000AB00AA30E1
:100B80000000B500AB300000B600AC300000B6DEAF
:100B9000AD300000B700AE300000B7DEAF3000006F
:100BA000B800B0300000B8DEB1300000B900B2309B
:100BB0000000B9DEB3300000BA00B4300000BADE85
:100BC000B5300000BB00B6300000BBDEB73000001F
:100BD000BC00B8300000BCDEB9300000BD00BA3047
:100BE0000000BDDEBB300000BE00BC300000BEDE39
:100BF000BD300000BF00BE300000BFDEBF300000CF
:100C0000C000C0300000C0DEC1300000C100C230F2
:100C10000000C1DEC3300000AF00C4300000C200DD
:100C2000C5300000C2DEC6300000C300C73000007F
:100C3000C3DEC8300000C400C9300000C4DECA30C2
:100C40000000C500CB300000C600CC300000C7005B
:100C5000CD300000C800CE300000C900CF30000009
:100C6000CA00D0300000CADED1300000CADFD23066
:100C70000000CB00D3300000CBDED4300000CBDF4F
:100C8000D5300000CC00D6300000CCDED7300000DC
:100C9000CCDFD8300000CD00D9300000CDDEDA3016
:100CA0000000CDDFDB300000CE00DC300000CEDE07
:100CB000DD300000CEDFDE300000CF00DF3000008E
:100CC000D000E0300000D100E1300000D200E2307E
:100CD0000000D300E3300000AC00E4300000D4009A
:100CE000E5300000AD00E6300000D500E730000040
:100CF000AE00E8300000D600E9300000D700EA304E
:100D00000000D800EB300000D900EC300000DA0021
:100D1000ED300000DB00EF300000DC00F2300000BE
:100D2000A600F3300000DD00F4300000B3DEF73041
:100D30000000DCDEFA300000A6DEFB300000A5007B
:100D4000FC300000B000FD300000A400074E0000A1
:100D5000FB0086510000FC0043530000FA0064FFD2
:100D60000000A40065FF0000A50066FF0000A600CB
:100D700067FF0000A70068FF0000A80069FF0000EF
:100D8000A9006AFF0000AA006BFF0000AB006CFF27
:100D90000000AC006DFF0000AD006EFF0000AE0073
:100DA0006FFF0000AF0070FF0000B00071FF000097
:100DB000B10072FF0000B20073FF0000B30074FFC7
:100DC0000000B40075FF0000B50076FF0000B6001B
:100DD00077FF0000B70078FF0000B80079FF00003F
:100DE000B9007AFF0000BA007BFF0000BB007CFF67
:100DF0000000BC007DFF0000BD007EFF0000BE00C3
:100E00007FFF0000BF0080FF0000C00081FF0000E6
:100E1000C10082FF0000C20083FF0000C30084FF06
:100E20000000C40085FF0000C50086FF0000C6006A
:100E300087FF0000C70088FF0000C80089FF00008E
:100E4000C9008AFF0000CA008BFF0000CB008CFFA6
:100E50000000CC008DFF0000CD008EFF0000CE0012
:100E60008FFF0000CF0090FF0000D00091FF000036
:100E7000D10092FF0000D20093FF0000D30094FF46
:100E80000000D40095FF0000D50096FF0000D600BA
:100E900097FF0000D70098FF0000D80099FF0000DE
:100EA000D9009AFF0000DA009BFF0000DB009CFFE6
:100EB0000000DC009DFF0000DD009EFF0000DE0062
:100EC0009FFF0000DF00E5FF00005C000000000065
:100ED000010204040000001C1C0C040404020100B4
:100EE00000000000040810000000000003002D2D89
:100EF0002D2D2D2D007C4D61726C696E7C000100E2
:100F00002D2D2D2D2D2D002500503A002568753AE8
:100F100025303268750025303268753A25303268E0
:100F2000750025303268752725303268750020003D
:100F30003A00001C1F11111F0000000619180313AE
:100F40000C00040E1F041C000000000E1315110EEF
:100F500000001C10181705060500040A0A0A0A11E9
:100F6000110E0C12120C00000000001F1511151FAD
:100F7000000042656400456E636C6F7375726500B6
:100F800045002000250020202020202020002000D7
:100F9000202020200063616E63656C005072696ED2
:100FA000742041626F72746564004469736D697383
:100FB000730055492041626F72746564004D32358B
:100FC00000526573756D65005549205061757365F4
:100FD0000050617573696E672E2E2E0072657375F1
:100FE0006D65004D323400454550524F4D205665D9
:100FF0007273696F6E204572726F72004545505270
:101000004F4D20496E646578204572726F720045BD
:101010004550524F4D20435243204572726F72002B
:101020003F0049676E6F72650052657365740049D1
:101030006E697469616C697A6520454550524F4DFF
:10104000004D696E2054726176656C205370656541
:1010500064004D696E2056656C6F63697479004D4C
:1010600061782040205370656564004D61782040B0
:1010700020416363656C0054726176656C20416346
:1010800063656C00416363656C004D6178204020AE
:101090004A65726B00402073746570732F6D6D002C
:1010A000416476616E6365642053657474696E672C
:1010B00073003F0043616E63656C00496E697400A4
:1010C000496E697469616C697A6520454550524F73
:1010D0004D0053746570732F6D6D004A65726B001F
:1010E000416363656C65726174696F6E004D617810
:1010F00020537065656420286D6D2F7329004D6144
:10110000782042656C74204C656E004472617720D3
:101110004D617820590044726177204D696E2059E5
:101120000044726177204D617820580044726177E5
:10113000204D696E2058005365676D656E74732F7E
:1011400053656300436F6E66696775726174696F9A
:101150006E00526573746F72652044656661756CCC
:101160007473004C6F61642053657474696E6773A7
:101170000053746F72652053657474696E677300F1
:10118000416476616E6365642053657474696E674B
:1011900073004D61696E003F004261636B005374E0
:1011A0006F70004E6F204D65646961005072696E0A
:1011B000742066726F6D204D6564696100436861DB
:1011C0006E6765204D65646961004D323100436F83
:1011D0006E66696775726174696F6E004D6F7469D0
:1011E0006F6E00526573756D65205072696E740084
:1011F00054756E650053746F70205072696E740080
:101200005061757365205072696E7400496E666F27
:101210002053637265656E003F00537461727420E1
:101220005072696E740043616E63656C0050726940
:101230006E740043616E6E6F7420656E746572200B
:101240007375626469723A200005202E2E004D618C
:10125000696E004D6F74696F6E0044697361626CF2
:1012600065205374657070657273004D383400509A
:10127000656E20646F776E004D323830205030201C
:101280005335300050656E207570004D3238302077
:10129000503020533930004175746F20486F6D65B0
:1012A00000473238004D61696E0046616E20537010
:1012B000656564207E005370656564004D61696EEC
:1012C00000486F6D696E67204661696C6564006FE8
:1012D00070656E00545249474745524544003A20D4
:1012E00000795F6D617800785F6D6178005265709C
:1012F0006F7274696E6720656E6473746F702073AB
:1013000074617475730A00000000003353F1C30068
:101310000000005761726E696E673A20486F6D6910
:101320006E672042756D702044697669736F722014
:101330003C20310A000202040080224400007A446A
:10134000000000000000A0400000A040000000409D
:101350000080A2430000FA43000000000080A2C306
:101360000000FAC30000000053657474696E67736F
:101370002053746F7265640000009643000096432A
:10138000000096430000A0420000A0420000A042DE
:10139000B80B0000B80B0000B80B000045455052D8
:1013A0004F4D2056657273696F6E204572726F7271
:1013B0000020436F756E7420583A004D353234006A
:1013C0004D3131322053687574646F776E000009B7
:1013D000121B242D363F48415A536C657E771910F5
:1013E0000B023D342F265158434A757C676E323BC1
:1013F0002029161F040D7A7368615E574C452B2215
:1014000039300F061D14636A7178474E555C646D60
:10141000767F4049525B2C253E3708011A137D74B4
:101420006F6659504B42353C272E1118030A565F00
:10143000444D727B60691E170C053A3328214F46D4
:101440005D546B627970070E151C232A31384148B0
:10145000535A656C777E09001B122D243F36585174
:101460004A437C756E671019020B343D262F737A40
:101470006168575E454C3B3229201F160D046A6394
:1014800078714E475C55222B3039060F141D252CE0
:10149000373E0108131A6D647F7649405B523C3534
:1014A0002E2718110A03747D666F5059424B171E80
:1014B000050C333A21285F564D447B7269600E0754
:1014C0001C152A233831464F545D626B7079000039
:1014D0002110422063308440A550C660E770088127
:1014E00029914AA16BB18CC1ADD1CEE1EFF131129E
:1014F000100273325222B5529442F772D662399377
:1015000018837BB35AA3BDD39CC3FFF3DEE36224ED
:10151000433420040114E664C774A44485546AA5C6
:101520004BB528850995EEE5CFF5ACC58DD553367D
:10153000722611163006D776F6669556B4465BB716
:101540007AA719973887DFF7FEE79DD7BCC7C4484D
:10155000E5588668A7784008611802282338CCC966
:10156000EDD98EE9AFF9488969990AA92BB9F55ADD
:10157000D44AB77A966A711A500A333A122AFDDBB6
:10158000DCCBBFFB9EEB799B588B3BBB1AABA66CAD
:10159000877CE44CC55C222C033C600C411CAEED06
:1015A0008FFDECCDCDDD2AAD0BBD688D499D977EBD
:1015B000B66ED55EF44E133E322E511E700E9FFF56
:1015C000BEEFDDDFFCCF1BBF3AAF599F788F88910C
:1015D000A981CAB1EBA10CD12DC14EF16FE18010F0
:1015E000A100C230E3200450254046706760B983F3
:1015F0009893FBA3DAB33DC31CD37FE35EF3B10240
:101600009012F322D2323542145277625672EAB502
:10161000CBA5A89589856EF54FE52CD50DC5E2348F
:10162000C324A01481046674476424540544DBA7D2
:10163000FAB79987B8975FE77EF71DC73CD7D326DF
:10164000F2369106B01657667676154634564CD962
:101650006DC90EF92FE9C899E9898AB9ABA944582F
:10166000654806782768C018E1088238A3287DCB32
:101670005CDB3FEB1EFBF98BD89BBBAB9ABB754A7F
:10168000545A376A167AF10AD01AB32A923A2EFDC2
:101690000FED6CDD4DCDAABD8BADE89DC98D267CCF
:1016A000076C645C454CA23C832CE01CC10C1FEF12
:1016B0003EFF5DCF7CDF9BAFBABFD98FF89F176E1F
:1016C000367E554E745E932EB23ED10EF01E7C3C9B
:1016D0003E5E2B3D3F2F5B5D3B2C2A225C004D651F
:1016E00064696120496E6974204661696C005344E5
:1016F0002063617264206F6B0A006F70656E526FB9
:101700006F74206661696C65640A00766F6C756D34
:10171000652E696E6974206661696C65640A004EA5
:101720006F20534420636172640A00534420636154
:1017300072642072656C65617365640A000A4D32DB
:1017400034004D3233202573002E0A006F70656E11
:10175000206661696C65642C2046696C653A2000DE
:1017600046696C652073656C65637465640A002066
:1017700053697A653A200046696C65206F70656E22
:1017800065643A2000454E4420535542524F55540B
:10179000494E450A002220706F730022207061724A
:1017A000656E743A2200535542524F5554494E4586
:1017B0002043414C4C207461726765743A22005397
:1017C000756263616C6C204F766572666C6F770032
:1017D0004578636565646564206D61782053554282
:1017E000524F5554494E452064657074683A00570D
:1017F000726974696E6720746F2066696C653A203F
:1018000000667265736800646F696E6700206669C0
:101810006C653A20004E6F7720002F6175746F253C
:10182000632E67006D61726C696E66772E6F7267EA
:10183000006D61726C696E66772E6F7267006275FB
:10184000676669782D322E312E7800627567666979
:10185000782D322E312E78006D61726C696E66774C
:101860002E6F7267006D61726C696E66772E6F7293
:101870006700206275676669782D322E312E7800F8
:101880002020506C616E6E657242756666657242AC
:10189000797465733A20002046726565204D656D48
:1018A0006F72793A200020436F6D70696C65643AFD
:1018B000204D617920323920323032330A00204CF9
:1018C00061737420557064617465643A20323032FB
:1018D000332D30312D3237207C20417574686F7282
:1018E0003A20284D617267696E616C6C7920436C97
:1018F000657665722C204D616B656C616E67656CF9
:101900006F2035290A004D61726C696E206275671F
:101910006669782D322E312E780A0020536F667456
:10192000776172652052657365740A00205761748F
:101930006368646F672052657365740A00204272A1
:101940006F776E206F75742052657365740A00207E
:1019500045787465726E616C2052657365740A0017
:10196000506F77657255700A0073746172740A0063
:101970004732385859004D31303031006F6B0065B7
:1019800072726F722077726974696E6720746F204B
:1019900066696C650A00446F6E6520736176696ED6
:1019A000672066696C652E0A00456E6473746F70FB
:1019B000730025532025632025632025632025639C
:1019C0000020593A0020583A00656E6473746F70B5
:1019D00073206869743A200000000A0B02090C0D9C
:1019E0000E080703040100000000000000000000D2
:1019F00000000000000000000000000000000000E7
:101A000000000000121110000000000000000000A3
:101A1000000000000000000000000000000024F4AE
:101A200004D9201BC40C5C0E9804C4095F0265072E
:101A30007101F405F900FB04B30048048700C103F9
:101A400069005803550003034500BE023A008402B2
:101A5000310053022A002902250004022000E4017B
:101A60001C00C8011900AF0117009801140084017F
:101A70001300710110006101100051010E004301BB
:101A80000D0036010B002B010B0020010B0015018E
:101A900009000C01090003010800FB000800F30025
:101AA0000800EB000700E4000600DE000600D80096
:101AB0000600D2000600CC000500C7000500C200E9
:101AC0000500BD000400B9000400B5000400B10029
:101AD0000400AD000400A9000400A5000300A2005A
:101AE00003009F0004009B00030098000300950082
:101AF000020093000300900003008D0002008B00A1
:101B000003008800020086000200840003008100B8
:101B100002007F0002007D0002007B0002007900CD
:101B200002007700010076000200740002007200DB
:101B30000100710002006F0002006D0001006C00E6
:101B400002006A00010069000200670001006600EF
:101B500001006500010064000200620001006100F4
:101B60000100600001005F0002005D0001005C00F8
:101B700001005B0001005A000100590001005800FB
:101B800001005700010056000100550001005400FB
:101B900001005300000053000100520001005100F9
:101BA0000100500001004F0001004E0000004E00F7
:101BB00001004D0001004C0001004B0000004B00F3
:101BC00001004A00010049000100480000004800EF
:101BD00001004700010046000000460001004500EA
:101BE00000004500010044000100430000004300E4
:101BF00001004200000042000100410000004100DD
:101C00000100400001003F0000003F0001003E00D5
:101C100000003E0001003D0000003D0001003C00CE
:101C200000003C0000003C0001003B0000003B00C5
:101C300001003A0000003A000100390000003900BC
:101C400001003800000038000000380001003700B3
:101C500000003700010036000000360000003600AA
:101C6000010035000000350000003500010034009F
:101C70000000340000003400010033000000330095
:101C8000000033000100320000003200000032008A
:101C9000010031000000310000003100010030007F
:101CA000000030000000300001002F0000002F0075
:101CB00000002F0000002F0001002E0000002E0069
:101CC00000002E0001002D0000002D0000002D005E
:101CD00000002D0001002C0000002C0000002C0052
:101CE00000002C0001002B0000002B0000002B0046
:101CF00000002B0001002A0000002A0000002A003A
:101D000000002A000100290000002900000029002D
:101D10000000290000002900010028000000280020
:101D20000000280000002800000028000100270013
:101D30000000270000002700000027000000270007
:101D400001002600000026000000260000002600FA
:101D500000002600010025000000250000002500ED
:101D600000002500000025000000250001002400DF
:101D700000002400000024000000240000002400D3
:101D800001002300000023000000230000002300C6
:101D900000002300000023000000230001002200B7
:101DA00000002200000022000000220000002200AB
:101DB000000022000100210000002100000021009D
:101DC000000021000000210000002100000021008F
:101DD0000100200000002000000020000000200082
:101DE0000000200000002000000020000000200073
:101DF00001001F0000001F0000001F0000001F0066
:101E000000001F0000001F0000001F0001001E0056
:101E100000001E0000001E0000001E00000024F450
:101E2000D43050C38E20C2A24017828B7011127A18
:101E3000910D816CD90AA861E108C7586607615104
:101E400043061E4B5D05C145A7041A411104093D17
:101E50009803713931034036DB0265339102D43087
:101E60005402802E1D02632CEE01752AC501B02894
:101E7000A001102781018F2564012B244B01E02252
:101E80003401AC211F018D200D01801FFC00841E38
:101E9000ED00971DDF00B81CD200E61BC600201B1A
:101EA000BC00641AB200B219A8000A19A0006A188E
:101EB0009900D117910040178B00B5168400311698
:101EC0007E00B31579003A157300C7146F005814DB
:101ED0006A00EE1366008813630025135E00C712C4
:101EE0005B006C12570015125400C11151007011A3
:101EF0004F0021114B00D61049008D1047004610AD
:101F0000440002104200C00F4000800F3E00420F0C
:101F10003C00060F3B00CB0E3800930E37005C0EE2
:101F20003500270E3400F30D3200C10D3100900D45
:101F30003000600D2E00320D2D00050D2C00D90C47
:101F40002B00AE0C2900850C29005C0C2700350CF9
:101F500027000E0C2600E80B2400C40B2400A00B65
:101F600023007D0B23005A0B2100390B2100180B95
:101F70002000F80A1F00D90A1E00BB0A1E009D0A95
:101F80001D00800A1D00630A1C00470A1B002C0A62
:101F90001B00110A1A00F7091A00DD091900C4090B
:101FA0001900AB091900920917007B091800630991
:101FB00017004C09160036091600200916000A09F8
:101FC0001500F5081500E0081400CC081400B80846
:101FD0001400A4081400900813007D0812006B0878
:101FE0001300580812004608120034081100230894
:101FF00011001208110001081100F0071000E0079D
:102000001000D0071000C0071000B0070F00A10794
:10201000100091070E0083070F0074070F0065077B
:102020000E0057070E0049070E003B070D002E0754
:102030000E0020070D0013070D0006070D00F9061E
:102040000C00ED060D00E0060C00D4060C00C806DE
:102050000C00BC060C00B0060C00A4060B00990690
:102060000C008D060B0082060B0077060B006C0639
:102070000B0061060A0057060B004C060A004206D8
:102080000A0038060A002E060A0024060A001A066C
:102090000A001006090007060A00FD050900F405FC
:1020A0000900EB050900E2050900D9050900D00582
:1020B0000900C7050900BE050900B5050800AD0502
:1020C0000800A50509009C050800940508008C057A
:1020D0000800840508007C050800740508006C05EC
:1020E0000700650508005D050700560508004E0558
:1020F00007004705070040050800380507003105BF
:1021000007002A050700230507001C050600160521
:1021100007000F0507000805060002050700FB047D
:102120000600F5040700EE040600E8040600E204D9
:102130000700DB040600D5040600CF040600C9042E
:102140000600C3040600BD040600B7040600B1047F
:102150000500AC040600A6040600A00405009B04CC
:10216000060095040500900406008A040500850415
:102170000500800406007A0405007504050070045B
:1021800005006B04050066040500610405005C049D
:10219000050057040500520405004D0405004804DD
:1021A0000500430405003E0404003A04050035041C
:1021B0000500300404002C04050027040400230457
:1021C00005001E0404001A0404001604050011048E
:1021D00004000D04040009040500040404000004C4
:1021E0000400FC030400F8030400F4030400F003FB
:1021F0000400EC030400E8030400E4030400E0032B
:102200000400DC030400D8030400D4030400D0035A
:102210000400CC030400C8030300C50303007231AB
:102220000000AC2100008F1400008E0B0000290676
:1022300000002F0300009F010000D10000004D6F3F
:10224000766520246D6D00302E303235004D6F766E
:102250006520302E316D6D004D6F766520316D6DCE
:10226000004D6F76652031306D6D004D6F766520C5
:1022700035306D6D004D6F7665203130306D6D00FD
:102280004D6F76652041786973004D6F766520400B
:10229000005072696E742066726F6D204D656469BE
:1022A0006100200020003A002000200020002000D3
:1022B00020004572726F722077726974696E6720B0
:1022C000746F20454550524F4D210A006275737955
:1022D0003A2070617573656420666F7220696E7054
:1022E00075740A00627573793A207061757365645C
:1022F00020666F7220757365720A00627573793A91
:102300002070726F63657373696E670A004D656450
:1023100069612052656D6F766564004D6564696121
:1023200020496E7365727465640053544F50504574
:10233000442E20005072696E7465722073746F7041
:102340007065642064756520746F206572726F72A9
:10235000732E2046697820746865206572726F72EA
:1023600020616E6420757365204D39393920746F92
:1023700020726573746172742E202854656D7065C7
:102380007261747572652069732072657365742E4D
:1023900020536574206974206166746572207265CB
:1023A0007374617274696E67290A004E6F20436806
:1023B00065636B73756D2077697468206C696E65F1
:1023C000206E756D6265722C204C617374204C69AF
:1023D0006E653A20004D3239004E6F2043686563C8
:1023E0006B73756D2077697468206C696E65206EFB
:1023F000756D6265722C204C617374204C696E653A
:102400003A2000636865636B73756D206D69736D49
:10241000617463682C204C617374204C696E653A5A
:1024200020004C696E65204E756D6265722069737F
:10243000206E6F74204C617374204C696E65204E61
:10244000756D6265722B312C204C617374204C6960
:102450006E653A20004D3131300053657269616C10
:1024600020737461747573206D69736D6174636832
:102470000A0053442072656164206572726F720AAB
:10248000004B494C4C20627574746F6E2F70696EEE
:102490000A002121204B494C4C206361757365640F
:1024A0002062792000746F6F206D75636820696EFB
:1024B0006163746976652074696D65202D2063758C
:1024C0007272656E7420636F6D6D616E643A200088
:1024D0002121204B494C4C20636175736564206257
:1024E0007920000101FF43616E6E6F74206F70658B
:1024F0006E20737562646972200073686F7700657F
:102500006E6400626567696E000000220025002885
:10251000002B002E003100340002010000050108EC
:10252000010B0100002100240027002A002D0030AB
:1025300000330001010000040107010A010505053F
:1025400005070508080808020202020A0A0808042A
:102550000404040101010101010101030303030358
:10256000030303040707070C0C0C0C0C0C0C0C02E7
:1025700002020206060606060606060B0B0B0B0BEE
:102580000B0B0B01021020200808102040102040E7
:102590008002010201080402010102040810204027
:1025A0008080402010080402018004020180402045
:1025B000100804020108040201010204081020406E
:1025C000800102040810204080205A002059002079
:1025D000204D393220580053746570732070657235
:1025E00020756E697400205A3A0020593A00583A12
:1025F000003B20006F6B0A00526573656E643A20E1
:1026000000706F7765726F666600506C6561736508
:10261000205265736574005052494E54455220480B
:10262000414C5445440025533A202553004B494C16
:102630004C45442E20005072696E746572206861AA
:102640006C7465642E206B696C6C28292063616C46
:102650006C6564210A0000506F6C61726772617072
:10266000682052656164792E005072696E74696EDB
:10267000672E2E2E005072696E742050617573653E
:1026800064006E6F74696669636174696F6E2000BF
:10269000220A00556E6B6E6F776E20636F6D6D61F1
:1026A0006E643A2022002EA561AF11241FBECFEF29
:1026B000D1E2DEBFCDBF00E00CBF84B7809314121F
:1026C00014BE0FB6F894A89580916000886180933D
:1026D0006000109260000FBE13E0A0E0B2E0ECE3F7
:1026E000F7E701E00BBF02C007900D92A235B107DA
:1026F000D9F722E1A2E5B3E001C01D92A431B207EF
:10270000E1F713E1C4E5D3E100E006C02197010938
:10271000802FFE010E9451B8C335D10780E0080721
:10272000A9F70E9472A60C948DBB0C940000DC01EA
:10273000680F791F90E080E02D91E92FFF27E227B5
:10274000EE0FFF1FE253FB4E25913491982F8827FF
:10275000822793276A177B0779F708950F931F93B2
:10276000CF93DF93CDB7DEB760970FB6F894DEBF97
:102770000FBECDBF8C01DC01ED91FC910280F38195
:10278000E02DBE016F5F7F4F1995882309F464C067
:102790008981807CC9F56F81637070E0762F662730
:1027A000770F770F8885B4E08B9FC0011124682BC9
:1027B000792B89858295869586958370682B6F5FC6
:1027C0007F4F90E080E02A852370220F3B8537FB06
:1027D000332730F9232B3E813F70230F3327331FDC
:1027E0002750310904C0660F771F881F991F2A954B
:1027F000D2F760960FB6F894DEBF0FBECDBFDF9163
:10280000CF911F910F910895803419F568856695D1
:10281000669570E090E080E0CB01772766272A85F7
:10282000622B098510E0102F0027012E000C220BCF
:10283000330B602B712B822B932B6F5F7F4F8F4F4E
:102840009F4F4AE0660F771F881F991F4A95D1F75F
:10285000D0CF8BE0F801848360E070E0CB01C9CF7A
:10286000FC0182810895FC019CE0A3E5B4E00190A5
:102870000D929A95E1F70895AF92BF92CF92DF92B1
:10288000EF92FF920F931F93CF93DF93C8E8D9E0A5
:1028900007ED14E084E9A82E89E0B82EC12CD12CD4
:1028A0007601C39469917991899199910E94DEB3DF
:1028B0002C853D854E855F850E943FB40E94A3B95B
:1028C000F80161937193819391938F01C616D70696
:1028D000E806F90610F46B017C01AC16BD0611F791
:1028E0006FEF7FEFCB01A70196010E94B4B7209351
:1028F000E3043093E4044093E5045093E604DF914D
:10290000CF911F910F91FF90EF90DF90CF90BF90EC
:10291000AF9008958F929F92AF92BF92CF92DF9225
:10292000EF92FF92CF93DF9320910702222309F4C5
:1029300053C0EC01C0900104D0900204E090030465
:10294000F090040488809980AA80BB80A50194013E
:10295000C701B6010E9480BA18162CF4C882D98229
:10296000EA82FB8210C0C090F903D090FA03E09095
:10297000FB03F090FC03A5019401C701B6010E947E
:10298000DAB387FDEBCFC0900504D0900604E09049
:102990000704F09008048C809D80AE80BF80A50164
:1029A0009401C701B6010E9480BA18162CF4CC829B
:1029B000DD82EE82FF8210C0C090FD03D090FE0346
:1029C000E090FF03F0900004A5019401C701B60157
:1029D0000E94DAB387FDEBCFDF91CF91FF90EF90AC
:1029E000DF90CF90BF90AF909F908F9008958F927F
:1029F0009F92AF92BF92CF92DF92EF92FF92CF93CE
:102A0000FC01C080D180E280F38020E030E0A901A9
:102A1000C701B6010E94DAB387FFC4C0C701B6017F
:102A2000905820E030E040E251E40E943FB420E0C2
:102A300030E048EC52E40E943FB420E030E040EA4D
:102A400050E40E945AB820E030E040E251E40E9495
:102A500036B90E949EB96B017C0160E2F0E4CF16AA
:102A6000F2E4DF06FFE0EF06F10484F0B60120E4B3
:102A700032E44FE050E00E94D6B7CA01B9012AE023
:102A800030E040E050E00E94D6B7605D6093DE0326
:102A900060E280EAC81686E8D80681E0E806F1041C
:102AA0008CF0C701B60120EA36E841E050E00E9410
:102AB000D6B7CA01B9012AE030E040E050E00E94F8
:102AC000D6B7605D6093DF0360E2E0E1CE16E7E237
:102AD000DE06E104F1048CF0C701B60120E137E223
:102AE00040E050E00E94D6B7CA01B9012AE030E0C8
:102AF00040E050E00E94D6B7605D6093E00360E282
:102B0000F8EECF16F3E0DF06E104F1048CF0C70124
:102B1000B60128EE33E040E050E00E94D6B7CA018B
:102B2000B9012AE030E040E050E00E94D6B7605D95
:102B30006093E103C701B60124E630E040E050E0D5
:102B40000E94D6B78AE0882E912CA12CB12CCA0104
:102B5000B901A50194010E94D6B7605D6093E203BC
:102B60008EE28093E303C701B601A50194010E94A0
:102B7000D6B7C62FCA01B901A50194010E94D6B7E4
:102B8000605D6093E403C05DC093E5038EED93E068
:102B9000CF91FF90EF90DF90CF90BF90AF909F903C
:102BA0008F90089520E030E040E251E4C701B60183
:102BB0003CCF8F929F92AF92BF92CF92DF92EF92D3
:102BC000FF92CF93FC01C080D180E280F38020E0AF
:102BD00030E040E251E4C701B6010E943FB420E07A
:102BE00030E048EC52E40E943FB44B015C0120E02D
:102BF00030E0A901C701B6010E94DAB320E030E05D
:102C000040EA50E487FF04C020E030E040EA50ECA6
:102C1000C501B4010E945AB820E030E040E251E41E
:102C20000E9436B90E949EB96B017C018BE2F7FECF
:102C300009C0F094E094D094C094C11CD11CE11C54
:102C4000F11C8DE28093DF03C701B60120E137E27A
:102C500040E050E00E94D6B78AE0882E912CA12C4B
:102C6000B12CCA01B901A50194010E94D6B7605DDB
:102C70006093E003C701B60128EE33E040E050E086
:102C80000E94D6B7CA01B901A50194010E94D6B726
:102C9000605D6093E103C701B60124E630E040E0E7
:102CA00050E00E94D6B7CA01B901A50194010E9463
:102CB000D6B7605D6093E2038EE28093E303C701C1
:102CC000B601A50194010E94D6B7C62FCA01B90169
:102CD000A50194010E94D6B7605D6093E403C05DD6
:102CE000C093E5038FED93E0CF91FF90EF90DF90DD
:102CF000CF90BF90AF909F908F9008958F929F92AA
:102D0000AF92BF92CF92DF92EF92FF92CF93FC01EE
:102D1000C080D180E280F38020E030E040E251E4E6
:102D2000C701B6010E943FB420E030E040E251E428
:102D30000E943FB44B015C0120E030E0A901C701D3
:102D4000B6010E94DAB320E030E040EA50E487FFA9
:102D500004C020E030E040EA50ECC501B4010E941C
:102D60005AB820E030E040E251E40E9436B90E94B7
:102D70009EB96B017C018BE2F7FE09C0F094E094F0
:102D8000D094C094C11CD11CE11CF11C8DE2809335
:102D9000DF03C701B60120E137E240E050E00E94C6
:102DA000D6B78AE0882E912CA12CB12CCA01B9018A
:102DB000A50194010E94D6B7605D6093E003C7014E
:102DC000B60128EE33E040E050E00E94D6B7CA01D9
:102DD000B901A50194010E94D6B7605D6093E1033B
:102DE000C701B60124E630E040E050E00E94D6B7CB
:102DF000CA01B901A50194010E94D6B7605D609334
:102E0000E203C701B601A50194010E94D6B7C62FFF
:102E1000CA01B901A50194010E94D6B7605D609313
:102E2000E3038EE28093E403C05DC093E5038FED7E
:102E300093E0CF91FF90EF90DF90CF90BF90AF9055
:102E40009F908F900895CF92DF92EF92FF92FC01B6
:102E5000C080D180E280F38020E030E0A901C7018A
:102E6000B6010E94DAB387FF68C0C701B601905867
:102E700020E030E040E251E40E943FB420E030E046
:102E800040EA50E40E945AB820E030E040E251E4C9
:102E90000E9436B90E949EB99B0160E22031F7E2A0
:102EA0003F0730F0C90160E177E20E942AB8605D17
:102EB0006093E103283E83E0380708F445C0C90168
:102EC00068EE73E00E942AB8CB016AE070E00E94CD
:102ED0002AB8805D8093E20380E22436310558F001
:102EE000C90164E670E00E942AB8CB016AE070E094
:102EF0000E942AB8805D8093E30380E22A30310586
:102F000058F0EAE0F0E0C901BF010E942AB8CB0105
:102F1000BF010E942AB8805D8093E403C9016AE082
:102F200070E00E942AB8805D8093E50381EE93E013
:102F3000FF90EF90DF90CF90089520E030E040E2E6
:102F400051E4C701B60198CF80E2C4CF9C0197FF3E
:102F500026C0EE27FF27E81BF90B2D398FEF380726
:102F60000CF05DC08DE28093E203CF0164E670E077
:102F70000E943EB8CB012AE030E0B9010E943EB881
:102F8000805D8093E303CF01B9010E943EB8CB017D
:102F9000B9010E943EB8805D8093E4032AC0283EB8
:102FA00083E03807B4F1C90168EE73E00E943EB8CF
:102FB000CB01EAE0F0E0BF010E943EB8805D809363
:102FC000E203C90164E670E00E943EB8CB01BF0194
:102FD0000E943EB8805D8093E303C901BF010E9457
:102FE0003EB8CB01BF010E943EB8805D8093E403F0
:102FF000F901CF016AE070E00E943EB8805D8093E5
:10300000E50382EE93E008958DE237FDC5CF80E2BF
:10301000C3CFF90180E2243631050CF0A4CF80E261
:103020008093E2038093E303EA30F1056CF38DE2D1
:1030300037FF80E28093E303CF016AE070E00E94F3
:103040003EB8605D6093E403D4CF9C0197FD2DC032
:1030500080E2243631055CF0C90164E670E00E942C
:103060003EB8CB016AE070E00E943EB8805D80937C
:10307000E30380E22A3031055CF0EAE0F0E0C901C8
:10308000BF010E943EB8CB01BF010E943EB8805DE7
:103090008093E403C9016AE070E00E943EB8805D5D
:1030A0008093E50383EE93E00895319521953109EE
:1030B0008DE2DDCF282F81E3243609F080E2809372
:1030C000E20390E22A3040F03AE0822F632F0E9420
:1030D00011B80E9411B8905D9093E303822F6AE0CB
:1030E0000E9411B8905D9093E40385E28093E5031C
:1030F00082EE93E00895CF93DF93EC01CB01BA0108
:103100000E94E0B329EC38EC48EC5EE30E9436B94B
:1031100020E030E040E05FE30E945AB80E94A3B98B
:103120006883DF91CF9108950E94E0B329EC38ECD9
:1031300048EC5EE30E9436B920E030E040E05FE317
:103140000E945AB80E94A3B924E6629FC0011124CC
:1031500081589F4F6FEF70E00E943EB8862FAACF34
:10316000CF93DF93EC01CB01BA010E94E0B30E9440
:103170009EB979836883DF91CF9108950E94E0B36F
:103180000E949EB9CB0161CFE0919904E23030F406
:10319000F0E0E551FB4F8091DA0380830895809140
:1031A00091108823C1F0815080939110EDEDFEE0E5
:1031B000882351F08150990B2BE1289FF001299F22
:1031C000F00D1124ED57F04F8BE1A2ECBEE0019021
:1031D0000D928A95E1F720919110211105C08091FF
:1031E0009B10806480939B1081E090E0A0E0B0E0B1
:1031F000211103C080E090E0DC018093B90490933A
:10320000BA04A093BB04B093BC041092860481E07E
:103210008093980483E0809332020895CF93DF93E4
:1032200000D01F92CDB7DEB70E94A3B90E94DEB3D3
:1032300069837A838B839C83CE01019604DE0F9091
:103240000F900F900F90DF91CF910895CF92DF9262
:10325000EF92FF92CF93DF9300D01F92CDB7DEB7EE
:103260006B017C0120E030E0A9010E94DAB387FD08
:103270001AC06DEB77E386E095E3A70196010E9403
:103280005AB869837A838B839C83CE01019636DD9D
:103290000F900F900F900F90DF91CF91FF90EF90D4
:1032A000DF90CF9008956DEB77E386E095EBE5CF67
:1032B000CF92DF92EF92FF92CF93DF9300D01F92D5
:1032C000CDB7DEB76B017C0120E030E0A9010E94A0
:1032D000DAB387FD1AC06DEB77E386E095E3A701CB
:1032E00096010E945AB869837A838B839C83CE01AE
:1032F0000196A9DD0F900F900F900F90DF91CF9165
:10330000FF90EF90DF90CF9008956DEB77E386E02C
:1033100095EBE5CFCF93DF93EC01CB01BA010E948F
:10332000E0B320E030E040E251E40E9436B9688327
:1033300079838A839B83DF91CF9108950E94E0B3C4
:1033400020E030E040E251E40E9436B97FCFCF93D5
:10335000DF93EC01CB01BA010E94E0B3688379836B
:103360008A839B83DF91CF910895CF93DF93EC0104
:10337000CB01BA010E94E0B3688379838A839B837F
:10338000DF91CF910895CF92DF92EF92FF920E944A
:10339000E0B36B017C0120E030E0A9010E94DAB3C8
:1033A0002DEB37E346E055E387FF04C02DEB37E311
:1033B00046E055EBC701B6010E945AB86B017C018B
:1033C00020E030E0A9010E94DAB320E030E040E0E4
:1033D0005FE387FF04C020E030E040E05FEBC7011F
:1033E000B6010E945AB80E949EB9CB01FF90EF909F
:1033F000DF90CF90ABCDCF93DF93EC01CB01BA013F
:103400000E94E0B320E030E048EC52E40E9436B97C
:10341000688379838A839B83DF91CF910895CF93CB
:10342000DF93EC01CB01BA010E94E0B320E030E071
:1034300048EC52E40E9436B9688379838A839B837F
:10344000DF91CF910895CF92DF92EF92FF92CF93C9
:10345000DF9300D01F92CDB7DEB70E94E0B320E02B
:1034600030E048EC52E40E9436B96B017C0120E068
:1034700030E0A9010E94DAB32DEB37E346E055E3D3
:1034800087FF04C02DEB37E346E055EBC701B601DB
:103490000E945AB869837A838B839C83CE010196FC
:1034A000A6DA0F900F900F900F90DF91CF91FF90C1
:1034B000EF90DF90CF900895CF93DF93EC01CB0195
:1034C000BA010E94E0B3688379838A839B83DF918A
:1034D000CF910895CF92DF92EF92FF920E94E0B3D6
:1034E0006B017C0120E030E0A9010E94DAB32DEBF2
:1034F00037E346E055E387FF04C02DEB37E346E0B2
:1035000055EBC701B6010E945AB86B017C0120E05F
:1035100030E0A9010E94DAB320E030E040E05FE350
:1035200087FF04C020E030E040E05FEBC701B60158
:103530000E945AB80E949EB9CB01FF90EF90DF9095
:10354000CF9083CDCF92DF92EF92FF92CF93DF9314
:1035500000D01F92CDB7DEB70E94E0B320E030E08C
:1035600048EC52E40E9436B96B017C0120E030E067
:10357000A9010E94DAB32DEB37E346E055E387FF5C
:1035800004C02DEB37E346E055EBC701B6010E94BE
:103590005AB869837A838B839C83CE01019609DBB9
:1035A0000F900F900F900F90DF91CF91FF90EF90C1
:1035B000DF90CF900895CF93DF93EC01CB01BA0158
:1035C0000E94E0B32AE037ED43E25DE30E9436B9A2
:1035D0000E94A3B9688379838A839B83DF91CF910B
:1035E00008950E94E0B32AE037ED43E25DE30E94D4
:1035F00036B914CECF93DF93EC01CB01BA010E9410
:10360000E0B32AE037ED43E25DE30E9436B9688318
:1036100079838A839B83DF91CF9108950E94E0B3E1
:103620002AE037ED43E25DE30E9436B941CE0E94C5
:10363000E0B33ECE21C920C91FC9FC018491089581
:10364000FC0180810895AF92BF92CF92DF92EF92FA
:10365000FF920F931F93CF93DF93EC015B018A01DD
:10366000FB01199587FD16C0C82ED12CF12CE12C39
:103670002196F801C082D182E282F382CE01DF91ED
:10368000CF911F910F91FF90EF90DF90CF90BF905F
:10369000AF900895982F907E903CA9F48F7190E0A0
:1036A000B0E0A0E06C017D0156E0CC0CDD1CEE1C0E
:1036B000FF1C5A95D1F7CE010196F50119958F732C
:1036C000C82A2296D6CF982F907F903E11F58F7002
:1036D00090E0B0E0A0E06C017D0136E0CC0CDD1C98
:1036E000EE1CFF1C3A95D1F7CE010196F501199514
:1036F0008F73C82A46E0CC0CDD1CEE1CFF1C4A95DB
:10370000D1F7CE010296F50119958F73C82A239639
:10371000B0CF982F987F903F79F5877090E0B0E018
:10372000A0E06C017D0186E0CC0CDD1CEE1CFF1CD2
:103730008A95D1F7CE010196F50119958F73C82AA4
:1037400096E0CC0CDD1CEE1CFF1C9A95D1F7CE0147
:103750000296F50119958F73C82A26E0CC0CDD1C62
:10376000EE1CFF1C2A95D1F7CE010396F5011995A1
:103770008F73C82A24967DCF982F907C903841F47F
:10378000807C803869F42196CE01F5011995F8CF37
:103790008E7F8D3F28F02196CE01F5011995F8CF47
:1037A000C12CD12C760165CF90E080E008952FEBFD
:1037B000280F2A3108F047C0E22FF0E080917D0306
:1037C00090917E03A0917F03B091800304C0B695D1
:1037D000A795979587952A95D2F780FD02C08170AD
:1037E0000895ED59FC4FE081EE2341F18091A30E45
:1037F0009091A40EE80FF92FF11D808190ED980FA4
:103800009A3030F08E3251F4818180538A3098F4AE
:10381000F0936003E0935F0381E008958D3211F02F
:103820008B3249F4818190ED980F9A3088F38E3273
:1038300011F48281EACFF0E0E0E0EACF1092600379
:1038400010925F03E9CF80E00895B1DF882341F053
:1038500081E020915F0330916003232B09F480E025
:10386000089580916A0C813069F090919B1092FBD1
:10387000882780F992FF07C097FB882780F991E09D
:103880008927089581E008958091470F9091480F0E
:10389000891B8F7009F4E5CF81E008958EBD0DB4CA
:1038A00007FEFDCF0895909164009B7F9093640084
:1038B000982F906A96959CBD80FD03C091E086305C
:1038C00009F490E09DBD08950F931F9380916A0CB9
:1038D000813019F50E94A4880091EB031091EC034C
:1038E0002091ED033091EE03601B710B820B930B63
:1038F00028EE33E040E050E00E94B4B76091E70367
:103900007091E8038091E9039091EA03620F731FBD
:10391000841F951F1F910F9108956091EF0370917F
:10392000F0038091F1039091F203D6CFCF92DF9212
:10393000EF92FF920F931F930E94A48800918F0330
:103940001091900320919103309192036B017C01BF
:10395000C01AD10AE20AF30A9701860137FD11C0A5
:1039600020918E03209520938E036A547C4F8F4FB5
:103970009F4F60938F037093900380939103909374
:10398000920381E090918E03911101C080E01F911C
:103990000F91FF90EF90DF90CF900895CF93DF933A
:1039A000EC018D8180DF60E08B81DF91CF910C9401
:1039B0005F8661E0FC0183810E945F868FEF6ECF9E
:1039C0000F931F93CF938C01E9DF0E94B088C82F1B
:1039D000882361F08DEF62DF0E94B088C82FC80194
:1039E000E8DF8C2FCF911F910F91089582E1F801AC
:1039F0008483F5CFAF92BF92CF92DF92EF92FF9286
:103A00000F931F93CF935C016B018A01895A9C4FDE
:103A10007C01DC01CC91C7FF3DC0FB01118210820B
:103A2000CF5FD701CC93CC300CF053C08CE08A9D93
:103A3000F0018B9DF00D1124CF018C0F911DC7FD5E
:103A40009A952091400F2817190609F00CF441C0EF
:103A5000F60120813181FC01EE0FFF1FE80FF91FF5
:103A6000E850F14F81819281820F931FD801119606
:103A70009C938E93808187FF3DC061E08F77CF91CB
:103A80001F910F91FF90EF90DF90CF90BF90AF907C
:103A90000C945F868CE08A9DF0018B9DF00D1124C3
:103AA000CF018C0F911DC7FD9A952091400F2817CB
:103AB000190609F00CF4B4CFFC01EE0FFF1FE80F5C
:103AC000F91FE850F14F808160E08F770E945F8698
:103AD000A7CFF6018081918104968034FCE99F078D
:103AE00010F480E49CE9D80111969C938E938FEF9B
:103AF000F7018083CF911F910F91FF90EF90DF909E
:103B0000CF90BF90AF90089540910D0421E04227DF
:103B100064E070E00C943B8140910D0421E0422769
:103B200061E070E00C943B8140910D0421E042275C
:103B30006CE070E00C943B8140910D0421E0422741
:103B400061E070E00C943B8140910D0421E042273C
:103B500068E070E00C943B8140910D0421E0422725
:103B60006CE070E00C943B8141E061E070E00C940B
:103B70003B8140910D0421E042270C943B8168E099
:103B800070E00C943A8861E070E00C943A886CE044
:103B900070E00C943A8864E070E00C943A880F93DB
:103BA0001F93CF93DF9308E919E0CDEED4E0F8013D
:103BB00021913191419151918F0160E070E080E855
:103BC0009FE30E9436B96993799389939993F4E0BE
:103BD000C93FDF0761F70E94AB82DF91CF911F9150
:103BE0000F910C943C14DBCFCF93DF93CDB7DEB7AE
:103BF0002C970FB6F894DEBF0FBECDBF19821A8284
:103C00001B821C821D821E821F82188619861A86BC
:103C10001B861C86AE014F5F5F4FBC018AE392E0BA
:103C20000E94BFA02C960FB6F894DEBF0FBECDBF8A
:103C3000DF91CF9108956EE17EE382E00C94B7A30B
:103C400060E27EE381E00C94B7A362E27EE380E071
:103C50000C94B7A380913202882341F06091D7037E
:103C60007091D80341E081E00C94D8820895CF92FE
:103C7000DF92EF92FF920F931F93CF93DF9300D0C9
:103C800000D01F921F92CDB7DEB78E010F5F1F4F7E
:103C9000D80130E020E0FB01E20FF31FE491ED9347
:103CA0002F5F3F4F28303105B1F7877098E0899F2B
:103CB000B001112460648BE69FE00E941A8983E7BB
:103CC00090E00197F1F77801E8E0EE0EF11C8BE946
:103CD000C82ED12CF80161918F018BE69FE00E94E4
:103CE0002B7CC6010197F1F7E016F10699F72896AB
:103CF0000FB6F894DEBF0FBECDBFDF91CF911F91FD
:103D00000F91FF90EF90DF90CF900895CF92DF92C8
:103D1000EF92FF920F931F93CF93DF9300D000D0C9
:103D2000CDB7DEB78A0146E0469F9001479F300D30
:103D30001124BC01620F731F46E050E0CE010196D2
:103D40000E9403B3C980DA80EB80FC80F8014081D7
:103D50005181628173818FEF9FEFC416D506E6060D
:103D6000F70640F081E090E04C155D056E057F059B
:103D700008F080E026960FB6F894DEBF0FBECDBFE8
:103D8000DF91CF911F910F91FF90EF90DF90CF9037
:103D900008950F931F93CF93DF93CDB7DEB72E9780
:103DA0000FB6F894DEBF0FBECDBF8B011E861D86F9
:103DB000FC0160817181828193816F83788789871B
:103DC0009A872FEF2B87603871058105910538F4AC
:103DD0008BE69FE00E942B7C81E090E02FC09E014B
:103DE000235F3F4FAE01495F5F4F69EB70E086E7AD
:103DF0009AE00E94547E97FD2CC08D859E8526E01A
:103E0000289FB001299F700D11246A58754F46E014
:103E100050E0CE0101960E9403B36D818BE69FE0D6
:103E20000E942B7C01301105B9F26E816623A1F24C
:103E30008BE69FE00E942B7C82E090E02E960FB6EE
:103E4000F894DEBF0FBECDBFDF91CF911F910F91D0
:103E500008959E01235F3F4FAE01495F5F4F63E6C8
:103E600070E084E298E00E94547E97FD0BC08D853F
:103E70009E8526E0289FB001299F700D11246C5D5E
:103E8000774FC5CF6FE3A4CF80915F03909160031C
:103E9000009731F04AE050E070E060E00C94D0B060
:103EA00060E070E0CB010895EFDF97FD0AC0ECDF22
:103EB0006F3F71058105910509F02CF4E5DF862F30
:103EC000089580E008958FEF0895CF93DF93D82F62
:103ED000C62FBBDC882389F080915F03909160033B
:103EE000892B29F4C1E08C2FDF91CF910895DCDF7D
:103EF000C1E08111F8CFC0E0F6CF8D2F58DC8823C8
:103F000091F3F0CF80915F0390916003009731F0BF
:103F10004AE050E070E060E00C94FBB160E070E0DB
:103F2000CB0108950F931F93CF9380915F039091DE
:103F30006003009709F1FC018F01C1912C2F2F7DA7
:103F4000A1F0C53431F0C53621F0C83511F0C837BD
:103F500099F7F801108270E060E00E947BAFF801F1
:103F6000C083CF911F910F91089570E060E0CF91D1
:103F70001F910F910C947BAF60E070E0CB01F1CF0B
:103F8000EF92FF920F931F93CF93DF9332EAE32ECA
:103F900034E0F32E0AE312E0D0E0C0E08C2F885A20
:103FA00054DC882309F451C0BDDF2091610330E067
:103FB0000C2E02C0359527950A94E2F720FF37C0F2
:103FC000F80120813181428153810E945AB8F70162
:103FD00060837183828393832196F4E0EF0EF11C5A
:103FE0000C5F1F4FC330D105C9F686E42EDC882351
:103FF000B9F098DF20E030E0A9010E9480BA1816DD
:104000007CF490DF20E030E040E752E40E9436B9D3
:1040100060932B0270932C0280932D0290932E02BA
:10402000DF91CF911F910F91FF90EF900895FE01C6
:10403000EE0FFF1FEE0FFF1FEC53F64F2081318173
:10404000428153810E9459B8C2CFF8018081918189
:10405000A281B381F70180839183A283B383BCCF14
:10406000CF9380919F0EC1E08823C9F08091A00E6C
:104070009091A10E4091970E5091980E6091990EDB
:1040800070919A0EDC01ED91FC910288F389E02D8C
:1040900027E93CE01995C82F811104C0C0E08C2F9E
:1040A000CF91089540919B0E50919C0E60919D0E72
:1040B00070919E0E4115510561057105B9F0809111
:1040C000A00E9091A10EDC01ED91FC910288F38984
:1040D000E02D27E93CE01995882301F310929B0E0F
:1040E00010929C0E10929D0E10929E0E10929F0E9A
:1040F000D6CFCF92DF92EF92FF92CF936B017C01EC
:10410000C42F8091970E9091980EA091990EB09126
:104110009A0E8C159D05AE05BF0521F1A1DF811119
:1041200008C0C0E08C2FCF91FF90EF90DF90CF9030
:1041300008958091A00E9091A10EDC01ED91FC916B
:104140000088F189E02D27E93CE0B701A601199527
:10415000882339F3C092970ED092980EE092990E70
:10416000F0929A0ECC2321F081E080939F0EDACF5B
:10417000C1E0D8CFCF92DF92EF92FF920F931F93BF
:10418000CF93DF93FC0181859285A385B485019649
:10419000A11DB11D84179507A607B70750F480E04D
:1041A000DF91CF911F910F91FF90EF90DF90CF9013
:1041B000089587898031A9F5BB27A72F962F852FD2
:1041C000C388D488E588F6888C0D9D1DAE1DBF1D63
:1041D000E9016A017B018F014091970E5091980E81
:1041E0006091990E70919A0E84179507A607B707EC
:1041F00049F5F8018789803161F5B701A601552796
:1042000066277727440F551F4956534FFA0180817F
:104210009181B0E0A0E088839983AA83BB8381E089
:10422000BFCF803209F0BBCFC388D488E588F68839
:10423000DB01CA01C7E0B695A79597958795CA9502
:10424000D1F7C2CF40E0BC01CD0153DF8111D1CF06
:10425000A6CFB701A6014F77552766277727440FCA
:10426000551F440F551F4956534FFA0180819181C4
:10427000A281B381BF70CFCF4F925F926F927F9236
:10428000AF92BF92CF92DF92EF92FF920F931F9364
:10429000CF93DF9300D01F92CDB7DEB78C01498357
:1042A0005A836B837C835901C12CD12C7601412C1C
:1042B00082E0582E612C712C49815A816B817C815E
:1042C0009E012F5F3F4FC80155DF882319F1F80188
:1042D0008585A301920104C0220F331F441F551F7F
:1042E0008A95D2F7DA01C901C80ED91EEA1EFB1E53
:1042F00049815A816B817C8187898031F1F481E029
:10430000483F5F4F61057105B8F2F501C082D18267
:10431000E282F3820F900F900F900F90DF91CF9178
:104320001F910F91FF90EF90DF90CF90BF90AF90D3
:104330007F906F905F904F90089581E0483F5F4F6E
:104340006F4F7F4008F4B8CFE0CFCF93DF93EC01FD
:10435000462F41706C857D858E859F85CADE8823BA
:1043600051F0888920E2829FC00111248956934F21
:10437000DF91CF91089590E080E0FACFCF93DF9363
:10438000EC018B81882339F1898187FF21C061E0AD
:10439000CE01DBDFFC01892BF1F08081853ED9F075
:1043A0008B81823040F489899A89AB89BC89848F5A
:1043B000958FA68FB78F8D899E89938F828F8D89D8
:1043C0009E89AF89B88DB58BA48B89818F778983BE
:1043D000DF91CF9145CE81E0888380E0DF91CF915E
:1043E00008958F929F92AF92BF92CF92DF92EF92F9
:1043F000FF920F931F93CF93DF93EC018B81811179
:104400000EC080E0DF91CF911F910F91FF90EF9050
:10441000DF90CF90BF90AF909F908F9008950989C3
:104420001A892B893C89041715072607370748F393
:104430004A015B01823031F488869986AA86BB8660
:1044400081E0E0CF81149104A104B10449F41886FD
:1044500019861A861B861C821D821E821F82F0CF3F
:10446000088519852A853B85E98DFA8D858590E03B
:104470000996B901A8014150510961097109082E35
:1044800004C076956795579547950A94D2F77501BC
:104490006401E1E0CE1AD108E108F10804C0F69405
:1044A000E794D794C7948A95D2F7C416D506E60642
:1044B000F70620F0012B022B032B09F58D899E892D
:1044C000AF89B88D8C839D83AE83BF838E010C5FD3
:1044D0001F4FC114D104E104F10409F4ADCF4C81A4
:1044E0005D816E817F819801898D9A8D43DE91E097
:1044F000C91AD108E108F1088111EBCF82CFC41AA3
:10450000D50AE60AF70AE2CF2F923F924F925F92C6
:104510006F927F928F929F92AF92BF92CF92DF92D3
:10452000EF92FF920F931F93CF93DF93EC014B0118
:104530007A018B81811115C08FEF9FEFDF91CF91B1
:104540001F910F91FF90EF90DF90CF90BF90AF90B1
:104550009F908F907F906F905F904F903F902F90A3
:104560000895898180FFE8CF89899A89AB89BC89C0
:10457000488559856A857B85841B950BA60BB70BEF
:10458000A70170E060E084179507A607B70708F455
:104590007C0167011E0124E0220E311CC114D104EC
:1045A00009F4A7C0488559856A857B855A0181E051
:1045B000B822898D9A8D2A013B0129E0769467946F
:1045C000579447942A95D1F72B81FC01223079F535
:1045D000628D738D848D958D640D751D861D971D5F
:1045E00000E012E00A191B09C016D10608F4860182
:1045F0000115E2E01E0771F44090970E5090980E5E
:104600006090990E70909A0E641575058605970551
:1046100009F04CC040E06DDD882309F48DCFB50171
:104620006956734FA801C4010E9437BB51C0148161
:1046300011501421A114B10471F411110CC0452BB7
:10464000462B472B51F58D899E89AF89B88D8C8378
:104650009D83AE83BF83E98DFA8D4C805D806E8033
:104660007F8022E0421A510861087108858504C0E4
:10467000440C551C661C771C8A95D2F78685978555
:10468000A089B189480E591E6A1E7B1EC301B20162
:10469000610F711D811D911DA3CF4C815D816E81C4
:1046A0007F81910167DD8111D6CF46CFA091A00E09
:1046B000B091A10EED91FC9111970088F189E02D48
:1046C0009401AB01BC01CD011995882309F434CFC5
:1046D000800E911E88859985AA85BB85800F911FC4
:1046E000A11DB11D88879987AA87BB87C01AD10AE7
:1046F00055CFC70123CF0F931F93CF93DF93FC01B7
:104700002381222331F080E0DF91CF911F910F911F
:1047100008958B01EC01FB018789803139F582E036
:104720008B831D8A1E8A1F8A188E808D918DB0E022
:10473000A0E025E0880F991FAA1FBB1F2A95D1F77B
:10474000898B9A8BAB8BBC8B1A8F098F81E0898305
:10475000188619861A861B861C821D821E821F825D
:10476000188A1C861D861E861F86CECF803259F67B
:1047700083E08B83428D538D648D758D4D8B5E8B65
:104780006F8B788F9E012F5E3F4FC80175DD8111C1
:10479000DBCFB9CFCF93DF93EB01FC012381211154
:1047A00004C080E0DF91CF9108952250223028F498
:1047B0008FE28883198281E0F5CF60E0C6DD009743
:1047C00081F3DC0160E080E09EE22D91203299F0DF
:1047D000883031F49E01260F311DF90190836F5FFF
:1047E0009E01260F311DAD0141505109FA01408152
:1047F000F90140836F5F8F5F8B3039F7FE01E60F61
:10480000F11D1082D8CFCF93DF93EC01B7DD1B826F
:10481000DF91CF9108953F924F925F926F927F9276
:104820008F929F92AF92BF92CF92DF92EF92FF92C0
:104830000F931F93CF93DF93CDB7DEB72C970FB6AF
:10484000F894DEBF0FBECDBF5C01DC0159968D90A0
:104850009C90F40181859285A385B4859C01AD016E
:104860002F5F3F4F4F4F5F4F29873A874B875C87BA
:10487000D50114964D905D906D907C9017974114E2
:1048800051046104710409F458C0BFEF4B1A5B0A6C
:104890006B0A7B0A312C730162011D821E821F820A
:1048A0001886F40181859285A385B4852D813E818A
:1048B0004F815885281739074A075B0708F055C00C
:1048C00089859A85AB85BC858C159D05AE05BF0590
:1048D00050F482E0C82ED12CE12CF12C92E0492E2C
:1048E000512C612C712C9E012F5F3F4FB701A60107
:1048F000C40140DC8823C9F189819A81AB81BC81E4
:10490000892B8A2B8B2B01F1260137019FEF491A46
:10491000590A690A790A2D813E814F8158852F5F96
:104920003F4F4F4F5F4F2D833E834F8358873FEF5D
:10493000C31AD30AE30AF30AB4CF408051806280DD
:10494000738033243394A7CFC414D504E604F7044A
:1049500011F70FEF1FEF2FEF3FE0B701A601C401E2
:104960000E9492A2782E81111AC0712C872D2C964C
:104970000FB6F894DEBF0FBECDBFDF91CF911F9170
:104980000F91FF90EF90DF90CF90BF90AF909F90EE
:104990008F907F906F905F904F903F900895F501BA
:1049A0004481558166817781411551056105710505
:1049B00039F097018601C4010E9492A28823A9F2CE
:1049C000D5011496CD92DD92ED92FC92179733208B
:1049D00051F0D701C6010196A11DB11DF4018083DC
:1049E0009183A283B383F50185899689A789B08DC8
:1049F000892B8A2B8B2B09F0B9CFC58AD68AE78AF7
:104A0000F08E818180688183B1CF40E050E0BA01AF
:104A1000E8CCFC0123812111F6CE08952F923F921C
:104A20004F925F926F927F928F929F92AF92BF92BE
:104A3000CF92DF92EF92FF920F931F93CF93DF936A
:104A4000CDB7DEB7C454D1090FB6F894DEBF0FBEA0
:104A5000CDBF7C014B015A01222E19821C821C8E73
:104A60001F8E6115710511F410E0ADC1DC011396C4
:104A70008C918111F9CFFA0180818B018F32C9F4B9
:104A8000DB0113968C9113978250823058F059961F
:104A90006D917C91CE014C962EDE8E01045E1F4FEF
:104AA000882311F3C5015C010196F50120812F32A5
:104AB000D1F39E012F5F3F4F6901290130E2332E70
:104AC0002496CFAE24972596DFAE25973E013CE194
:104AD000630E711C22963FAE229721963FAE21971E
:104AE0003FAE3EAE3DAE3CAE3BAE3AAE39AE38AE7A
:104AF0003FAA950190E047E0D9018D91882361F1AB
:104B00008F3251F18E3239F44A3009F4ADCF98E04A
:104B10004AE09D01F1CFEEECF6E12491222321F051
:104B200031968213FACFA0CF491708F49DCF813276
:104B300008F49ACF8F3709F497CF3FE9380F3A310D
:104B400008F420EEE7E3F0E0EC0FFD1FE90FF11DA4
:104B5000820F80839F5FDDCF8FA9803209F484CFDD
:104B60005901D9018C912F5F3F4F8F32C9F38823B0
:104B7000A1F00815190511F0C80145DE24969FAD76
:104B8000249725968FAD25974C145D0411F4962D2E
:104B9000872D8601C92ED82E9DCFF801818D928D4B
:104BA000D7015A969C938E935997C8012EDFC12C3A
:104BB000F80180859185A285B385418952896389F1
:104BC000748984179507A607B70708F052C025E037
:104BD000B695A795979587952A95D1F7F82FFF70E9
:104BE000DF2ED80113968C91823008F43DCF41E03E
:104BF00050E0BE016E5B7F4FC80186DC019709F073
:104C000033CFF80180859185A285B3854F96A11D8C
:104C1000B11D80879187A287B387F0E2DF9EB00144
:104C200011246956734F6115710509F41DCFDB011D
:104C30008C91882341F0853E09F04BC0CC2029F0AF
:104C4000CC24C394B5CFC1100EC08091970E909123
:104C5000980EA091990EB0919A0EF70184879587CE
:104C6000A687B787D08ADB018C918111E9CFCC244C
:104C7000C394822D8274823409F0F6CECC2009F4DC
:104C8000C3C0F701D08861E0C7015FDB009709F47A
:104C9000EBCE20E2DC011D922A95E9F72BE0FE0124
:104CA000F796DC0101900D922A95E1F721E238E2B6
:104CB000FC01318B208B40E058E057874687338BCF
:104CC000228B318F208F578B468BCAD981110AC016
:104CD000CBCE4BE050E0CE01C7960E942ABB892B79
:104CE00009F066CF2D2D30E0F901B5E0EE0FFF1F82
:104CF000BA95E1F7DF01A956B34F1B968C918171EC
:104D000021F0822D827109F01BC1D70159968D9136
:104D10009C915A974091970E5091980E6091990EE0
:104D200070919A0E1C964D935D936D937C931F9793
:104D30005096DC925097E956F34F84889588B12CB1
:104D4000A12C54019924882455968D929D92AD9260
:104D5000BC925897428D538D70E060E048295929E4
:104D60006A297B2955964D935D936D937C93589753
:104D7000A5E0220F331FAA95E1F7D901A956B34F39
:104D80001B962C91287109F0CEC0848D958DA68D2F
:104D9000B78DF701818B928BA38BB48B81E08383DA
:104DA000822D8F70F70181831482158216821782FB
:104DB000108611861286138611E024FE04C0C701F6
:104DC0000E9424A3182FCE014C9623DECE0101961B
:104DD00020DE812FCC5BDF4F0FB6F894DEBF0FBE15
:104DE000CDBFDF91CF911F910F91FF90EF90DF909A
:104DF000CF90BF90AF909F908F907F906F905F907B
:104E00004F903F902F900895D80113968C9113974F
:104E1000823009F429CE51968D919D910D90BC91CF
:104E2000A02D803E9F4FAF41B10508F01DCEC801B7
:104E3000F2DC882309F418CE13D9882309F414CEA0
:104E4000D8015996ED91FC915A9714968D909D90AA
:104E5000AD90BC901797B2E08B1A9108A108B108E9
:104E6000858504C0880C991CAA1CBB1C8A95D2F7A6
:104E700086859785A089B189880E991EAA1EBB1EBA
:104E800081E080939F0E8092970E9092980EA09250
:104E9000990EB0929A0EE7E9FCE080E092E0DF0123
:104EA0009C011D9221503040E1F7DD24D394D801BC
:104EB0005996ED91FC918481D816C0F48091A00E92
:104EC0009091A10EDC01ED91FC910288F389E02D17
:104ED00027E93CE0B501A4014D0D511D611D711D77
:104EE0001995882309F4C0CDD394E1CF258580E0BE
:104EF00092E0A0E0B0E004C0880F991FAA1FBB1F7A
:104F00002A95D2F7F8014189528963897489840FFF
:104F1000951FA61FB71F818B928BA38BB48B87E93C
:104F20009CE0D12CB6CE203159F497012F5E3F4F33
:104F3000A3D9882329F084E0D70113968C9330CF2E
:104F4000D70113961C9290CD0F930FB70F9300913A
:104F50006E000D7F00936E0078940F930BB70F9344
:104F60000CB70F921F922F933F934F935F936F93C2
:104F70007F938F939F93AF93BF93EF93FF931124EE
:104F80000E941A33FF91EF91BF91AF919F918F9142
:104F90007F916F915F914F913F912F911F900F9053
:104FA0000CBF0F910BBF0F910260F89400936E003D
:104FB0000F910FBF0F911895BC01209150043091B3
:104FC000510440915004509151042417350731F495
:104FD00081E02617370709F080E008959A01F1CFA4
:104FE0000F930FB70F9300916E000F930D7F0093F7
:104FF0006E0000916F000D7F00936F000F930BB751
:105000000F930CB70F921F922F933F934F935F9381
:105010006F937F938F939F93AF93BF93EF93FF9380
:10502000112440D4FF91EF91BF91AF919F918F9147
:105030007F916F915F914F913F912F911F900F90B2
:105040000CBF0F910BBF0F910260F89400936F009B
:105050000F9100936E000F910FBF0F91189500C034
:1050600000C08091720480FF21C080910201809570
:105070008270809300018FEF8093100480917204FE
:1050800081FF1BC080910B01809584708093090182
:105090008FEF809311048091720482FF15C08A986B
:1050A0008FEF8093120400C000C008958091020128
:1050B00082708093000181E0DFCF80910B018470CA
:1050C0008093090181E0E5CF8A9A81E0EACF21E06F
:1050D00030E0082E02C0220F331F0A94E2F7209519
:1050E000309590910F04292320930F04813089F08B
:1050F00020F0823099F081E0089580910B01809535
:10510000827080930901809171048E7F8093710475
:10511000F2CF899A809171048D7FF8CF8091080138
:105120008095817080930601809171048B7FEECF12
:1051300080E0CDDF81E0CBDF82E0C9CF9091470FE7
:105140008091480F981307C0809185099091860936
:10515000892B09F4EDCF0E947C8FF0CF8130A9F02C
:1051600070F08230A1F021E030E001C0220F8A957A
:10517000EAF780910F04822B80930F040895909199
:105180000B01927090930901EECF8998ECCF90912A
:105190000801917090930601E6CF4F925F926F9253
:1051A0007F928F929F92AF92BF92CF92DF92EF92B7
:1051B000FF920F931F93CF93DF9300D01F92CDB731
:1051C000DEB79A838983DC01CD90DD90ED90FC9071
:1051D0002091010430910204409103045091040491
:1051E000C701B6010E9459B84B015C0109EF13E0F9
:1051F000A7019601F80160817181828193810E94EB
:1052000059B82B013C01D80114962D913D914D9137
:105210005C911797E981FA81648175818681978114
:105220000E9459B8A981BA8118962D913D914D914E
:105230005C911B9729833A834B835C839B01AC0170
:105240000E943FB46B017C01A3019201C301B20132
:105250000E943FB4A70196010E945AB80E94C5BAA5
:105260002B013C01A5019401C501B4010E943FB48A
:10527000A70196010E945AB80E94C5BAE9E7F9E071
:1052800060837183828393834482558266827782AE
:1052900029813A814B815C812087318742875387FE
:1052A0000F900F900F900F90DF91CF911F910F9162
:1052B000FF90EF90DF90CF90BF90AF909F908F9036
:1052C0007F906F905F904F9008959091470F8091DD
:1052D000480F981306C08091850990918609892B03
:1052E00019F00E947C8FF1CF08954F925F926F92D8
:1052F0007F928F929F92AF92BF92CF92DF92EF9266
:10530000FF920F931F93CF93DF93CDB7DEB72C9708
:105310000FB6F894DEBF0FBECDBF2B013C0129872D
:105320003A874B875C8747015801F601E080F1809E
:105330000281138120E030E0A901B701C8010E9479
:10534000DAB3882309F483C05E2D4F2D302F212F2F
:10535000852F942FA32FB22F89839A83AB83BC838D
:1053600020E030E0A901B701C8010E94DAB3811141
:1053700004C0E12CF12C00E810E4C701D8018D83B2
:105380009E83AF83B887A50194016091420270911A
:10539000430280914402909145020E94DAB387FF54
:1053A0000CC08092420290924302A0924402B092BA
:1053B0004502CE0105960E94F41D40923A02509299
:1053C0003B0260923C0270923D0289859A85AB85D2
:1053D000BC8580933E0290933F02A0934002B0931D
:1053E0004102CE0101960E94F41DA5019401609135
:1053F00042027091430280914402909145020E94C2
:1054000080BA181664F48092420290924302A092ED
:105410004402B0924502CE0105960E94F41D55DF6C
:105420002C960FB6F894DEBF0FBECDBFDF91CF91A3
:105430001F910F91FF90EF90DF90CF90BF90AF90B2
:105440009F908F907F906F905F904F90089550E065
:1054500040E035E023E47CCF4F925F926F927F92E1
:105460008F929F92AF92BF92CF92DF92EF92FF9274
:105470000F931F93CF93DF93CDB7DEB72E970FB661
:10548000F894DEBF0FBECDBF9E878D875B018A017A
:10549000DC01D2966D917D918D919C91D5970E9462
:1054A000DEB36B017C01F5012081318142815381A2
:1054B0000E943FB40E9420B94B015C01D8012D919C
:1054C0003D914D915C91C701B6010E943FB40E948D
:1054D00020B92B013C01C501B4010E94A3B96D8321
:1054E0007E838F839887683771058105910540F425
:1054F00008E710E020E030E00D831E832F8338871B
:10550000C301B2010E94A3B969837A838B839C8310
:10551000683771058105910540F428E730E040E0E7
:1055200050E029833A834B835C83AD85BE85919699
:105530008D909D90AD90BC909497FD01FE966081FA
:10554000718182819381611571058105910509F44D
:10555000D6C00E94E0B39B01AC0160E070E080E83F
:105560009FE30E9436B920E030E040E05FE30E9414
:105570003FB42B013C01A7019601C701B6010E946F
:105580003FB46B017C0169817A818B819C810E948F
:10559000DEB39B01AC010E943FB49B01AC01C7018B
:1055A000B6010E9459B8A30192010E943FB46987D5
:1055B0007A878B879C876D817E818F8198850E94F9
:1055C000DEB39B01AC010E943FB49B01AC01C7015B
:1055D000B6010E9459B8A30192010E943FB42B0169
:1055E0003C010E9420B90E94A3B96B017C0169852E
:1055F0007A858B859C850E94CFB90E94A3B9DC0176
:10560000CB01B701A601480F591F6A1F7B1F9501E7
:105610008401041B150B260B370BB901A80177FF7A
:1056200035C0C501B4010E94DEB3A30192010E94FE
:105630005AB829853A854B855C850E9459B820E087
:1056400030E040E05FE30E943FB40E9420B96B016C
:105650007C0120E030E0A9010E9480BA18161CF0FD
:10566000C12CD12C7601C701B6010E94A3B96B01F0
:105670007C018C149D04AE04BF0410F47501640118
:10568000D501C4018C199D09AE09BF09ED85FE85C0
:10569000C5A2D6A2E7A2F0A695018401081B190BAA
:1056A0002A0B3B0BD901C80181A792A7A3A7B4A7D6
:1056B0000D811E812F81388506AB17AB20AF31AF2E
:1056C00009811A812B813C8102AF13AF24AF35AF22
:1056D0002E960FB6F894DEBF0FBECDBFDF91CF91EF
:1056E0001F910F91FF90EF90DF90CF90BF90AF9000
:1056F0009F908F907F906F905F904F90089580E083
:1057000090E0DC01C12CD12C7601C0CF90916F00CC
:1057100081E091FD02C080E0089590916F009D7F2F
:1057200090936F000895EFE6F0E0808182608083BF
:105730000895CF93C82FEADF94E0C99F9001112408
:10574000F901EA58FB4F2D5A3B4FD9014D915D911C
:105750006D917C91408351836283738391E0909338
:105760005204882311F0CF91DECFCF910895CF93CB
:105770008091F30330992FC081608093F30380916F
:10578000F30331992AC082608093F303C0914304EC
:10579000C0FF0FC08091720480FD0BC08091F303A5
:1057A00080FF07C08091820481608093820480E042
:1057B000C0DFC1FF14C08091720481FD10C08091D0
:1057C000F30381FF0CC08091820482608093820485
:1057D00081E0CF91AECF8E7FD0CF8D7FD5CFCF91CF
:1057E000089594DF1092E7041092E8041092E904FF
:1057F0001092EA04811197CF08950F931F9380911F
:10580000470F9091480F891B8F7009F449C0909100
:10581000440F992361F0833040F48FEF890F29F012
:105820008093440F90E080E038C01092440F809144
:10583000480F28E4829FC001112487509B4FFC0130
:10584000208120FDEFCF4091E7045091E804609162
:10585000E9047091EA04EC5BFF4F00811181228121
:105860003381401B510B620B730B4093E704509341
:10587000E8046093E9047093EA042091480F2F5FD5
:105880002F702093450F3091480F2091460F32130F
:1058900004C02091450F2093460F1F910F9108954A
:1058A000A0DFC0CF3F924F925F926F927F928F9214
:1058B0009F92AF92BF92CF92DF92EF92FF920F939F
:1058C0001F93CF93DF938FEF9FEF90938900809387
:1058D0008800BAE03B2E10E000E0789480914C0400
:1058E00090914D04A0914E04B0914F04892B8A2BC6
:1058F0008B2B09F07DC1809152048823D1F08091D7
:1059000050049091510410925204892B91F01092FE
:10591000510410925004109243049091470F8091CB
:10592000480F981731F08091480F8F5F8F708093E8
:10593000480F8091500490915104892B09F458C16B
:10594000409148045091490460914A0470914B047D
:105950008091440490914504A0914604B09147047D
:10596000481759076A077B0708F042C1C0908304B3
:10597000D12CF12CE12C841B950BA60BB70BC81670
:10598000D906EA06FB0610F4D701C601282F840FBA
:10599000951FA61FB71F8093480490934904A093B6
:1059A0004A04B0934B0431E0C0901704D09018041F
:1059B000E0901904F0901A0480912304909124043B
:1059C000A0912504B0912604C80ED91EEA1EFB1E24
:1059D000C0922304D0922404E0922504F09226047D
:1059E000F7FC18C08091130490911404A091150441
:1059F000B091160426013701481A590A6A0A7B0A2F
:105A0000D301C2018093230490932404A09325041E
:105A1000B093260440911B0450911C0460911D0416
:105A200070911E048091270490912804A09129046C
:105A3000B0912A04480F591F6A1F7B1F4093270407
:105A4000509328046093290470932A0477FD18C0AA
:105A50008091130490911404A0911504B091160440
:105A60003A014B01681A790A8A0A9B0AD401C301D8
:105A70008093270490932804A0932904B0932A04C8
:105A800080901F0490902004A0902104B0902204E4
:105A900080912B0490912C04A0912D04B0912E04A0
:105AA000880D991DAA1DBB1D80932B0490932C0477
:105AB000A0932D04B0932E04B7FD18C0809013045A
:105AC00090901404A0901504B09016042C013D0190
:105AD000481859086A087B085301420180922B0438
