:100000000C945D160C949D160C949D160C949D16E4
:100010000C949D160C949D160C949D160C949D1694
:100020000C949D160C949D160C949D160C949D1684
:100030000C949D160C949D160C949D160C949D1674
:100040000C949D160C94FD730C949D160C949D16A7
:100050000C949D160C9457720C949D160C943CB005
:100060000C949D160C9469420C945F420C949D165E
:100070000C949D160C949D160C949D160C949D1634
:100080000C941B3F0C949D160C949D160C949D167D
:100090000C949D160C949D160C949D160C949D1614
:1000A0000C949D160C949D160C94ED3E0C949D168C
:1000B0000C949D160C949D160C949D160C949D16F4
:1000C0000C949D160C949D160C949D160C949D16E4
:1000D0000C949D160C949D160C949D160C949D16D4
:1000E0000C949D16084AD73B3BCE016E84BCBFFDE5
:1000F000C12F3D6C74319ABD56833DDA3D00C77FF8
:1001000011BED9E4BB4C3E916BAAAABE0000008090
:100110003F05A84CCDB2D44EB93836A9020C50B91F
:10012000918688083CA6AAAA2ABE000000803F004B
:100130004E414E494E495459494E46CDCCCC3D0ACC
:10014000D7233C17B7D13877CC2B329595E6241FAF
:10015000B14F0A000020410000C84200401C462068
:10016000BCBE4CCA1B0E5AAEC59D74434F4D4D5577
:100170004E49434154494F4E0044525952554E0046
:100180004552524F525300494E464F004543484F47
:1001900000506C6561736520526573657400505240
:1001A000494E5445522048414C5445440025533A49
:1001B00020255300706F7765726F6666004B494C5F
:1001C0004C45442E20005072696E7465722068613F
:1001D0006C7465642E206B696C6C28292063616CDB
:1001E0006C6564210A006563686F3A004572726F3E
:1001F000723A002F2F616374696F6E3A006E6F74EC
:10020000696669636174696F6E200070726F6D70EA
:10021000745F00627574746F6E00204800204200A5
:10022000205200204C0020204D36363520530050FF
:100230006F6C617267726170680020440020204D0D
:10024000323030205300202844697361626C656449
:10025000293A0046696C616D656E7420736574742B
:10026000696E67730020204D3230312058004D6197
:100270007820416363656C65726174696F6E2028D4
:10028000756E6974732F7332290020204D3230331C
:100290002058004D617820666565647261746573ED
:1002A0002028756E6974732F732900205200202056
:1002B0004D323034205000416363656C6572617467
:1002C000696F6E2028756E6974732F733229202828
:1002D000503C7072696E742D616363656C3E205290
:1002E0003C726574726163742D616363656C3E205A
:1002F000543C74726176656C2D616363656C3E2954
:100300000020540020530020204D32303520420080
:10031000416476616E6365642028423C6D696E5F5E
:100320007365676D656E745F74696D655F75733E47
:1003300020533C6D696E5F66656564726174653EED
:1003400020543C6D696E5F74726176656C5F6665A2
:100350006564726174653E20583C6D61785F6A65C2
:10036000726B3E20593C6D61785F6A65726B3E200E
:100370005A3C6D61785F6A65726B3E20453C6D61E9
:10038000785F6A65726B3E29002044002049002096
:10039000204D333031205000486F74656E6420501A
:1003A00049440020496E76616C69642065787472F6
:1003B00075646572200047322F47332062616420E4
:1003C000706172616D65746572730A00536C656566
:1003D000702E2E2E00626567696E004D30205374BA
:1003E0006F70004D312053746F7000436F6E7469ED
:1003F0006E756500436C69636B20746F2052657382
:10040000756D652E2E2E004E6F204D6F76652E0079
:10041000456E642066696C65206C6973740A0042DD
:100420006567696E2066696C65206C6973740A0083
:100430004E6F206D656469610A00526573756D6960
:100440006E6720534400526573756D650050617589
:10045000736520534400286E6F2066696C6529001F
:1004600043757272656E742066696C653A20004E41
:100470006F74205344207072696E74696E670A004D
:100480005344207072696E74696E67206279746576
:1004900020002E0A0044656C6574696F6E206661E9
:1004A000696C65642C2046696C653A200046696C6D
:1004B000652064656C657465643A00256973002580
:1004C000696D20256973002569682025696D2025DF
:1004D000697300256964202569682025696D2025D8
:1004E00069730025697920256964202569682025BC
:1004F000696D20256973005072696E742074696D8E
:10050000653A20007061757365006F6B006F6666F9
:10051000008C018701800179016B014445425547F8
:100520003A004D313133205300506F6C6172677265
:10053000617068204F46462E00434F4E4649475F44
:100540004558504F5254004D4541545041434B0083
:10055000434F4F4C45525F54454D504552415455C1
:100560005245004348414D4245525F54454D504528
:1005700052415455524500424142595354455050FE
:10058000494E470041524353004D4F54494F4E5F2F
:100590004D4F44455300544845524D414C5F5052D5
:1005A0004F54454354494F4E00455854454E4445D9
:1005B000445F4D323000435553544F4D5F464952CE
:1005C0004D574152455F55504C4F4144004C464EAB
:1005D0005F5752495445004C4F4E475F46494C4582
:1005E0004E414D45004155544F5245504F52545F76
:1005F00053445F5354415455530053445F57524939
:10060000544500524550454154004D554C54495FA6
:10061000564F4C554D4500534443415244005052AF
:100620004F4D50545F535550504F525400484F5304
:10063000545F414354494F4E5F434F4D4D414E44EB
:100640005300454D455247454E43595F5041525323
:10065000455200434153455F4C494748545F42521D
:10066000494748544E45535300544F47474C455F04
:100670004C494748545300534F4654574152455FE5
:10068000504F574552004255494C445F50455243E4
:10069000454E54004C4556454C494E475F444154E5
:1006A00041005A5F50524F42450052554E4F5554EB
:1006B000004155544F4C4556454C005052494E54FC
:1006C0005F4A4F420050524F4752455353004155E5
:1006D000544F5245504F52545F54454D5000415570
:1006E000544F5245504F52545F504F5300564F4C49
:1006F000554D455452494300454550524F4D0042D7
:10070000494E4152595F46494C455F5452414E5300
:100710004645520053455249414C5F584F4E5F5831
:100720004F4646004649524D574152455F4E414D56
:10073000453A4D61726C696E206275676669782D05
:10074000322E312E7820284F6374203139203230F8
:1007500032322031313A31373A30332920534F5534
:100760005243455F434F44455F55524C3A67697465
:100770006875622E636F6D2F4D61726C696E46698C
:10078000726D776172652F4D61726C696E20505287
:100790004F544F434F4C5F56455253494F4E3A3199
:1007A0002E30204D414348494E455F545950453AFB
:1007B000506F6C6172677261706820455854525571
:1007C0004445525F434F554E543A312055554944A4
:1007D0003A63656465326132662D343161322D349D
:1007E0003734382D396231322D6335356336326610
:1007F0003336376666002F2F004D31343520533C99
:10080000696E6465783E206F7574206F6620726132
:100810006E67652028302D31290A002058004F4688
:1008200046004F4E003B200020204D61783A2000CA
:10083000200020204D696E3A2000203B200020201F
:100840004D32313120530046523A0020466C6F77CA
:100850003A2000206F7574206F662072616E6765A4
:100860000A00536572766F20003A200020536572AB
:10087000766F200064697300656E0043290A006189
:10088000626C656420286D696E2074656D7020004F
:10089000436F6C642065787472756465732061724F
:1008A000652000454550524F4D204F4B0A004D38B2
:1008B0003400446F6E65207072696E74696E6720D3
:1008C00066696C650A004D3737004D333100496E5B
:1008D00076616C69642065787472756465720A006B
:1008E0004361703A0020573A00436F6F6C696E673E
:1008F0002E2E2E00453120255300206661696C653F
:1009000064212042616420686561746572206964B5
:100910000A00504944204175746F74756E65002358
:10092000646566696E652044454641554C545F00D8
:100930004B6420004B6920004B702000504944203C
:1009400074756E696E6720646F6E65002066696EEF
:100950006973686564212050757420746865206C23
:10096000617374204B702C204B6920616E64204BA6
:100970006420636F6E7374616E74732066726F6D42
:100980002062656C6F7720696E746F20436F6E66AE
:10099000696775726174696F6E2E680A0050494408
:1009A000204175746F74756E6500206661696C65B1
:1009B00064212074696D656F75740A005049442084
:1009C0004175746F74756E65004175746F74756EE2
:1009D00065206661696C6564212054696D656F7579
:1009E000742E00206661696C6564212054656D7009
:1009F0006572617475726520746F6F2068696768CD
:100A00000A00504944204175746F74756E6500503A
:100A10004944204379636C65730025532025692F71
:100A2000256900204B643A2000204B693A200020C1
:100A30004B703A200020436C617373696320504906
:100A400044200A002054753A2000204B753A2000BB
:100A5000206D61783A2000206D696E3A2000206494
:100A60003A200020626961733A2000486561746928
:100A70006E672E2E2E002073746172740A00504926
:100A800044204175746F74756E65004175746F74A0
:100A9000756E65206661696C6564212054656D70B2
:100AA0006572617475726520746F6F20686967681C
:100AB0002E00206661696C6564212054656D706547
:100AC00072617475726520746F6F20686967680A57
:100AD00000504944204175746F74756E650050492B
:100AE00044204175746F74756E6500A10000006943
:100AF00000A20000006300B00000000900C1000077
:100B0000004100C20000004100C30000004100C4D9
:100B10000000004100C50000004100C60000004187
:100B200045C70000004300C80000004500C90000A0
:100B3000004500CD0000004900D10000004E00D566
:100B40000000004F00D60000004F00D700000078E2
:100B500000DC0000005500DD0000005900E000004E
:100B6000006100E10000006100E20000006100E3BC
:100B70000000006100E40000006100E50000006189
:100B800000E60000006165E70000006300E8000087
:100B9000006500E90000006500EA0000006500EB68
:100BA0000000006500EC0000006900ED0000006935
:100BB00000EE0000006900EF0000006900F1000095
:100BC000006E00F20000006F00F30000006F00F400
:100BD0000000006F00F50000006F00F60000006FDD
:100BE00000F80000006F00F90000007500FA000036
:100BF000007500FB0000007500FC0000007500FDA2
:100C00000000007900FF00000079000401000041AD
:100C1000000501000061000601000043000701001B
:100C20000063000C01000043000D01000063000E92
:100C300001000044000F0100006400110100006485
:100C4000001901000065001A01000045001B0100A9
:100C50000065001F010000670030010000490031FD
:100C60000100006900410100004C00420100006CDD
:100C700000430100004E00440100006E00480100E6
:100C8000006E005801000052005901000072005A25
:100C900001000053005B01000073005F010000735E
:100CA0000060010000530061010000730065010055
:100CB0000074006F01000075007C0100007A007D67
:100CC0000100005A007E0100007A009201000066D7
:100CD00000E30200007800222000002E001E210008
:100CE00000507822210000544D902100003C2D92AC
:100CF0002100002D3EB02100000300BB21000004B4
:100D0000003C2200007E00482200007E3D60220060
:100D100000213D612200003D00642200003C3D6551
:100D20002200003E3DF12300000700A03000003DFE
:100D30000021F301000200C2F401000500A200003E
:100D400000EC00B0000000DF00E4000000E100F66D
:100D5000000000EF00F7000000FD00FC000000F5BF
:100D600000E3020000EB0087030000A5008F0300F2
:100D700000F40098030000F2009E030000E300A3CB
:100D8000030000F600A9030000F400AC030000E03B
:100D900000AD030000E300B1030000E000B2030077
:100DA00000E200B5030000E300B8030000F200BC5D
:100DB000030000E400BE030000E300C0030000F7EE
:100DC00000C1030000E600C3030000E5009021001D
:100DD000007F00922100007E001A220000E8001E21
:100DE000220000F30088250000FF0002300000A16F
:100DF000000C300000A2000D300000A3009B30006A
:100E000000DE009C300000DF00A03000003D00A1AB
:100E1000300000A700A2300000B100A3300000A8FD
:100E200000A4300000B200A5300000A900A63000E8
:100E300000B300A7300000AA00A8300000B400A949
:100E4000300000AB00AA300000B500AB300000B6A7
:100E500000AC300000B6DEAD300000B700AE3000B0
:100E600000B7DEAF300000B800B0300000B8DEB12F
:100E7000300000B900B2300000B9DEB3300000BA73
:100E800000B4300000BADEB5300000BB00B6300060
:100E900000BBDEB7300000BC00B8300000BCDEB9DB
:100EA000300000BD00BA300000BDDEBB300000BE27
:100EB00000BC300000BEDEBD300000BF00BE300010
:100EC00000BFDEBF300000C000C0300000C0DEC187
:100ED000300000C100C2300000C1DEC3300000AFEE
:100EE00000C4300000C200C5300000C2DEC63000C1
:100EF00000C300C7300000C3DEC8300000C400C912
:100F0000300000C4DECA300000C500CB300000C68F
:100F100000CC300000C700CD300000C800CE30004B
:100F200000C900CF300000CA00D0300000CADED1B6
:100F3000300000CADFD2300000CB00D3300000CB3D
:100F4000DED4300000CBDFD5300000CC00D630003E
:100F500000CCDED7300000CCDFD8300000CD00D987
:100F6000300000CDDEDA300000CDDFDB300000CE17
:100F700000DC300000CEDEDD300000CEDFDE3000F1
:100F800000CF00DF300000D000E0300000D100E1F1
:100F9000300000D200E2300000D300E3300000ACAB
:100FA00000E4300000D400E5300000AD00E6300081
:100FB00000D500E7300000AE00E8300000D600E9C0
:100FC000300000D700EA300000D800EB300000D934
:100FD00000EC300000DA00ED300000DB00EF300004
:100FE00000DC00F2300000A600F3300000DD00F469
:100FF000300000B3DEF7300000DCDEFA300000A67F
:10100000DEFB300000A500FC300000B000FD300029
:1010100000A400074E0000FB0086510000FC0043C6
:10102000530000FA0064FF0000A40065FF0000A563
:101030000066FF0000A60067FF0000A70068FF0031
:1010400000A80069FF0000A9006AFF0000AA006B69
:10105000FF0000AB006CFF0000AC006DFF0000ADB6
:10106000006EFF0000AE006FFF0000AF0070FF00D9
:1010700000B00071FF0000B10072FF0000B2007309
:10108000FF0000B30074FF0000B40075FF0000B55E
:101090000076FF0000B60077FF0000B70078FF0081
:1010A00000B80079FF0000B9007AFF0000BA007BA9
:1010B000FF0000BB007CFF0000BC007DFF0000BD06
:1010C000007EFF0000BE007FFF0000BF0080FF0029
:1010D00000C00081FF0000C10082FF0000C2008349
:1010E000FF0000C30084FF0000C40085FF0000C5AE
:1010F0000086FF0000C60087FF0000C70088FF00D1
:1011000000C80089FF0000C9008AFF0000CA008BE8
:10111000FF0000CB008CFF0000CC008DFF0000CD55
:10112000008EFF0000CE008FFF0000CF0090FF0078
:1011300000D00091FF0000D10092FF0000D2009388
:10114000FF0000D30094FF0000D40095FF0000D5FD
:101150000096FF0000D60097FF0000D70098FF0020
:1011600000D80099FF0000D9009AFF0000DA009B28
:10117000FF0000DB009CFF0000DC009DFF0000DDA5
:10118000009EFF0000DE009FFF0000DF00E5FF0083
:10119000005C0000000000010204040000001C1CB0
:1011A0000C04040402010000000000040810000008
:1011B0000000002D2D2D2D2D2D007C4D61726C69B0
:1011C0006E7C002D2D2D2D2D2D00503A002568759B
:1011D0003A25303268750025303268753A2530324C
:1011E0006875002530326875272530326875000033
:1011F0001C1F11111F00000006191803130C000416
:101200000E1F041C000000000E1315110E00001C20
:1012100010181705060500040A0A0A0A11110E0C17
:1012200012120C00000000001F1511151F000042D3
:10123000656400456E636C6F7375726500202020D5
:101240002020202000202020200063616E63656C38
:10125000005072696E742041626F7274656400445C
:1012600069736D6973730055492041626F727465CB
:1012700064004D323500526573756D650055492027
:1012800050617573650050617573696E672E2E2EFF
:1012900000726573756D65004D32340045455052DE
:1012A0004F4D2056657273696F6E204572726F7272
:1012B00000454550524F4D20496E64657820457277
:1012C000726F7200454550524F4D204352432045A6
:1012D00072726F72003F0049676E6F7265005265EF
:1012E00073657400496E697469616C697A6520453B
:1012F0004550524F4D0046696C2E204469612E00C6
:101300004520696E206D6D5E3300200220466163CA
:1013100074002002204D6178002002204D696E008B
:101320004F6666004F6E004175746F74656D700096
:101330004D696E2054726176656C205370656564EA
:10134000004D696E2056656C6F63697479004D615C
:10135000782040205370656564004D6178204520F9
:10136000416363656C004D61782040204163636593
:101370006C0054726176656C20416363656C005249
:1013800065747261637420416363656C00416363DB
:10139000656C004D61782040204A65726B004020EA
:1013A00073746570732F6D6D00416476616E636553
:1013B000642053657474696E6773003F0043616E07
:1013C00063656C00496E697400496E697469616C8B
:1013D000697A6520454550524F4D0046696C616DF4
:1013E000656E740054656D70657261747572650028
:1013F00053746570732F6D6D004A65726B004163A5
:1014000063656C65726174696F6E004D617820531D
:101410007065656420286D6D2F7329004D617820FB
:1014200042656C74204C656E0044726177204D619A
:101430007820590044726177204D696E205900442C
:10144000726177204D617820580044726177204D99
:10145000696E2058005365676D656E74732F536510
:101460006300436F6E66696775726174696F6E00C1
:1014700041425300504C410010001900F03F190048
:101480004E6F7A7A6C650046616E205370656564B4
:1014900000436F6E66696775726174696F6E0052A2
:1014A0006573746F72652044656661756C74730052
:1014B0004C6F61642053657474696E677300537474
:1014C0006F72652053657474696E6773005072653E
:1014D00068656174202420436F6E66004164766104
:1014E0006E6365642053657474696E6773004D6143
:1014F000696E003F004261636B0053746F70004E71
:101500006F204D65646961005072696E7420667267
:101510006F6D204D65646961004368616E67652089
:101520004D65646961004D323100436F6E666967D5
:1015300075726174696F6E0054656D706572617467
:10154000757265004D6F74696F6E00526573756DCD
:1015500065205072696E740054756E650053746F27
:1015600070205072696E74005061757365205072FE
:10157000696E7400496E666F2053637265656E0014
:101580003F005374617274205072696E740043613D
:101590006E63656C005072696E740043616E6E6FAD
:1015A0007420656E746572207375626469723A2086
:1015B0000005202E2E004D61696E002100486F74D9
:1015C000656E6420746F6F20636F6C6400426163AA
:1015D0006B0050726F63656564004D6F76652045E2
:1015E00078747275646572004D6F74696F6E004433
:1015F000697361626C652053746570706572730005
:101600004D3834004175746F20486F6D6500473266
:1016100038004D61696E0074147014436F6F6C6410
:101620006F776E00507265686561742024004661B2
:101630006E205370656564207E004E6F7A7A6C650B
:10164000004D61696E00466C6F770046616E2053F5
:1016500070656564207E004E6F7A7A6C6500537009
:10166000656564004D61696E00486F6D696E672045
:101670004661696C6564006F70656E00545249473D
:101680004745524544003A20007A5F6D696E007903
:101690005F6D617800785F6D6178005265706F7280
:1016A00074696E6720656E6473746F702073746103
:1016B0007475730A0020746F6F206C6F6E672065FD
:1016C0007874727573696F6E2070726576656E746A
:1016D00065640A0020636F6C6420657874727573AA
:1016E000696F6E2070726576656E7465640A0000BD
:1016F0000000003353F1C3000000005761726E69AF
:101700006E673A20486F6D696E672042756D702074
:1017100044697669736F72203C20310A000202042A
:101720000080224400007A44000000000000A04035
:101730000000A040000000400080A2430000FA43E7
:10174000000000000080A2C30000FAC300000000F7
:1017500053657474696E67732053746F72656400A7
:10176000290A002062797465733B2063726320004C
:1017700053657474696E67732053746F7265642067
:10178000280048617264636F646564204465666123
:10179000756C742053657474696E6773204C6F6147
:1017A0006465640020286D6D2900204600204800F3
:1017B00020204D3134352053004D617465726961CC
:1017C0006C2068656174757020706172616D6574FC
:1017D0006572730020204D3134392043203B205561
:1017E0006E69747320696E2043656C736975730A42
:1017F0000054656D706572617475726520556E690F
:101800007473002020473231203B004C696E6561C3
:101810007220556E69747300454550524F4D2064D7
:1018200061746173697A65206572726F722E0A0045
:1018300053746F7265642073657474696E67732086
:1018400072657472696576656400290A00206279A0
:101850007465733B2063726320002073746F72653C
:10186000642073657474696E67732072657472693D
:1018700065766564202800454550524F4D204352FF
:1018800043204572726F7200202863616C63756C2F
:101890006174656429210A0020213D2000454550DE
:1018A000524F4D20435243206D69736D61746368DC
:1018B000202D202873746F726564292000205369DD
:1018C0007A653A2000496E6465783A2000000096F7
:1018D000430000964300009643000096430000A09A
:1018E000420000A0420000A0420000A042B80B004D
:1018F00000B80B0000B80B0000B80B0000454550C5
:10190000524F4D2056657273696F6E204572726F2B
:101910007200204D61726C696E3D563837290A009D
:10192000454550524F4D2076657273696F6E206D3C
:1019300069736D617463682028454550524F4D3D71
:101940000020436F756E7420583A00453100450001
:101950002C2073797374656D2073746F7070656477
:1019600021204865617465725F49443A20005448FB
:1019700045524D414C2052554E41574159005468F3
:1019800065726D616C2052756E6177617900486592
:101990006174696E67204661696C656400486561C1
:1019A00074696E67206661696C6564004D35323418
:1019B000004D3131322053687574646F776E004585
:1019C00072723A204D415854454D50004D41585483
:1019D000454D502074726967676572656400457291
:1019E000723A204D494E54454D50004D494E544594
:1019F0004D502074726967676572656400202F001E
:101A000020403A000009121B242D363F48415A530A
:101A10006C657E7719100B023D342F265158434ACE
:101A2000757C676E323B2029161F040D7A7368613E
:101A30005E574C452B2239300F061D14636A7178AE
:101A4000474E555C646D767F4049525B2C253E378E
:101A500008011A137D746F6659504B42353C272E8E
:101A60001118030A565F444D727B60691E170C05FE
:101A70003A3328214F465D546B627970070E151C6E
:101A8000232A31384148535A656C777E09001B126E
:101A90002D243F3658514A437C756E671019020B4E
:101AA000343D262F737A6168575E454C3B322920BE
:101AB0001F160D046A6378714E475C55222B30392E
:101AC000060F141D252C373E0108131A6D647F760E
:101AD00049405B523C352E2718110A03747D666F0E
:101AE0005059424B171E050C333A21285F564D447E
:101AF0007B7269600E071C152A233831464F545DEE
:101B0000626B707900002110422063308440A55040
:101B1000C660E770088129914AA16BB18CC1ADD133
:101B2000CEE1EFF13112100273325222B5529442DB
:101B3000F772D662399318837BB35AA3BDD39CC383
:101B4000FFF3DEE36224433420040114E664C77427
:101B5000A44485546AA54BB528850995EEE5CFF5D3
:101B6000ACC58DD55336722611163006D776F6667B
:101B70009556B4465BB77AA719973887DFF7FEE723
:101B80009DD7BCC7C448E5588668A7784008611847
:101B900002282338CCC9EDD98EE9AFF94889699973
:101BA0000AA92BB9F55AD44AB77A966A711A500A1B
:101BB000333A122AFDDBDCCBBFFB9EEB799B588BC3
:101BC0003BBB1AABA66C877CE44CC55C222C033C67
:101BD000600C411CAEED8FFDECCDCDDD2AAD0BBD13
:101BE000688D499D977EB66ED55EF44E133E322EBB
:101BF000511E700E9FFFBEEFDDDFFCCF1BBF3AAF63
:101C0000599F788F8891A981CAB1EBA10CD12DC1C0
:101C10004EF16FE18010A100C230E3200450254056
:101C200046706760B9839893FBA3DAB33DC31CD3B6
:101C30007FE35EF3B1029012F322D23235421452A6
:101C400077625672EAB5CBA5A89589856EF54FE502
:101C50002CD50DC5E234C324A014810466744764F6
:101C600024540544DBA7FAB79987B8975FE77EF756
:101C70001DC73CD7D326F2369106B0165766767646
:101C8000154634564CD96DC90EF92FE9C899E98922
:101C90008AB9ABA94458654806782768C018E10896
:101CA0008238A3287DCB5CDB3FEB1EFBF98BD89BF6
:101CB000BBAB9ABB754A545A376A167AF10AD01AE6
:101CC000B32A923A2EFD0FED6CDD4DCDAABD8BAD42
:101CD000E89DC98D267C076C645C454CA23C832C36
:101CE000E01CC10C1FEF3EFF5DCF7CDF9BAFBABF96
:101CF000D98FF89F176E367E554E745E932EB23E86
:101D0000D10EF01E7C3C3E5E2B3D3F2F5B5D3B2C9D
:101D10002A225C004D6564696120496E6974204621
:101D200061696C0053442063617264206F6B0A0028
:101D30006F70656E526F6F74206661696C65640ABE
:101D400000766F6C756D652E696E697420666169C9
:101D50006C65640A004E6F20534420636172640A0C
:101D600000534420636172642072656C6561736521
:101D7000640A000A4D3234004D3233202573002EA0
:101D80000A006F70656E206661696C65642C204680
:101D9000696C653A200046696C652073656C656303
:101DA0007465640A002053697A653A200046696CBC
:101DB00065206F70656E65643A2000454E4420537F
:101DC0005542524F5554494E450A002220706F73B8
:101DD000002220706172656E743A2200535542529F
:101DE0004F5554494E452043414C4C207461726715
:101DF00065743A220053756263616C6C204F76659E
:101E000072666C6F77004578636565646564206D04
:101E1000617820535542524F5554494E45206465D0
:101E20007074683A0057726974696E6720746F2025
:101E300066696C653A2000667265736800646F6954
:101E40006E67002066696C653A20004E6F7720004F
:101E50002F6175746F25632E67006D61726C696EFA
:101E600066772E6F7267006D61726C696E66772E91
:101E70006F7267006275676669782D322E312E7831
:101E8000006275676669782D322E312E7800006DFC
:101E900061726C696E66772E6F7267006D61726C2D
:101EA000696E66772E6F7267002062756766697863
:101EB0002D322E312E78002020506C616E6E6572AE
:101EC00042756666657242797465733A20002046F1
:101ED000726565204D656D6F72793A200020436F01
:101EE0006D70696C65643A204F637420313920321B
:101EF0003032320A00204C61737420557064617472
:101F000065643A20323032322D31302D3139207C27
:101F100020417574686F723A20284D617267696E4E
:101F2000616C6C7920436C657665722C204D616B19
:101F3000656C616E67656C6F2035290A004D6172B2
:101F40006C696E206275676669782D322E312E7845
:101F50000A0020536F66747761726520526573655D
:101F6000740A00205761746368646F672052657358
:101F700065740A002042726F776E206F757420526C
:101F8000657365740A002045787465726E616C2013
:101F900052657365740A00506F77657255700A0058
:101FA00073746172740A004732385859004D3130E9
:101FB0003031006F6B006572726F722077726974D6
:101FC000696E6720746F2066696C650A00446F6EE5
:101FD0006520736176696E672066696C652E0A00FC
:101FE000456E6473746F707300255320256320253C
:101FF0006320256320256300205A3A0020593A00C7
:1020000020583A00656E6473746F70732068697449
:102010003A200000000A0B02090C0D0E0807030409
:1020200001000000000000000000000000000000AF
:10203000000000000000000000000000000000128E
:10204000111000000000000000000000000000006F
:1020500000000000000000000024F404D9201BC48C
:102060000C5C0E9804C4095F0265077101F405F960
:1020700000FB04B30048048700C1036900580355FE
:102080000003034500BE023A008402310053022AD5
:10209000002902250004022000E4011C00C80119E7
:1020A00000AF0117009801140084011300710110A2
:1020B000006101100051010E0043010D0036010BBB
:1020C000002B010B0020010B00150109000C010978
:1020D0000003010800FB000800F3000800EB000704
:1020E00000E4000600DE000600D8000600D200066C
:1020F00000CC000500C7000500C2000500BD0004BB
:1021000000B9000400B5000400B1000400AD0004F3
:1021100000A9000400A5000300A20003009F000422
:10212000009B000300980003009500020093000349
:1021300000900003008D0002008B00030088000265
:10214000008600020084000300810002007F00027C
:10215000007D0002007B0002007900020077000190
:10216000007600020074000200720001007100029B
:10217000006F0002006D0001006C0002006A0001A7
:1021800000690002006700010066000100650001AF
:1021900000640002006200010061000100600001B3
:1021A000005F0002005D0001005C0001005B0001B7
:1021B000005A0001005900010058000100570001B9
:1021C00000560001005500010054000100530000BA
:1021D00000530001005200010051000100500001B5
:1021E000004F0001004E0000004E0001004D0001B4
:1021F000004C0001004B0000004B0001004A0001B0
:1022000000490001004800000048000100470001AB
:1022100000460000004600010045000000450001A6
:1022200000440001004300000043000100420000A0
:102230000042000100410000004100010040000197
:10224000003F0000003F0001003E0000003E000192
:10225000003D0000003D0001003C0000003C00008B
:10226000003C0001003B0000003B0001003A000080
:10227000003A000100390000003900010038000078
:10228000003800000038000100370000003700016E
:102290000036000000360000003600010035000066
:1022A000003500000035000100340000003400005B
:1022B000003400010033000000330000003300014F
:1022C0000032000000320000003200010031000046
:1022D000003100000031000100300000003000003B
:1022E00000300001002F0000002F0000002F000030
:1022F000002F0001002E0000002E0000002E000123
:10230000002D0000002D0000002D0000002D000118
:10231000002C0000002C0000002C0000002C00010C
:10232000002B0000002B0000002B0000002B000100
:10233000002A0000002A0000002A0000002A0001F4
:1023400000290000002900000029000000290000E9
:1023500000290001002800000028000000280000DB
:1023600000280000002800010027000000270000CE
:1023700000270000002700000027000100260000C1
:1023800000260000002600000026000000260001B4
:1023900000250000002500000025000000250000A9
:1023A000002500000025000100240000002400009A
:1023B000002400000024000000240001002300008D
:1023C0000023000000230000002300000023000081
:1023D0000023000000230001002200000022000072
:1023E0000022000000220000002200000022000164
:1023F0000021000000210000002100000021000059
:102400000021000000210000002100010020000048
:10241000002000000020000000200000002000003C
:10242000002000000020000000200001001F00002C
:10243000001F0000001F0000001F0000001F000020
:10244000001F0000001F0001001E0000001E000011
:10245000001E0000001E00000024F4D43050C38E83
:1024600020C2A24017828B7011127A910D816CD913
:102470000AA861E108C7586607615143061E4B5D13
:1024800005C145A7041A411104093D98037139316A
:10249000034036DB0265339102D4305402802E1D96
:1024A00002632CEE01752AC501B028A00110278116
:1024B000018F2564012B244B01E0223401AC211F44
:1024C000018D200D01801FFC00841EED00971DDF93
:1024D00000B81CD200E61BC600201BBC00641AB268
:1024E00000B219A8000A19A0006A189900D1179122
:1024F0000040178B00B516840031167E00B31579A5
:10250000003A157300C7146F0058146A00EE136682
:10251000008813630025135E00C7125B006C12571E
:102520000015125400C111510070114F0021114BC0
:1025300000D61049008D104700461044000210429A
:1025400000C00F4000800F3E00420F3C00060F3BD2
:1025500000CB0E3800930E37005C0E3500270E348A
:1025600000F30D3200C10D3100900D3000600D2ED2
:1025700000320D2D00050D2C00D90C2B00AE0C29BE
:1025800000850C29005C0C2700350C27000E0C265A
:1025900000E80B2400C40B2400A00B23007D0B23B8
:1025A000005A0B2100390B2100180B2000F80A1FDC
:1025B00000D90A1E00BB0A1E009D0A1D00800A1DCC
:1025C00000630A1C00470A1B002C0A1B00110A1A90
:1025D00000F7091A00DD091900C4091900AB09192F
:1025E00000920917007B091800630917004C0916AF
:1025F0000036091600200916000A091500F508150D
:1026000000E0081400CC081400B8081400A4081452
:1026100000900813007D0812006B08130058081280
:102620000046081200340811002308110012081196
:102630000001081100F0071000E0071000D007109B
:1026400000C0071000B0070F00A107100091070E8F
:102650000083070F0074070F0065070E0057070E71
:102660000049070E003B070D002E070E0020070D46
:102670000013070D0006070D00F9060C00ED060D0E
:1026800000E0060C00D4060C00C8060C00BC060CCA
:1026900000B0060C00A4060B0099060C008D060B7A
:1026A0000082060B0077060B006C060B0061060A21
:1026B0000057060B004C060A0042060A0038060ABC
:1026C000002E060A0024060A001A060A001006094F
:1026D0000007060A00FD050900F4050900EB0509DD
:1026E00000E2050900D9050900D0050900C7050960
:1026F00000BE050900B5050800AD050800A50509DF
:10270000009C050800940508008C05080084050855
:10271000007C050800740508006C050700650508C5
:10272000005D050700560508004E05070047050730
:10273000004005080038050700310507002A050795
:1027400000230507001C050600160507000F0507F6
:10275000000805060002050700FB040600F5040753
:1027600000EE040600E8040600E2040700DB0406AD
:1027700000D5040600CF040600C9040600C3040601
:1027800000BD040600B7040600B1040500AC040651
:1027900000A6040600A00405009B0406009504059D
:1027A00000900406008A04050085040500800406E4
:1027B000007A04050075040500700405006B04052B
:1027C0000066040500610405005C0405005704056B
:1027D00000520405004D04050048040500430405AB
:1027E000003E0404003A04050035040500300404EA
:1027F000002C04050027040400230405001E040423
:10280000001A04040016040500110404000D040459
:1028100000090405000404040000040400FC03048F
:1028200000F8030400F4030400F0030400EC0304C4
:1028300000E8030400E4030400E0030400DC0304F4
:1028400000D8030400D4030400D0030400CC030424
:1028500000C8030300C5030300043700001E29005D
:1028600000511B00005810000010090000CC0400AB
:102870000078020000410100004D6F766520246D54
:102880006D00302E303235004D6F766520302E31A0
:102890006D6D004D6F766520316D6D004D6F766505
:1028A0002031306D6D004D6F7665203130306D6DAB
:1028B000004D6F76652041786973004D6F76652015
:1028C0002A004D6F76652040005072696E74206654
:1028D000726F6D204D65646961004572726F722080
:1028E00077726974696E6720746F20454550524F46
:1028F0004D210A00627573793A20706175736564C1
:1029000020666F7220696E7075740A006275737943
:102910003A2070617573656420666F722075736507
:10292000720A00627573793A2070726F636573730F
:10293000696E670A004D656469612052656D6F7646
:102940006564004D6564696120496E7365727465E4
:10295000640053544F505045442E20005072696E0D
:102960007465722073746F7070656420647565207F
:10297000746F206572726F72732E204669782074AE
:102980006865206572726F7220616E642075736570
:10299000204D39393920746F2072657374617274F7
:1029A0002E202854656D706572617475726520699A
:1029B000732072657365742E2053657420697420CA
:1029C00061667465722072657374617274696E6792
:1029D000290A004E6F20436865636B73756D20771D
:1029E000697468206C696E65206E756D6265722C05
:1029F000204C617374204C696E653A20004D323969
:102A0000004E6F20436865636B73756D2077697442
:102A100068206C696E65206E756D6265722C204C45
:102A2000617374204C696E653A2000636865636B5E
:102A300073756D206D69736D617463682C204C61D2
:102A40007374204C696E653A20004C696E65204EA7
:102A5000756D626572206973206E6F74204C6173AE
:102A600074204C696E65204E756D6265722B312C39
:102A7000204C617374204C696E653A20004D3131F1
:102A8000300053657269616C2073746174757320D2
:102A90006D69736D617463680A00534420726561E7
:102AA00064206572726F720A004B494C4C2062754B
:102AB00074746F6E2F70696E0A002121204B494C8F
:102AC0004C206361757365642062792000746F6FB8
:102AD000206D75636820696E616374697665207422
:102AE000696D65202D2063757272656E7420636F49
:102AF0006D6D616E643A20002121204B494C4C20C1
:102B0000636175736564206279200020746F6F20A3
:102B10006C6F6E6720657874727573696F6E207064
:102B2000726576656E7465640A0020636F6C64205C
:102B3000657874727573696F6E2070726576656EF4
:102B40007465640A000101FF43616E6E6F74206F4B
:102B500070656E20737562646972200073686F77A8
:102B600000656E6400626567696E000000220025E2
:102B70000028002B002E0031003400020100000567
:102B80000108010B0100002100240027002A002D6C
:102B9000003000330001010000040107010A0105B3
:102BA000050505070508080808020202020A0A08C6
:102BB00008040404040101010101010101030303EC
:102BC0000303030303040707070C0C0C0C0C0C0C89
:102BD0000C0202020206060606060606060B0B0B90
:102BE0000B0B0B0B0B0102102020080810204010CB
:102BF00020408002010201080402010102040810C1
:102C000020408080402010080402018004020180DE
:102C10004020100804020108040201010204081007
:102C20002040800102040810204080204500205AE6
:102C30000020590020204D3932205800537465700F
:102C4000732070657220756E69740020453A00200B
:102C50005A3A0020593A00583A006F6B0A00526500
:102C600073656E643A2000220A00556E6B6E6F77B2
:102C70006E20636F6D6D616E643A202200506F6C40
:102C8000617267726170682052656164792E0050CC
:102C900072696E74696E672E2E2E005072696E74A2
:102CA00020506175736564006E6F74696669636155
:102CB00074696F6E200091D04EDB11241FBECFEFE0
:102CC000D1E2DEBFCDBF00E00CBF84B780933C13E0
:102CD00014BE0FB6F894A895809160008861809327
:102CE0006000109260000FBE13E0A0E0B2E0EEE1E1
:102CF000FFEC01E00BBF02C007900D92A838B107AE
:102D0000D9F723E1A8E8B3E001C01D92AC33B207C4
:102D1000E1F716E1CCE5D6E100E006C02197010914
:102D2000802FFE010E943EE4CB35D10780E00807EA
:102D3000A9F70E94F7D10C947EE70C940000E09173
:102D40005B0584E0E802F0011124E45BFB4F809115
:102D5000330590E09383828308958F929F92AF9280
:102D6000BF92CF92DF92EF92FF92CF936B017C01E3
:102D700020E030E0A9010E94C7DF87FDC3C06DEBF2
:102D800077E386E095E3A70196010E9447E46B0193
:102D90007C0120E030E0A9010E94C7DF87FFB7C0B7
:102DA000C701B601905820E030E040E251E40E94B3
:102DB0002CE020E030E040E251E40E942CE020E0F2
:102DC00030E040EA50E40E9447E420E030E040E296
:102DD00051E40E9423E50E948BE56B017C0160E2D7
:102DE00080EAC81686E8D80681E0E806F1048CF08F
:102DF000C701B60120EA36E841E050E00E94C3E393
:102E0000CA01B9012AE030E040E050E00E94C3E38B
:102E1000605D6093370560E280E1C81687E2D806FE
:102E2000E104F1048CF0C701B60120E137E240E093
:102E300050E00E94C3E3CA01B9012AE030E040E05B
:102E400050E00E94C3E3605D6093380560E288EE65
:102E5000C81683E0D806E104F1048CF0C701B6017E
:102E600028EE33E040E050E00E94C3E3CA01B9011C
:102E70002AE030E040E050E00E94C3E3605D6093F0
:102E8000390560E284E6C816D104E104F1048CF04F
:102E9000C701B60124E630E040E050E00E94C3E301
:102EA000CA01B9012AE030E040E050E00E94C3E3EB
:102EB000605D60933A058AE0882E912CA12CB12C9C
:102EC000C701B601A50194010E94C3E3C62FCA0140
:102ED000B901A50194010E94C3E3605D60933B05C5
:102EE0008EE280933C05C05DC0933D0587E395E08D
:102EF000CF91FF90EF90DF90CF90BF90AF909F90D9
:102F00008F9008956DEB77E386E095EB3CCF20E062
:102F100030E040E251E4C701B60149CFCF93DF93DF
:102F2000EC01CB01BA010E94CDDF20E030E040E2AD
:102F300051E40E9423E5688379838A839B83DF9130
:102F4000CF910895CF93DF93EC01CB01BA010E949A
:102F5000CDDF20E030E040E251E40E9423E56883C9
:102F600079838A839B83DF91CF910895CF93DF93F9
:102F7000EC01CB01BA010E94CDDF688379838A839B
:102F80009B83DF91CF910895CF93DF93EC01CB0129
:102F9000BA010E94CDDF688379838A839B83DF91A6
:102FA000CF9108950E94CDDF20E030E040E251E46F
:102FB0000E9423E5D2CECF93DF93EC01CB01BA017F
:102FC0000E94CDDF688379838A839B83DF91CF91D1
:102FD0000895CF93DF93EC01CB01BA010E94CDDFBE
:102FE00020E030E048EC52E40E9423E568837983D6
:102FF0008A839B83DF91CF910895CF93DF93EC0178
:10300000CB01BA010E94CDDF20E030E048EC52E471
:103010000E9423E5688379838A839B83DF91CF9124
:103020000895CF93DF93EC01CB01BA010E94CDDF6D
:103030002AE037ED43E25DE30E9423E50E9490E53C
:10304000688379838A839B83DF91CF910895CF939F
:10305000DF93EC01CB01BA010E94CDDF2AE037ED0E
:1030600043E25DE30E9423E5688379838A839B833F
:10307000DF91CF910895CF93DF93EC01CB01BA019B
:103080000E94CDDF0E948BE579836883DF91CF9129
:103090000895CF93DF93EC01CB01BA010E94CDDFFD
:1030A00020E030E04AE754E40E9423E56883798316
:1030B0008A839B83DF91CF910895FC0184910895C9
:1030C000FC0180810895AF92BF92CF92DF92EF9280
:1030D000FF920F931F93CF93DF93EC015B018A0163
:1030E000FB01199587FD16C0C82ED12CF12CE12CBF
:1030F0002196F801C082D182E282F382CE01DF9173
:10310000CF911F910F91FF90EF90DF90CF90BF90E4
:10311000AF900895982F907E903CA9F48F7190E025
:10312000B0E0A0E06C017D0156E0CC0CDD1CEE1C93
:10313000FF1C5A95D1F7CE010196F50119958F73B1
:10314000C82A2296D6CF982F907F903E11F58F7087
:1031500090E0B0E0A0E06C017D0136E0CC0CDD1C1D
:10316000EE1CFF1C3A95D1F7CE010196F501199599
:103170008F73C82A46E0CC0CDD1CEE1CFF1C4A9560
:10318000D1F7CE010296F50119958F73C82A2396BF
:10319000B0CF982F987F903F79F5877090E0B0E09E
:1031A000A0E06C017D0186E0CC0CDD1CEE1CFF1C58
:1031B0008A95D1F7CE010196F50119958F73C82A2A
:1031C00096E0CC0CDD1CEE1CFF1C9A95D1F7CE01CD
:1031D0000296F50119958F73C82A26E0CC0CDD1CE8
:1031E000EE1CFF1C2A95D1F7CE010396F501199527
:1031F0008F73C82A24967DCF982F907C903841F405
:10320000807C803869F42196CE01F5011995F8CFBC
:103210008E7F8D3F28F02196CE01F5011995F8CFCC
:10322000C12CD12C760165CF90E080E008952091EB
:103230009703833021F425FD0CC024FD0CC030E041
:10324000A90102C0559547958A95E2F7CA01817098
:10325000089581E0089580E008958091B20384FD8F
:103260000BC08091B40387FD07C09091B5039370A4
:1032700081E019F480E0089581E008952FEB280F94
:103280002A3108F047C0E22FF0E08091B20390911C
:10329000B303A091B403B091B50304C0B695A7954C
:1032A000979587952A95D2F780FD02C08170089581
:1032B000E856FC4FE081EE2341F180916C0F909134
:1032C0006D0FE80FF92FF11D808190ED980F9A3066
:1032D00030F08E3251F4818180538A3098F4F0932B
:1032E0009603E093950381E008958D3211F08B32BF
:1032F00049F4818190ED980F9A3088F38E3211F461
:103300008281EACFF0E0E0E0EACF109296031092DB
:103310009503E9CF80E00895B1DF882341F081E093
:103320002091950330919603232B09F480E00895B2
:10333000CF93DF9300D01F92CDB7DEB70E9490E508
:103340000E94CBDF69837A838B839C83CE010196B5
:103350000E940B940F900F900F900F90DF91CF91E0
:1033600008950E94CDDF2AE037ED43E25DE30E943D
:1033700023E5DECFCF92DF92EF92FF92CF93DF93E0
:1033800000D01F92CDB7DEB76B017C0120E030E0AA
:10339000A9010E94C7DF87FD1BC06DEB77E386E0C4
:1033A00095E3A70196010E9447E469837A838B83A2
:1033B0009C83CE0101960E940B940F900F900F906A
:1033C0000F90DF91CF91FF90EF90DF90CF90089515
:1033D0006DEB77E386E095EBE4CF0E94CDDF2AE04A
:1033E00037ED43E25DE30E9423E5C4CF0E94CDDFC9
:1033F000C1CFCF92DF92EF92FF92CF93DF9300D0B5
:103400001F92CDB7DEB76B017C0120E030E0A9014F
:103410000E94C7DF87FD1BC06DEB77E386E095E375
:10342000A70196010E9447E469837A838B839C837A
:10343000CE0101960E94C1910F900F900F900F90B6
:10344000DF91CF91FF90EF90DF90CF9008956DEBDB
:1034500077E386E095EBE4CF0E94CDDF20E030E01B
:1034600040E251E40E9423E5C4CFCF92DF92EF9275
:10347000FF920E94CDDF6B017C0120E030E0A901CA
:103480000E94C7DF2DEB37E346E055E387FF04C01A
:103490002DEB37E346E055EBC701B6010E9447E448
:1034A0006B017C0120E030E0A9010E94C7DF20E031
:1034B00030E040E05FE387FF04C020E030E040E020
:1034C0005FEBC701B6010E9447E40E948BE5CB0188
:1034D000FF90EF90DF90CF900C94C895CF92DF9241
:1034E000EF92FF920E94CDDF6B017C0120E030E083
:1034F000A9010E94C7DF2DEB37E346E055E387FFC4
:1035000004C02DEB37E346E055EBC701B6010E943E
:1035100047E46B017C0120E030E0A9010E94C7DF95
:1035200020E030E040E05FE387FF04C020E030E0CF
:1035300040E05FEBC701B6010E9447E40E948BE5C3
:10354000CB01FF90EF90DF90CF900C9447960E94B4
:10355000CDDF0E948BE5CB010C944796CF92DF9292
:10356000EF92FF92CF93DF9300D01F92CDB7DEB7DB
:103570000E94CDDF20E030E048EC52E40E9423E5D9
:103580006B017C0120E030E0A9010E94C7DF2DEB38
:1035900037E346E055E387FF04C02DEB37E346E011
:1035A00055EBC701B6010E9447E469837A838B8398
:1035B0009C83CE0101960E941C910F900F900F905A
:1035C0000F90DF91CF91FF90EF90DF90CF90089513
:1035D000CF92DF92EF92FF92CF93DF9300D01F92B2
:1035E000CDB7DEB70E94CDDF20E030E048EC52E4FA
:1035F0000E9423E56B017C0120E030E0A9010E94DC
:10360000C7DF2DEB37E346E055E387FF04C02DEB22
:1036100037E346E055EBC701B6010E9447E46983F2
:103620007A838B839C83CE0101960E948E940F90A7
:103630000F900F900F90DF91CF91FF90EF90DF9060
:10364000CF900895CF92DF92EF92FF92CF93DF93C6
:1036500000D01F92CDB7DEB70E94CDDF20E030E072
:103660004AE754E40E9423E56B017C0120E030E04E
:10367000A9010E94C7DF2DEB37E346E055E387FF42
:1036800004C02DEB37E346E055EBC701B6010E94BD
:1036900047E469837A838B839C83CE0101960E94E1
:1036A00047AA0F900F900F900F90DF91CF91FF904E
:1036B000EF90DF90CF9008950C948D790C948D79D4
:1036C0000C943F790C943F790C943F790C943F799A
:1036D00063E972E084E690E00E94469B70E060E05F
:1036E0008AE090E00E94469B6AEB72E084E690E0FC
:1036F0000C94469B8111ECCF68E270E080E991E088
:103700000C94469B0E946575F5CF80913702882303
:1037100041F0609125047091260441E081E00C9411
:10372000A1A808950E947D90E5CF0E94518FD0CF2F
:10373000CF92DF92EF92FF920F931F930E9410B0EF
:103740000091CA031091CB032091CC033091CD039B
:103750006B017C01C01AD10AE20AF30A97018601C3
:1037600037FD11C02091C90320952093C9036A54E5
:103770007C4F8F4F9F4F6093CA037093CB0380930E
:10378000CC039093CD0381E09091C903911101C0C6
:1037900080E01F910F91FF90EF90DF90CF90089500
:1037A000CF92DF92EF92FF920F931F93CF93DF930D
:1037B00000D000D01F921F92CDB7DEB78E010F5FF1
:1037C0001F4FD80130E020E0FB01E20FF31FE4912E
:1037D000ED932F5F3F4F28303105B1F7877098E0A8
:1037E000899FB0011124606486EA90E10E9486B04E
:1037F00083E790E00197F1F77801E8E0EE0EF11C25
:103800008BE9C82ED12CF80161918F0186EA90E1F5
:103810000E944CA3C6010197F1F7E016F10699F753
:1038200028960FB6F894DEBF0FBECDBFDF91CF91C3
:103830001F910F91FF90EF90DF90CF900895CF925E
:10384000DF92EF92FF920F931F93CF93DF9300D0FD
:1038500000D0CDB7DEB78A0146E0469F9001479F72
:10386000300D1124BC01620F731F46E050E0CE0101
:1038700001960E94F0DEC980DA80EB80FC80F801BE
:1038800040815181628173818FEF9FEFC416D5060D
:10389000E606F70640F081E090E04C155D056E0508
:1038A0007F0508F080E026960FB6F894DEBF0FBEC5
:1038B000CDBFDF91CF911F910F91FF90EF90DF90DF
:1038C000CF9008950F931F93CF93DF93CDB7DEB7BB
:1038D0002E970FB6F894DEBF0FBECDBF8B011E86AC
:1038E0001D86FC0160817181828193816F8378875D
:1038F00089879A872FEF2B8760387105810591059D
:1039000038F486EA90E10E944CA381E090E02FC059
:103910009E01235F3F4FAE01495F5F4F69EB70E04F
:103920008DE39DE00E9466A497FD2CC08D859E8549
:1039300026E0289FB001299F700D1124635C724F0F
:1039400046E050E0CE0101960E94F0DE6D8186EAED
:1039500090E10E944CA301301105B9F26E816623FB
:10396000A1F286EA90E10E944CA382E090E02E96BC
:103970000FB6F894DEBF0FBECDBFDF91CF911F9180
:103980000F9108959E01235F3F4FAE01495F5F4F46
:1039900063E670E08BEE9AE00E9466A497FD0BC090
:1039A0008D859E8526E0289FB001299F700D1124EA
:1039B0006551754FC5CF6FE3A4CF8091950390916A
:1039C0009603009731F04AE050E070E060E00C941C
:1039D000E8DD60E070E0CB0108958091950390915F
:1039E0009603009731F04AE050E070E060E00C94FC
:1039F000BDDC60E070E0CB010895EFDFCB010895FE
:103A0000ECDF97FD0AC0E9DF6F3F71058105910585
:103A100009F02CF4E2DF862F089580E008958FEFFF
:103A200008958091950390919603892B39F0E8DFF2
:103A300091E0811101C090E0892F089591E0FCCFC1
:103A4000CF93DF93C82FD62F67DC882319F0DF913F
:103A5000CF91E7CF8C2F12DC811101C08D2FDF9128
:103A6000CF9108950F931F93CF93809195039091D9
:103A70009603009709F1FC018F01C1912C2F2F7D36
:103A8000A1F0C53431F0C53621F0C83511F0C83782
:103A900099F7F801108270E060E00E9468DBF8019D
:103AA000C083CF911F910F91089570E060E0CF9196
:103AB0001F910F910C9468DB60E070E0CB01F1CFB7
:103AC0004F925F926F927F92AF92BF92CF92DF92AE
:103AD000EF92FF920F931F93CF9389E9A82E82E074
:103AE000B82E91E3E92E94E0F92E0BE412E022EED9
:103AF000C22E2AE0D22EC0E0F50181915F010CDCDC
:103B0000882309F476C0AEDF2B013C018C2F8FDBBC
:103B1000882309F464C0F8012081318142815381F6
:103B2000C301B2010E9447E4F7016083718382837D
:103B30009383CF5FF4E0EF0EF11C0C5F1F4F84E026
:103B4000C80ED11CC330C1F685E4E6DB882309F436
:103B50005BC088DF6B017C0183E069DB882371F047
:103B600020915702309158024091590250915A02C7
:103B7000C701B6010E9447E46B017C01C0923D047D
:103B8000D0923E04E0923F04F092400486E4C4DB0D
:103B90008823B9F067DF20E030E0A9010E946DE6DC
:103BA00018167CF45FDF20E030E040E752E40E942A
:103BB00023E560930B0270930C0280930D029093A7
:103BC0000E02CF911F910F91FF90EF90DF90CF9059
:103BD000BF90AF907F906F905F904F900895F601E7
:103BE0002081318142815381C301B2010E9446E4A8
:103BF0009BCFF80180819181A281B381F7018083FD
:103C00009183A283B38395CF8091570290915802FC
:103C1000A0915902B0915A0280933D0490933E04C2
:103C2000A0933F04B0934004B1CFAF92BF92CF9224
:103C3000DF92EF92FF920F931F93CF935C016B0182
:103C40008A0183579C4F7C01DC01CC91C7FF3DC0AA
:103C5000FB0111821082CF5FD701CC93CC300CF0E6
:103C600053C08CE08A9DF0018B9DF00D1124CF0193
:103C70008C0F911DC7FD9A95209167102817190682
:103C800009F00CF441C0F60120813181FC01EE0FF6
:103C9000FF1FE80FF91FE15EFF4E81819281820FC5
:103CA000931FD80111969C938E93808187FF3DC00E
:103CB00061E08F77CF911F910F91FF90EF90DF9090
:103CC000CF90BF90AF900C94CEAD8CE08A9DF00168
:103CD0008B9DF00D1124CF018C0F911DC7FD9A957E
:103CE000209167102817190609F00CF4B4CFFC01D5
:103CF000EE0FFF1FE80FF91FE15EFF4E808160E0CD
:103D00008F770E94CEADA7CFF60180819181049676
:103D10008034FCE99F0710F480E49CE9D8011196F7
:103D20009C938E938FEFF7018083CF911F910F911A
:103D3000FF90EF90DF90CF90BF90AF900895E0910B
:103D40002404E63028F581E08E0F8093240440910E
:103D500045055091460560914705709148052091B1
:103D60003F05909140058091650539E0E39FF001A2
:103D70001124E251FC4FA091A410B091A510B18381
:103D8000A0834283538364837583268397838087CC
:103D900008950F931F930E9410B00091E1031091BA
:103DA000E2032091E3033091E403601B710B820B6B
:103DB000930B97FD0EC083B185FB882780F991E0B6
:103DC00089271E9B82609091090196FF84608093F1
:103DD000E0038091E00381709091E00391FD8260A7
:103DE0009091DF03981749F0813009F148F0823053
:103DF00079F0833091F08093DF031F910F91089544
:103E0000913079F09230B9F79091DE0391500CC067
:103E1000992339F09330C1F3EECF9130A9F392306A
:103E200051F79091DE039F5F9093DE03E4CF9923D7
:103E300059F3933001F7F5CFCF92DF92EF92FF92D3
:103E4000CF93C82F0E9410B06B017C0124EA30E7A9
:103E50004DE75FE3609105027091060280910702D1
:103E6000909108020E94C7DF87FD18C08AEF90E09A
:103E7000A0E0B0E08C0D9D1DAE1DBF1D8093D20350
:103E80009093D303A093D403B093D503C0930302BC
:103E9000CF91FF90EF90DF90CF90089580E090E079
:103EA000DC01E8CFFC0180E0309749F09491992340
:103EB00031F0907C903809F08F5F3196F7CF0895FC
:103EC000009751F0FC0180E09191992331F0907CB2
:103ED0009038D1F38F5FF8CF80E0089567E272E108
:103EE00080E05EDC6FE172E181E05ADC67E172E163
:103EF00082E056DC6FE072E186E052DC67E072E15E
:103F000087E04EDC6FEF71E183E04ADC67EF71E13F
:103F100084E046DC6FEE71E185E042CCCF938230E5
:103F200061F4C4E0C15058F088E0C89FB00111248A
:103F30006D567E4E8C2F34DCF5CFCF91CFCFCF9105
:103F400008950F931F93522F2091A4103091A51024
:103F50002817390791F1109245049093A51080938A
:103F6000A4108B0130E020E0009345051093460536
:103F7000209347053093480540933F0550934005F3
:103F80008050974221F4109265051092240486EA2D
:103F900090E10E948EB081E02091A4103091A51094
:103FA0002050374209F080E0B9DF82E08093370289
:103FB00081E080935505109227041F910F91089579
:103FC00020E040E070E060E080E097E2BACFCF937D
:103FD0000E94518F0E946575C82F882319F080E0D8
:103FE0000E94E6748C2F86DBCF91EACFCF93DF93CC
:103FF000C0912404CC23B1F0C150C093240489E0C3
:10400000C89FE0011124C251DC4F6A817B812F815E
:104010004E818881998195DF888580936505DF9140
:10402000CF910895DF91CF91CBCF4F925F926F9256
:104030007F928F929F92AF92BF92CF92DF92EF9238
:10404000FF92CF93DF930E9410B06B017C018091AF
:104050002C048111BDC0809103028F3F09F4B8C0C8
:104060000E9410B08090D2039090D303A090D4030C
:10407000B090D503681979098A099B0997FDA8C0F2
:1040800080916E1090916F108F5F8F70891709F477
:104090009FC0C091030240900B0250900C026090B0
:1040A0000D0270900E02C43060F524E0C29FF00152
:1040B0001124E355FD4F80809180A280B38080E180
:1040C000EBE4F2E0A1E3B4E001900D928A95E1F710
:1040D00034E0C39FE0011124CF5CDB4F2091280422
:1040E0003091290440912A0450912B0468817981F0
:1040F0008A819B810E9447E4688379838A839B83BA
:1041000012C0CE3F09F057C280E1EDE9F2E0A1E331
:10411000B4E001900D928A95E1F7812C912C65E035
:10412000A62E63E4B62E1092280410922904109251
:104130002A0410922B048FEF8093030281E0809376
:104140002C0420E030E0A901C501B4010E94C7DFC2
:10415000882341F080920B0290920C02A0920D02F3
:10416000B0920E02C0910902D0910A0284E690E05A
:1041700090930A028093090280904702909048022F
:10418000A0904902B0904A0280E090E0A0E8BFE32E
:104190008093470290934802A0934902B0934A0249
:1041A0000E945F8B40920B0250920C0260920D02B3
:1041B00070920E02D0930A02C093090280924702C5
:1041C00090924802A0924902B0924A0210922C04A6
:1041D000E0DD8091E00382FF33C08091DD03811137
:1041E00031C091E09093DD038091E50389278093AE
:1041F0002C051092E50383E0809337021092E003D0
:104200000E9410B06C507E4F8F4F9F4F6093E10320
:104210007093E2038093E3039093E40368E873E10F
:1042200082E090E00E94469BC6E0C15059F00E9497
:10423000E09A62E070E080E090E00E9476AFF5CF17
:104240001092DD038091610590916205A091630554
:10425000B0916405A7019601281B390B4A0B5B0B33
:10426000DA01C901B7FD98C1D701C6018C599F4F2A
:10427000AF4FBF4F8093610590936205A093630594
:10428000B09364056091DE03062E000C770B77FF78
:1042900003C07195619571099091DE038091DC03F3
:1042A000981398C0633008F095C01092DE03809197
:1042B000DE038093DC03643008F09CC080912C0501
:1042C00081111AC18091A4109091A510805097423D
:1042D00041F480910402882309F420C18150809325
:1042E00004020E942C7B8090B0059090B105A090B4
:1042F000B205B090B30581110E94397B209137023D
:10430000222309F44BC0D501C4014AE0B695A79514
:10431000979587954A95D1F7009741E0A407B10595
:1043200020F08FEF9FEFA0E0B0E096958795009783
:1043300039F04091D6035091D7034817590770F5CB
:10434000223038F0243008F4FBC0243011F41092ED
:104350003702E091A410F091A510199510922C0548
:104360008091A4109091A51080509742F9F40E947A
:1043700010B0DC01CB018C199D09AE09BF098090FA
:10438000D6039090D703B12CA12C88169906AA06C3
:10439000BB0620F49093D7038093D6038091A4109A
:1043A0009091A5108050974209F4CEC08091650588
:1043B0008111CAC08091D8039091D903A091DA03EA
:1043C000B091DB03C81AD90AEA0AFB0AF7FCCAC093
:1043D000F7DDC8C0633009F06ACF8091DE0387FF44
:1043E00007C08FEF880F880F8093DE0364E05FCFF4
:1043F00081E0F8CF80915A0521E030E040E050E0C4
:10440000882309F456C08090560590905705A090D7
:104410005805B090590581149104A104B104E9F143
:1044200070E090E080E00E94CBDF20E030E040E8E8
:104430005EE30E942CE02B013C01C701B601681924
:1044400079098A099B090E94CBDF9B01AC01C3015A
:10445000B2010E9423E520E030E04AE754E40E94E4
:104460002CE04B015C0120E030E040EA52E40E9485
:104470006DE624E630E040E050E087FF12C020E027
:1044800030E040EF51E4C501B4010E946DE62AE03E
:1044900030E040E050E087FF04C021E030E040E041
:1044A00050E0C0925605D0925705E0925805F09220
:1044B0005905A091DE030A2E000CBB0B0E94E9E314
:1044C00024E030E040E050E00E94C3E380914505E5
:1044D00090914605A0914705B0914805820F931F22
:1044E000A41FB51F8093450590934605A0934705EB
:1044F000B09348051092DE03D701C6018856954C4B
:10450000AF4FBF4F8093D8039093D903A093DA03A2
:10451000B093DB0381E080933702D4CE89E08093AF
:1045200004028091D6039091D703009729F0019758
:104530009093D7038093D60381E080933702D1CE46
:1045400081E08093370205CF38E9C30E3AE3D31EEA
:10455000E11CF11CC092D803D092D903E092DA0397
:10456000F092DB03809137028130A1F08330A1F417
:1045700086EA90E1DF91CF91FF90EF90DF90CF90AE
:10458000BF90AF909F908F907F906F905F904F9073
:104590000C948EB010923702DF91CF91FF90EF9084
:1045A000DF90CF90BF90AF909F908F907F906F9053
:1045B0005F904F900895812C912C55E0A52E53E4E7
:1045C000B52EC43009F47BCD109228041092290432
:1045D00010922A0410922B048FEF8093030281E043
:1045E00080932C04812C912C85E0A82E83E4B82E96
:1045F000B1CD8093330520E040E070E060E08BEACD
:1046000096E29FCC20E044E064E186EA90E10E94DB
:1046100095B081E02091A4103091A5102050374230
:1046200009F080E07BDC86EA90E10C948EB0EADF52
:1046300025982D9A26982E9AEAE0F1E080818F7BCA
:10464000808380910B018095807480930901A1DBA8
:104650001092DE030C945EB16FEF7FEF33C9AF921F
:10466000BF92CF92DF92EF92FF920F931F93CF935F
:10467000DF9300D01F92CDB7DEB76C015B017A01EA
:1046800010E000E00E151F05C8F4AE014F5F5F4F4C
:10469000B501C6010E9463186C0189819A81AB81C2
:1046A000BC81892B8A2B8B2B49F0B701601B710BC6
:1046B000CE01019607D9080F191FE4CFC8010F904A
:1046C0000F900F900F90DF91CF911F910F91FF905E
:1046D000EF90DF90CF90BF90AF9008958F929F9210
:1046E000AF92BF92CF92DF92EF92FF920F931F9300
:1046F000CF93DF9300D000D01F921F92CDB7DEB7CB
:104700007C01162F5A014901862F660F990B9C01D7
:1047100027563D4F690110160CF042C0AE014B5FA9
:104720005F4F6DE578E1C7010E9463187C018D81C0
:104730009E81AF81B8850097A105B10589F18D33C0
:104740009105A105B10509F476C08E379105A10543
:10475000B10509F470C08A329105A105B105A1F532
:1047600017FF0FC083E392E11E3F11F08FE292E149
:10477000402F002E000C550B6DE578E170DF081B13
:1047800092C085E490E0A0E0B0E089839A83AB8397
:10479000BC83CE01019660DF015009F04EC000E0FD
:1047A000802F28960FB6F894DEBF0FBECDBFDF91E5
:1047B000CF911F910F91FF90EF90DF90CF90BF901E
:1047C000AF909F908F90089584329105A105B10517
:1047D000C1F48114910451F0402F002E000C550BB0
:1047E0006DE578E1C4013BDF081B95CFA114B1044E
:1047F000E9F0402F002E000C550B60E678E1C50172
:10480000F2CF80349105A105B10581F40150F60184
:104810008081082E000C990BAA0BBB0B89839A830D
:10482000AB83BC83CE01019617DF75CFCE01059611
:1048300013DF015070CF17FD95CF81E04D815E8170
:104840006F8178854D3351056105710509F480E06C
:10485000810F8A30C4F001506AE00E940AE4192FE7
:10486000082E000C990BC096092E000CAA0BBB0B4E
:1048700089839A83AB83BC83CE010196EDDE00234E
:1048800009F48DCF812F082E000C990BC096092EAC
:10489000000CAA0BBB0B89839A83AB83BC83CE012C
:1048A0000196DADE0150002309F479CF402F002E63
:1048B000000C550B6DE578E1C701D1DE081B70CF08
:1048C0004FEF5FEF60E678E1CACE4FEF5FEF6DE547
:1048D00078E1C5CE0F931F93CF93DF9300D000D024
:1048E0001F921F92CDB7DEB700915B0210915C0260
:1048F00020915D0230915E020D831E832F833887E5
:1049000000915F0210916002209161023091620279
:1049100009831A832B833C839091AD10691710F0A3
:104920006FEF690F262F30E04091AE102C0F3D1F26
:10493000F901403199F4943089F46181680F60681D
:1049400086EA90E128960FB6F894DEBF0FBECDBF81
:10495000DF91CF911F910F910C9486B06581EECFBE
:10496000FC01A081B1811C92A281B3818C918F5FE7
:104970008C930280F381E02D608180E0ABCF4F9279
:104980005F926F927F928F929F92BF92CF92DF92AF
:10499000EF92FF920F931F93CF93DF9300D000D03D
:1049A0001F921F92CDB7DEB77C013B016A0149011E
:1049B000FB016081FC0180818DDFC114D10469F1AC
:1049C000FA82E9827C826B82011120C0AE014B5FCA
:1049D0005F4FB401C6010E9463186C018D819E81F6
:1049E000AF81B885892B8A2B8B2BB9F0CE01059628
:1049F00033DEF70180818F5F8083843138F3CE010D
:104A00000196AEDFE3CFB12C860129C08601B12C1F
:104A100026C0452846284728B1F728960FB6F894AF
:104A2000DEBF0FBECDBFDF91CF911F910F91FF90E1
:104A3000EF90DF90CF90BF909F908F907F906F907E
:104A40005F904F900895B39407C0B1102EC0011528
:104A50001105C9F20F5F1F4F01151105A9F2AE0133
:104A60004B5F5F4FB401C6010E9463186C014D801B
:104A70005E806F8078844114510461047104A9F050
:104A8000F0E24F16510461047104F9F2D301C2013E
:104A90008D97A109B1090297A105B10530F04BE24C
:104AA000441651046104710471F6F7018081482FA6
:104AB0004B0D5527551F453151052CF0853018F009
:104AC000CE0101964DDF81E041145104610471046F
:104AD00009F480E0B80EF70180818B0D8083BB2044
:104AE00009F497CFBA94AE014B5F5F4FB401C80190
:104AF0000E9463188C01CE010596AEDDF0CF2F9297
:104B00003F924F925F926F927F928F929F92AF925D
:104B1000BF92CF92DF92EF92FF920F931F93CF93AA
:104B2000DF9300D000D0CDB7DEB74C013B015A0176
:104B30002E83232E280181E0809365054091450551
:104B40005091460560914705709148054115510502
:104B50006105710571F0141615060CF080E0809364
:104B600027041092450510924605109247051092B1
:104B700048051091270430902C0510922C05311017
:104B800005C080913702882309F4ACC0C2018AD9DC
:104B9000082F80E0C114D10411F0C60183D91D8211
:104BA0001982E114F104B1F4402F50E0282F30E0D5
:104BB000CA01820F931F45976CF484E190E0841B37
:104BC000950B821B930B97FD0196959587958D8389
:104BD00081E0898301E02DE538E1A201BE016F5F2C
:104BE0007F4FCE010596CBDEE114F10489F08D8173
:104BF000882321F01D8289818F5F898300E020E670
:104C000038E1A701BE016F5F7F4FCE010596B7DE89
:104C1000C114D10451F000E02DE538E1A601BE0138
:104C20006F5F7F4FCE010596AADE63E080E052DE23
:104C30008BE590E0A0E0B0E0112321F080E290E06D
:104C4000A0E0B0E089839A83AB83BC83CE01019658
:104C500003DDC3013ADE8DE590E0A0E0B0E0112372
:104C600021F080E290E0A0E0B0E089839A83AB83FA
:104C7000BC83CE010196F0DCC40114D963E092E15B
:104C8000981B892F27DE80E290E0A0E0B0E011239E
:104C900021F08BE590E0A0E0B0E089839A83AB83BC
:104CA000BC83CE010196D8DCC4010FDE80E290E027
:104CB000A0E0B0E0112321F08DE590E0A0E0B0E0AD
:104CC00089839A83AB83BC83CE010196C5DC3320F4
:104CD00049F0111102C0AE80B22CA114B104D9F078
:104CE000F501199526960FB6F894DEBF0FBECDBF1D
:104CF000DF91CF911F910F91FF90EF90DF90CF90B8
:104D0000BF90AF909F908F907F906F905F904F90EB
:104D10003F902F9008956AD9E5CFCF92DF92EF921E
:104D2000FF920F931F938BEBC82E83E1D82EF12CAB
:104D3000E12C09EC13E130E020E047EE5FE16DEBA0
:104D400073E184EC93E1DBDE1F910F91FF90EF9014
:104D5000DF90CF900895AF92BF92CF92DF92EF9203
:104D6000FF920F931F93CF93DF93CDB7DEB7ADB60E
:104D7000BEB684EE92E196D890E001962DB73EB78C
:104D8000281B390B0FB6F8943EBF0FBE2DBF8DB751
:104D90009EB701967C0164EE72E10E940FDF809164
:104DA000330501EB12E1813031F00CE912E1823080
:104DB00011F004EC12E185EDC82E82E1D82E20EE30
:104DC0003FE147EE5FE167ED72E18EED92E197DE44
:104DD0000FB6F894BEBE0FBEADBEDF91CF911F914E
:104DE0000F91FF90EF90DF90CF90BF90AF9008951C
:104DF000CF93DF93EA016EDDCE01DF91CF912CCC12
:104E00008F929F92AF92BF92CF92DF92EF92FF92DA
:104E10000F931F93CF93DF9300D01F92CDB7DEB7D0
:104E200010925A05E091970FF091980F309721F06A
:104E3000199581110E945EB180912C0510922C056C
:104E40008823C9F020E040E070E060E083E59DE960
:104E500078D8D8DB0F900F900F900F90DF91CF9103
:104E60001F910F91FF90EF90DF90CF90BF90AF9088
:104E70009F908F9008952091090230910A024091ED
:104E8000450550914605CA01820F931F243631050E
:104E900009F0EDC04730510544F006978A3091057E
:104EA0000CF0F4C08AE090E0FBC006964A3F5F4FEA
:104EB000ACF30E94981B182F60E080E00BDD20E02F
:104EC00030E040E05FE360916F0570917005809184
:104ED0007105909172050E9447E40E948BE54B0199
:104EE000E0907305F090740582E090E0A0E0B0E0FF
:104EF00089839A83AB83BC83CE010196ADDB86E6C2
:104F000093E097FC03C0C4010E944796D9DC8FE26E
:104F100090E0A0E0B0E089839A83AB83BC83CE01AC
:104F200001969ADB2AE030E0C701B9010E942BE428
:104F3000805D80933D058DE395E0FAE0EF16F10486
:104F4000DCF0CB01B9010E942BE4805D80933C052D
:104F50008CE395E044E6E416F10474F0C70164E6DE
:104F600070E00E942BE4CB01B9010E942BE4805D2C
:104F700080933B058BE395E0A3DC81E090E0A0E02B
:104F8000B0E089839A83AB83BC83CE01019664DB56
:104F900070E2872E912CA12CB12C89829A82AB824F
:104FA000BC82CE01019658DB6AE0E616F1043CF4BF
:104FB00089829A82AB82BC82CE0101964DDB61E090
:104FC00080E088DC2091E20A3091E30A4091E40A13
:104FD0005091E50A60914B0270914C0280914D0214
:104FE00090914E020E9447E46B017C012091E60AF9
:104FF0003091E70A4091E80A5091E90A60914F0226
:105000007091500280915102909152020E9447E4A7
:105010004B015C0120E030E0A901C701B6010E940C
:10502000C7DF20E030E040E05FEB87FD04C020E018
:1050300030E040E05FE3C701B6010E9447E40E9410
:105040008BE5CB010E94C895D82E092F88E590E00A
:10505000A0E0B0E089839A83AB83BC83CE01019644
:10506000FBDA112369F18D2D902F2ADC4BC02436F9
:1050700031054CF48536910504F58A30910534F4F8
:105080008AE090E009C084369105BCF0883EE3E0F8
:105090009E0714F087EE93E02817390709F409CF2B
:1050A00090930A02809309021092450510924605DA
:1050B0001092470510924805FCCE84E690E0F0CFB0
:1050C0000E94FAA780FF17C0ED2CF02EF701819106
:1050D0007F018823B9F08F320CF08FE3082E000C8B
:1050E000990BAA0BBB0B89839A83AB83BC83CE013C
:1050F0000196B2DAEBCF8091260580FDB4CF85E42E
:1051000092E1E3DB80E290E0A0E0B0E089839A8363
:10511000AB83BC83CE0101969FDA20E030E0A90189
:10512000C501B4010E94C7DF20E030E040E05FEB42
:1051300087FD04C020E030E040E05FE3C501B4013A
:105140000E9447E40E948BE5CB010E94C895D82EAF
:10515000092F89E590E0A0E0B0E089839A83AB83D2
:10516000BC83CE01019678DA112321F08D2D902F8A
:10517000A7DB22C00E94FAA781FF17C0ED2CF02EFA
:10518000F70181917F018823B9F08F320CF08FE312
:10519000082E000C990BAA0BBB0B89839A83AB8357
:1051A000BC83CE01019658DAEBCF8091260581FDB4
:1051B000DDCF85E492E189DB61E08CE08BDB20913F
:1051C000EA0A3091EB0A4091EC0A5091ED0A6091A5
:1051D00053027091540280915502909156020E94A0
:1051E00047E46B017C0120E030E040E251E40E94A2
:1051F0002CE020E030E048EC52E40E942CE04B012F
:105200005C0120E030E0A901C701B6010E94C7DFC0
:1052100020E030E040EA50EC87FD04C020E030E0C0
:1052200040EA50E4C501B4010E9447E420E030E0C8
:1052300040E251E40E9423E50E948BE56B017C0172
:1052400080E2F7FE09C0F094E094D094C094C11CB1
:10525000D11CE11CF11C8DE28093370560E2F0E186
:10526000CF16F7E2DF06E104F1048CF0C701B601C6
:1052700020E137E240E050E00E94C3E3CA01B901F7
:105280002AE030E040E050E00E94C3E3605D6093BC
:10529000380560E248EEC41643E0D406E104F104A8
:1052A0008CF0C701B60128EE33E040E050E00E94E8
:1052B000C3E3CA01B9012AE030E040E050E00E94B7
:1052C000C3E3605D60933905C701B60124E630E0B1
:1052D00040E050E00E94C3E36AE0862E912CA12CAE
:1052E000B12CCA01B901A50194010E94C3E3605D1C
:1052F00060933A05C701B601A50194010E94C3E37A
:10530000062FCA01B901A50194010E94C3E300233D
:1053100009F48FC08EE280933B05605D60933C058D
:10532000005D00933D058AE590E0A0E0B0E0898350
:105330009A83AB83BC83CE0101968ED9112309F4E5
:105340008AC087E395E0BCDA86E090E0A0E0B0E0B8
:1053500089839A83AB83BC83AE014F5F5F4F62E06A
:1053600080E046DD8091090290910A020E944796F2
:10537000A7DA85E290E0A0E0B0E089839A83AB836E
:10538000BC83CE01019668D9809102028750809338
:10539000D10382E08093D0038091630290916402F4
:1053A000A0916502B091660289839A83AB83BC8326
:1053B0000E94981B9091CF038917D9F00E94981BE7
:1053C0008093CF038091CE038F5F823008F067C057
:1053D0008093CE03E091CE03F0E0EE0FFF1F81E05B
:1053E00090E08C0F9D1FE80FF91F0190F081E02DD8
:1053F000199563E080E06EDA89E99FE00E94601F02
:10540000182F44E150E060E678E189E99FE027D970
:1054100080E2C82ED12CE12CF12C143108F01ACDE9
:10542000C982DA82EB82FC82CE01019615D91F5F18
:10543000F4CF662351F08EE280933B05605D60936C
:105440003C0580E280933D056ECF80E280933C0571
:1054500080933B05F6CF0E94FAA782FF18C007E3AE
:1054600015E0F80181918F01882309F46DCF8F3207
:105470000CF08FE3082E000C990BAA0BBB0B898351
:105480009A83AB83BC83CE010196E6D8EACF8091A4
:10549000260582FD56CF8DE392E117DA55CF1092A3
:1054A000CE0398CF8F929F92AF92BF92CF92DF920E
:1054B000EF92FF920F931F93CF93DF9300D01F9231
:1054C000CDB7DEB76C017B0180905E0590905F05E3
:1054D000A0905C05B0905D0510915B0561E080E0F7
:1054E000F9D903E19401A501612FC601F7D8182F5E
:1054F000E114F10429F18AE390E0A0E0B0E08983AF
:105500009A83AB83BC83CE010196A6D8C7010E94C3
:10551000601F8F5F115061E0181708F462E000E22D
:1055200010E020E030E009831A832B833C83AE0136
:105530004F5F5F4F94E1981B892F5ADCC701C0D998
:105540000F900F900F900F90DF91CF911F910F91BF
:10555000FF90EF90DF90CF90BF90AF909F908F9093
:1055600008950F931F93CF93DF93FC01EB0180917C
:10557000450590914605A0914705B0914805B7FFB4
:1055800008C01092450510924605109247051092EA
:1055900048058091490590914A05A0914B05B0912D
:1055A0004C05409145055091460560914705709125
:1055B000480584179507A607B70744F48093450567
:1055C00090934605A0934705B09348058091370214
:1055D0008823D9F060914505709146058091470573
:1055E0009091480500914D0510914E0520914F0571
:1055F00030915005600F711F821F931F1995BC01D8
:1056000080915305909154054DDF80912C058111B7
:1056100008C0809142058823D1F180913702882308
:10562000B1F180915105909152050097B1F04091F0
:1056300045055091460560914705709148050091D8
:105640004D0510914E0520914F0530915005400FAA
:10565000511F621F731FFE011995E0914305F091E0
:105660004405309741F080914205811103C080913B
:105670002C058111199580912C0510922C058823F9
:1056800031F0DF91CF911F910F910C94F61FDF91B4
:10569000CF911F910F91089562EA77E18CE29AE130
:1056A00060CF64EC77E185E39AE15BCF6EE877E168
:1056B00082ED97E156CF6BED77E18EE69AE151CF1F
:1056C0006DEF77E18EEA9AE14CCF61E178E181EB11
:1056D00099E147CF67E278E18DEE99E142CF66EB41
:1056E00077E186EF99E13DCF69EE77E188EE9AE1C7
:1056F00038CF6BE378E187EA9AE133CF69E478E168
:1057000082E29BE12ECF4F925F926F927F929F92A7
:10571000AF92BF92CF92DF92EF92FF920F931F93BF
:10572000CF93DF9300D01F92CDB7DEB7982EB62E61
:105730006A017901A02E2115310509F48AC0C90139
:10574000002309F446C00E94521F182F8EE390E0F8
:10575000A0E0B0E0911004C080E290E0A0E0B0E0F2
:1057600089839A83AB83BC83AE014F5F5F4F6B2D00
:1057700080E03EDB02E1011B20915E0530915F0578
:1057800040915C0550915D0560915B05C6010E94EA
:105790006E23082F112349F18AE390E0A0E0B0E0E6
:1057A00089839A83AB83BC83CE0101960E942C230C
:1057B00080E2482E512C612C712C002369F0498223
:1057C0005A826B827C82CE0101960E942C2301506A
:1057D000F4CF0E94601FB9CFAA20D9F04FEF5FEF3E
:1057E0006DE578E1C7010E942F230F900F900F9075
:1057F0000F90DF91CF911F910F91FF90EF90DF906D
:10580000CF90BF90AF909F907F906F905F904F90A0
:105810000895C70155D8E9CF8EE390E0A0E0B0E04D
:1058200089839A83AB83BC83AE014F5F5F4F6B2D3F
:1058300080E0DEDA20915E0530915F0540915C05E5
:1058400050915D0502E160915B05C6010E946E23E7
:10585000CCCF8111E1CF10E07FCFCF92DF92EF92DA
:10586000FF920F931F93CF93DF9300D01F92CDB77A
:10587000DEB77A01102F811101C020E2822F220FA2
:10588000990BAA0BBB0B89839A83AB83BC83AE01B4
:105890004F5F5F4F80E0ACDA20915E0530915F058D
:1058A00040915C0550915D0502E160915B05C70187
:1058B0000E946E23082F80E2C82ED12CE12CF12CFF
:1058C000002351F0C982DA82EB82FC82CE0101967C
:1058D0000E942C230150F4CF012F110F110B220B2A
:1058E000330B09831A832B833C83CE0101960E94DC
:1058F0002C230F900F900F900F90DF91CF911F915D
:105900000F91FF90EF90DF90CF9008950F93CF937A
:10591000DF93CDB7DEB700E22EE349855A8568856F
:105920008F819BDFDF91CF910F9108958F929F928E
:10593000AF92BF92CF92DF92EF92FF920F931F939D
:10594000CF93DF93CDB7DEB760970FB6F894DEBF85
:105950000FBECDBF80E1E7E6F2E0DE0111960190D7
:105960000D928A95E1F70E94F7A980903F05C12C1E
:10597000D82CDC0CA1F480914105882309F4C6C021
:1059800080913702882359F081E09091410591116F
:1059900080E003E023E049EA53E16C2D5EDFAA24B6
:1059A000A394B12CDA102EC08FEF8A0D80935B0583
:1059B00010925F0510925E0510925D0510925C05D5
:1059C000809141058D1509F4C2C08091370288236A
:1059D000C9F011E0809141058D1110E0F501EE0F45
:1059E000FF1FEE0FFF1FE656F54F60A171A182A1C8
:1059F00093A10E94BA1900E09C014EE453E16C2D82
:105A0000812F81DE9A2C81E08A0D9FEFA91AB90AB5
:105A100094E0A916B10431F6D8122AC083E080932D
:105A20005B0510925F0510925E0510925D05109265
:105A30005C05809141058D1509F4B3C08091370252
:105A40008823B1F011E0809141058D1110E0609143
:105A5000CA0A7091CB0A8091CC0A9091CD0A0E941B
:105A6000BA1900E09C014EE453E16C2D812F4BDE0E
:105A700082E0890D8D111FC0809141058D1509F4BB
:105A8000AEC0809137028823B1F011E080914105CA
:105A90008D1110E06091DA0A7091DB0A8091DC0AC6
:105AA0009091DD0A0E94BA1900E09C0141E453E1A3
:105AB0006C2D812F28DE83E0890D8D111FC0809110
:105AC00041058D1509F4A8C0809137028823B1F0F3
:105AD00011E0809141058D1110E06091DE0A709116
