:100000000C9476110C94A7110C94A7110C94A711C1
:100010000C94A7110C94A7110C94A7110C94A71180
:100020000C94A7110C94A7110C94A7110C94A71170
:100030000C94A7110C94A7110C94A7110C94A71160
:100040000C94A7110C946F210C94A7110C94A71178
:100050000C94A7110C94A7110C9409210C94FD7118
:100060000C94A7110C9491500C9487500C94A711E8
:100070000C94A7110C94A7110C94A7110C94A71120
:100080000C94294C0C94A7110C94A7110C94A71153
:100090000C94A7110C94A7110C94A7110C94A71100
:1000A0000C94A7110C94A7110C94FB4B0C94A71162
:1000B0000C94A7110C94A7110C94A7110C94A711E0
:1000C0000C94A7110C94A7110C94A7110C94A711D0
:1000D0000C94A7110C94A7110C94A7110C94A711C0
:1000E0000C94A711084AD73B3BCE016E84BCBFFDE0
:1000F000C12F3D6C74319ABD56833DDA3D00C77FF8
:1001000011BED9E4BB4C3E916BAAAABE0000008090
:100110003F05A84CCDB2D44EB93836A9020C50B91F
:10012000918688083CA6AAAA2ABE000000803F004B
:100130004E414E494E495459494E46CDCCCC3D0ACC
:10014000D7233C17B7D13877CC2B329595E6241FAF
:10015000B14F0A000020410000C84200401C462068
:10016000BCBE4CCA1B0E5AAEC59D7400407A10F33B
:100170005A00A0724E18090010A5D4E80000E876D5
:1001800048170000E40B54020000CA9A3B0000002C
:10019000E1F505000080969800000040420F000045
:1001A00000A08601000000102700000000E8030006
:1001B0000000006400000000000A000000000001D0
:1001C00000000000002C76D888DC674F0823DFC1D0
:1001D000DFAE59E1B1B796E5E3E453C63AE651998B
:1001E0007696E8E6C28426EB898C9B62ED407C6FB4
:1001F000FCEFBC9C9F40F2BAA56FA5F490055A2A6B
:10020000F75C936B6CF9676DC11BFCE0E40D47FE76
:10021000F520E6B500D0ED902E030094357705006B
:1002200080841E080000204E0A000000C80C3333F2
:1002300033330F986E12831141EF8D2114893BE601
:100240005516CFFEE6DB18D1844B381BF77C1D908A
:100250001DA4BBE424203284725E228100C9F124F3
:10026000ECA1E53D27434F4D4D554E49434154497F
:100270004F4E0044525952554E004552524F525320
:1002800000494E464F004543484F006563686F3A4A
:10029000004572726F723A0020204D323031205882
:1002A000004D617820416363656C65726174696FAC
:1002B0006E2028756E6974732F7332290020204DCB
:1002C0003230332058004D61782066656564726174
:1002D0007465732028756E6974732F73290020521A
:1002E0000020204D323034205000416363656C653E
:1002F000726174696F6E2028756E6974732F733222
:10030000292028503C7072696E742D616363656C9E
:100310003E20523C726574726163742D6163636543
:100320006C3E20543C74726176656C2D616363652C
:100330006C3E290020540020530020204D323035DF
:10034000204200416476616E6365642028423C6D02
:10035000696E5F7365676D656E745F74696D655F07
:1003600075733E20533C6D696E5F666565647261AE
:1003700074653E20543C6D696E5F74726176656C85
:100380005F66656564726174653E20583C6D617896
:100390005F785F6A65726B3E20593C6D61785F796A
:1003A0005F6A65726B3E205A3C6D61785F7A5F6A66
:1003B00065726B3E290020496E76616C6964206528
:1003C00078747275646572200047322F473320625B
:1003D000616420706172616D65746572730A0053A7
:1003E0006C6565702E2E2E00436C69636B20746FF4
:1003F00020526573756D652E2E2E004E6F204D6F49
:1004000076652E00456E642066696C65206C6973A4
:10041000740A00426567696E2066696C65206C69C4
:1004200073740A004E6F206D656469610A00286E5E
:100430006F2066696C65290043757272656E742061
:1004400066696C653A20005344207072696E746965
:100450006E67206279746520004E6F7420534420CB
:100460007072696E74696E670A002E0A0044656CCA
:100470006574696F6E206661696C65642C204669DD
:100480006C653A200046696C652064656C6574652E
:10049000643A002569730025696D2025697300257C
:1004A00069682025696D2025697300256964202508
:1004B00069682025696D20256973002569792025E3
:1004C0006964202569682025696D202569730050BD
:1004D00072696E742074696D653A200020543A3058
:1004E0000A006F6B006F666600860281027A0273F3
:1004F00002650244454255473A004D31313320539D
:10050000004D616B656C616E67656C6F2035204FC7
:1005100046462E004D4541545041434B00434F4FFA
:100520004C45525F54454D5045524154555245003B
:100530004348414D4245525F54454D504552415408
:1005400055524500424142595354455050494E4737
:100550000041524353004D4F54494F4E5F4D4F445D
:10056000455300544845524D414C5F50524F5445FD
:100570004354494F4E004C4F4E475F46494C454E01
:10058000414D45004155544F5245504F52545F53D1
:10059000445F5354415455530053445F5752495498
:1005A0004500524550454154005344434152440094
:1005B00050524F4D50545F535550504F5254004875
:1005C0004F53545F414354494F4E5F434F4D4D414C
:1005D0004E445300454D455247454E43595F5041A7
:1005E0005253455200434153455F4C494748545F7D
:1005F0004252494748544E45535300544F47474C85
:10060000455F4C494748545300534F465457415255
:10061000455F504F574552004255494C445F504545
:100620005243454E54004C4556454C494E475F4455
:10063000415441005A5F50524F42450052554E4F6F
:100640005554004155544F4C4556454C0050524965
:100650004E545F4A4F420050524F47524553530049
:100660004155544F5245504F52545F54454D5000E0
:100670004155544F5245504F52545F504F530056BE
:100680004F4C554D455452494300454550524F4DEE
:100690000042494E4152595F46494C455F545241D0
:1006A0004E534645520053455249414C5F584F4EB8
:1006B0005F584F4646004649524D574152455F4E9E
:1006C000414D453A4D61726C696E2062756766698D
:1006D000782D322E302E7820284F63742031382028
:1006E000323032312032303A31353A3235292053E6
:1006F0004F555243455F434F44455F55524C3A670F
:1007000069746875622E636F6D2F4D61726C696ECE
:100710004669726D776172652F4D61726C696E20EA
:1007200050524F544F434F4C5F56455253494F4ED2
:100730003A312E30204D414348494E455F5459507F
:10074000453A4D616B656C616E67656C6F20352055
:1007500045585452554445525F434F554E543A30D4
:1007600020555549443A63656465326132662D34DB
:100770003161322D343734382D396231322D6335C1
:10078000356336326633363766660A002F2F00200F
:1007900058004F4646004F4E0020204D61783A20C9
:1007A00000200020204D696E3A2000203B200020D0
:1007B000204D32313120530046523A00206F75747B
:1007C000206F662072616E67650A00536572766FEE
:1007D00020003A200020536572766F200045455076
:1007E000524F4D2064697361626C65640A004D3834
:1007F0003400446F6E65207072696E74696E672094
:1008000066696C650A004D3737004D33310043612E
:10081000703A00A10000006900A20000006300B06F
:100820000000000900C10000004100C200000041BA
:1008300000C30000004100C40000004100C50000EA
:10084000004100C60000004145C70000004300C849
:100850000000004500C90000004500CD000000492F
:1008600000D10000004E00D50000004F00D600006F
:10087000004F00D70000007800DC0000005500DDCC
:100880000000005900E00000006100E1000000618C
:1008900000E20000006100E30000006100E40000ED
:1008A000006100E50000006100E60000006165E70E
:1008B0000000006300E80000006500E9000000653A
:1008C00000EA0000006500EB0000006500EC00009D
:1008D000006900ED0000006900EE0000006900EF13
:1008E0000000006900F10000006E00F20000006FDF
:1008F00000F30000006F00F40000006F00F500003E
:10090000006F00F60000006F00F80000006F00F9B3
:100910000000007500FA0000007500FB0000007583
:1009200000FC0000007500FD0000007900FF0000E1
:10093000007900040100004100050100006100068B
:1009400001000043000701000063000C01000043A8
:10095000000D01000063000E01000044000F0100C3
:100960000064001101000064001901000065001A14
:1009700001000045001B01000065001F0100006729
:100980000030010000490031010000690041010010
:10099000004C00420100006C00430100004E004486
:1009A0000100006E00480100006E00580100005276
:1009B000005901000072005A01000053005B010061
:1009C0000073005F010000730060010000530061CC
:1009D00001000073006501000074006F01000075E4
:1009E000007C0100007A007D0100005A007E0100B9
:1009F000007A00920100006600E302000078002205
:100A00002000002E001E21000050782221000054FA
:100A10004D902100003C2D922100002D3EB0210080
:100A2000000300BB21000004003C2200007E0048BF
:100A30002200007E3D60220000213D612200003D39
:100A400000642200003C3D652200003E3DF1230091
:100A5000000700A03000003D0021F301000200C2A9
:100A6000F401000500A2000000EC00B0000000DF6F
:100A700000E4000000E100F6000000EF00F70000D5
:100A800000FD00FC000000F500E3020000EB008721
:100A9000030000A5008F030000F40098030000F29B
:100AA000009E030000E300A3030000F600A903007A
:100AB00000F400AC030000E000AD030000E300B16F
:100AC000030000E000B2030000E200B5030000E311
:100AD00000B8030000F200BC030000E400BE030005
:100AE00000E300C0030000F700C1030000E600C3FC
:100AF000030000E500902100007F00922100007EAD
:100B0000001A220000E8001E220000F300882500E1
:100B100000FF0002300000A1000C300000A2000D18
:100B2000300000A3009B300000DE009C300000DF9E
:100B300000A03000003D00A1300000A700A230005E
:100B400000B100A3300000A800A4300000B200A54E
:100B5000300000A900A6300000B300A7300000AAB2
:100B600000A8300000B400A9300000AB00AA30009B
:100B700000B500AB300000B600AC300000B6DEAD12
:100B8000300000B700AE300000B7DEAF300000B874
:100B900000B0300000B8DEB1300000B900B2300063
:100BA00000B9DEB3300000BA00B4300000BADEB5E0
:100BB000300000BB00B6300000BBDEB7300000BC28
:100BC00000B8300000BCDEB9300000BD00BA300013
:100BD00000BDDEBB300000BE00BC300000BEDEBD8C
:100BE000300000BF00BE300000BFDEBF300000C0DC
:100BF00000C0300000C0DEC1300000C100C23000C3
:100C000000C1DEC3300000AF00C4300000C200C528
:100C1000300000C2DEC6300000C300C7300000C391
:100C2000DEC8300000C400C9300000C4DECA300095
:100C300000C500CB300000C600CC300000C700CD9E
:100C4000300000C800CE300000C900CF300000CA1C
:100C500000D0300000CADED1300000CADFD2300040
:100C600000CB00D3300000CBDED4300000CBDFD58A
:100C7000300000CC00D6300000CCDED7300000CCF5
:100C8000DFD8300000CD00D9300000CDDEDA3000F2
:100C900000CDDFDB300000CE00DC300000CEDEDD3A
:100CA000300000CEDFDE300000CF00DF300000D0AB
:100CB00000E0300000D100E1300000D200E230005E
:100CC00000D300E3300000AC00E4300000D400E5C5
:100CD000300000AD00E6300000D500E7300000AE87
:100CE00000E8300000D600E9300000D700EA30000C
:100CF00000D800EB300000D900EC300000DA00ED45
:100D0000300000DB00EF300000DC00F2300000A615
:100D100000F3300000DD00F4300000B3DEF73000F7
:100D200000DCDEFA300000A6DEFB300000A500FC8F
:100D3000300000B000FD300000A400074E0000FBB2
:100D40000086510000FC0043530000FA0064FF00DD
:100D500000A40065FF0000A50066FF0000A6006774
:100D6000FF0000A70068FF0000A80069FF0000A9BD
:100D7000006AFF0000AA006BFF0000AB006CFF00E0
:100D800000AC006DFF0000AD006EFF0000AE006F14
:100D9000FF0000AF0070FF0000B00071FF0000B165
:100DA0000072FF0000B20073FF0000B30074FF0088
:100DB00000B40075FF0000B50076FF0000B60077B4
:100DC000FF0000B70078FF0000B80079FF0000B90D
:100DD000007AFF0000BA007BFF0000BB007CFF0030
:100DE00000BC007DFF0000BD007EFF0000BE007F54
:100DF000FF0000BF0080FF0000C00081FF0000C1B5
:100E00000082FF0000C20083FF0000C30084FF00D7
:100E100000C40085FF0000C50086FF0000C60087F3
:100E2000FF0000C70088FF0000C80089FF0000C95C
:100E3000008AFF0000CA008BFF0000CB008CFF007F
:100E400000CC008DFF0000CD008EFF0000CE008F93
:100E5000FF0000CF0090FF0000D00091FF0000D104
:100E60000092FF0000D20093FF0000D30094FF0027
:100E700000D40095FF0000D50096FF0000D6009733
:100E8000FF0000D70098FF0000D80099FF0000D9AC
:100E9000009AFF0000DA009BFF0000DB009CFF00CF
:100EA00000DC009DFF0000DD009EFF0000DE009FD3
:100EB000FF0000DF00E5FF00005C00000000000113
:100EC0000204040000001C1C0C04040402010000C5
:100ED00000000004081000000000002D2D2D2D2D15
:100EE0002D007C4D61726C696E7C002D2D2D2D2D99
:100EF0002D00001C1F11111F0000000619180313FC
:100F00000C00040E1F041C000000000E1315110E2F
:100F100000001C10181705060500040A0A0A0A1129
:100F2000110E0C12120C00000000001F1511151FED
:100F3000000042656400456E636C6F7375726500F6
:100F40002568753A25303268750025303268753A63
:100F50002530326875002D2D2D00534400507269E4
:100F60006E742041626F72746564004D32350050BA
:100F7000617573696E672E2E2E004D3234004D69F7
:100F80006E2054726176656C2056656C004D696EFA
:100F90002056656C6F63697479004D617820432039
:100FA00056656C004D617820422056656C004D619D
:100FB0007820412056656C004D61782043204163C4
:100FC00063656C004D6178204220416363656C006D
:100FD0004D6178204120416363656C0054726176F5
:100FE000656C20416363656C00416363656C004D13
:100FF00061782043204A65726B004D617820422061
:101000004A65726B004D61782041204A65726B0021
:10101000432053746570732F6D6D004220537465C7
:1010200070732F6D6D00412053746570732F6D6D5B
:1010300000416476616E6365642053657474696E03
:1010400067730053746570732F6D6D004A65726B22
:1010500000416363656C65726174696F6E0056650B
:101060006C6F6369747900436F6E6669677572614E
:1010700074696F6E00526573746F726520446566A3
:1010800061756C747300416476616E6365642053AE
:10109000657474696E6773004D61696E004D323816
:1010A00030205030205339302054333030004D320E
:1010B0003820503020533330205435300050656E86
:1010C00020446F776E200050656E205570004D6192
:1010D000696E003F004261636B0053746F70004E95
:1010E0006F204D65646961005072696E742066728C
:1010F0006F6D204D65646961004368616E676520AE
:101100004D65646961004D323100436F6E666967F9
:1011100075726174696F6E004D6F74696F6E005205
:101120006573756D65205072696E740050656E2030
:10113000436F6D6D616E64730054756E650053741A
:101140006F70205072696E74005061757365205025
:1011500072696E7400496E666F2053637265656EC6
:10116000003F005374617274205072696E740043C2
:10117000616E63656C005072696E740043616E6EDF
:101180006F7420656E746572207375626469723A5B
:10119000200005202E2E004D61696E004D6F746990
:1011A0006F6E0044697361626C6520537465707082
:1011B000657273004D3834004175746F20486F6D4F
:1011C0006500473238004D61696E0046616E2053FC
:1011D00070656564207E005370656564004D6169CB
:1011E0006E00486F6D696E67204661696C656400CA
:1011F0006F70656E00545249474745524544003A66
:1012000020007A5F6D617800795F6D617800785FAA
:101210006D6178005265706F7274696E6720656EDB
:101220006473746F70207374617475730A00486F0F
:101230006D652025732573257320466972737400CC
:10124000000000003353F1C3000048435761726E41
:10125000696E673A20486F6D696E672042756D70E0
:101260002044697669736F72203C20310A000202C3
:10127000040080224400007A44000048430000A09B
:10128000400000A040000000400080A2430000FA9F
:1012900043000048430080A2C30000FAC3000000DE
:1012A0000048617264636F646564204465666175BB
:1012B0006C742053657474696E6773204C6F61643D
:1012C00065640A0000C0A84500C0A84500C0A84544
:1012D0000000A0420000A0420000A04260090000FF
:1012E00060090000B80B000020286D6D2900202047
:1012F0004D3134392043203B20556E697473206989
:101300006E2043656C736975730A0054656D706572
:1013100072617475726520556E6974730020204780
:101320003231203B004C696E65617220556E6974E4
:10133000730024F4D43050C38E20C2A24017828B95
:101340007011127A910D816CD90AA861E108C75811
:101350006607615143061E4B5D05C145A7041A414E
:101360001104093D9803713931034036DB026533BE
:101370009102D4305402802E1D02632CEE01752A96
:10138000C501B028A001102781018F2564012B24FD
:101390004B01E0223401AC211F018D200D01801F83
:1013A000FC00841EED00971DDF00B81CD200E61B78
:1013B000C600201BBC00641AB200B219A8000A19AA
:1013C000A0006A189900D117910040178B00B5163C
:1013D000840031167E00B31579003A157300C714E6
:1013E0006F0058146A00EE1366008813630025131B
:1013F0005E00C7125B006C12570015125400C11139
:10140000510070114F0021114B00D61049008D1072
:1014100047004610440002104200C00F4000800FF9
:101420003E00420F3C00060F3B00CB0E3800930EEF
:1014300037005C0E3500270E3400F30D3200C10D6D
:101440003100900D3000600D2E00320D2D00050D85
:101450002C00D90C2B00AE0C2900850C29005C0C4B
:101460002700350C27000E0C2600E80B2400C40BC7
:101470002400A00B23007D0B23005A0B2100390B05
:101480002100180B2000F80A1F00D90A1E00BB0A11
:101490001E009D0A1D00800A1D00630A1C00470AE9
:1014A0001B002C0A1B00110A1A00F7091A00DD099B
:1014B0001900C4091900AB091900920917007B092A
:1014C0001800630917004C09160036091600200998
:1014D00016000A091500F5081500E0081400CC08EC
:1014E0001400B8081400A4081400900813007D0824
:1014F00012006B0813005808120046081200340846
:101500001100230811001208110001081100F00752
:101510001000E0071000D0071000C0071000B0074F
:101520000F00A107100091070E0083070F0074073A
:101530000F0065070E0057070E0049070E003B0716
:101540000D002E070E0020070D0013070D000607E3
:101550000D00F9060C00ED060D00E0060C00D406A7
:101560000C00C8060C00BC060C00B0060C00A4065B
:101570000B0099060C008D060B0082060B00770607
:101580000B006C060B0061060A0057060B004C06A8
:101590000A0042060A0038060A002E060A0024063F
:1015A0000A001A060A001006090007060A00FD05CF
:1015B0000900F4050900EB050900E2050900D90559
:1015C0000900D0050900C7050900BE050900B505D9
:1015D0000800AD050800A50509009C050800940554
:1015E00008008C050800840508007C0508007405C7
:1015F00008006C050700650508005D050700560535
:1016000008004E050700470507004005080038059B
:101610000700310507002A050700230507001C0500
:101620000600160507000F0507000805060002055D
:101630000700FB040600F5040700EE040600E804BA
:101640000600E2040700DB040600D5040600CF0410
:101650000600C9040600C3040600BD040600B70462
:101660000600B1040500AC040600A6040600A004B0
:1016700005009B04060095040500900406008A04FA
:10168000050085040500800406007A040500750441
:101690000500700405006B04050066040500610484
:1016A00005005C04050057040500520405004D04C4
:1016B000050048040500430405003E0404003A0404
:1016C000050035040500300404002C04050027043F
:1016D0000400230405001E0404001A040400160478
:1016E0000500110404000D040400090405000404AD
:1016F000040000040400FC030400F8030400F403E5
:101700000400F0030400EC030400E8030400E40315
:101710000400E0030400DC030400D8030400D40345
:101720000400D0030400CC030400C8030300C50375
:10173000030024F404D9201BC40C5C0E9804C409D3
:101740005F0265077101F405F900FB04B30048046A
:101750008700C10369005803550003034500BE021A
:101760003A008402310053022A00290225000402B3
:101770002000E4011C00C8011900AF011700980106
:101780001400840113007101100061011000510167
:101790000E0043010D0036010B002B010B00200150
:1017A0000B00150109000C01090003010800FB00F2
:1017B0000800F3000800EB000700E4000600DE006C
:1017C0000600D8000600D2000600CC000500C700C5
:1017D0000500C2000500BD000400B9000400B5000A
:1017E0000400B1000400AD000400A9000400A5003D
:1017F0000300A20003009F0004009B000300980068
:1018000003009500020093000300900003008D0088
:1018100002008B00030088000200860002008400A2
:101820000300810002007F0002007D0002007B00B7
:1018300002007900020077000100760002007400C7
:10184000020072000100710002006F0002006D00D2
:1018500001006C0002006A000100690002006700DC
:1018600001006600010065000100640002006200E2
:10187000010061000100600001005F0002005D00E6
:1018800001005C0001005B0001005A0001005900EA
:1018900001005800010057000100560001005500EA
:1018A00001005400010053000000530001005200E9
:1018B000010051000100500001004F0001004E00E6
:1018C00000004E0001004D0001004C0001004B00E3
:1018D00000004B0001004A000100490001004800DF
:1018E00000004800010047000100460000004600DB
:1018F00001004500000045000100440001004300D4
:1019000000004300010042000000420001004100CD
:10191000000041000100400001003F0000003F00C6
:1019200001003E0000003E0001003D0000003D00BF
:1019300001003C0000003C0000003C0001003B00B6
:1019400000003B0001003A0000003A0001003900AD
:1019500000003900010038000000380000003800A5
:10196000010037000000370001003600000036009B
:101970000000360001003500000035000000350091
:101980000100340000003400000034000100330086
:10199000000033000000330001003200000032007C
:1019A0000000320001003100000031000000310071
:1019B00001003000000030000000300001002F0066
:1019C00000002F0000002F0000002F0001002E005B
:1019D00000002E0000002E0001002D0000002D0050
:1019E00000002D0000002D0001002C0000002C0044
:1019F00000002C0000002C0001002B0000002B0038
:101A000000002B0000002B0001002A0000002A002B
:101A100000002A0000002A0001002900000029001F
:101A20000000290000002900000029000100280012
:101A30000000280000002800000028000000280006
:101A400001002700000027000000270000002700F9
:101A500000002700010026000000260000002600EC
:101A600000002600000026000100250000002500DF
:101A700000002500000025000000250000002500D2
:101A800001002400000024000000240000002400C5
:101A900000002400010023000000230000002300B8
:101AA00000002300000023000000230000002300AA
:101AB000010022000000220000002200000022009D
:101AC000000022000000220001002100000021008F
:101AD0000000210000002100000021000000210082
:101AE0000000210001002000000020000000200074
:101AF0000000200000002000000020000000200066
:101B00000000200001001F0000001F0000001F0057
:101B100000001F0000001F0000001F0000001F0049
:101B200001001E0000001E0000001E0000001E003C
:101B30000000A33B0000802E000048200000081495
:101B40000000630B00001F0600002E0300009F0131
:101B5000000020436F756E7420583A007C3C3E5E56
:101B60002B3D3F2F5B5D3B2C2A225C0043616E6E58
:101B70006F74206F70656E207375626469722000E7
:101B8000534420496E6974204661696C00534420B7
:101B900063617264206F6B0A006F70656E526F6FC5
:101BA00074206661696C65640A00766F6C756D659A
:101BB0002E696E6974206661696C65640A004E6FF7
:101BC00020534420636172640A000A4D3234004D90
:101BD0003233202573002E0A006F70656E20666117
:101BE000696C65642C2046696C653A200046696C16
:101BF000652073656C65637465640A002053697AB7
:101C0000653A200046696C65206F70656E65643AC0
:101C10002000454E4420535542524F5554494E459D
:101C20000A002220706F73002220706172656E744A
:101C30003A2200535542524F5554494E4520434194
:101C40004C4C207461726765743A2200537562636C
:101C5000616C6C204F766572666C6F7700457863B7
:101C60006565646564206D617820535542524F5517
:101C700054494E452064657074683A00577269741F
:101C8000696E6720746F2066696C653A2000667221
:101C900065736800646F696E67002066696C653AF9
:101CA00020004E6F7720002F6175746F25632E67BB
:101CB000006D61726C696E66772E6F7267006D6180
:101CC000726C696E66772E6F7267006D61726C69F7
:101CD0006E66772E6F7267006275676669782D325F
:101CE0002E302E78006275676669782D322E302E80
:101CF00078006275676669782D322E302E78006D17
:101D000061726C696E66772E6F7267006D61726CBE
:101D1000696E66772E6F7267006D61726C696E66B0
:101D2000772E6F726700206275676669782D322E94
:101D3000302E78002020506C616E6E6572427566A0
:101D400066657242797465733A2000204672656553
:101D5000204D656D6F72793A200020436F6D706978
:101D60006C65643A204F6374203138203230323150
:101D70000A00204C61737420557064617465643A84
:101D800020323032312D30392D3136207C204175D2
:101D900074686F723A20284D617267696E616C6C6D
:101DA0007920436C657665722C204D616B656C61A2
:101DB0006E67656C6F2035290A004D61726C696E23
:101DC000206275676669782D322E302E780A0020E1
:101DD000536F6674776172652052657365740A008B
:101DE000205761746368646F672052657365740A75
:101DF000002042726F776E206F7574205265736594
:101E0000740A002045787465726E616C20526573A7
:101E100065740A00506F77657255700A00737461BB
:101E200072740A004732385859004D313030310051
:101E30006F6B006572726F722077726974696E677A
:101E400020746F2066696C650A00446F6E652073AC
:101E50006176696E672066696C652E0A00456E645E
:101E600073746F707300255320256320256320252C
:101E70006320256300205A3A0020593A0020583A3E
:101E800000656E6473746F7073206869743A200023
:101E900000000A0B02090C0D0E08070304010000E4
:101EA0000000000000000000000000000000000032
:101EB00000000000000000000000000012111000EF
:101EC0000000000000000000000000000000000012
:101ED0000000000000004D6F76652025736D6D00D9
:101EE0004D6F766520302E316D6D004D6F7665201B
:101EF000316D6D004D6F76652031306D6D004D6F29
:101F00007665203130306D6D004D6F7665204178FB
:101F10006973004D6F7665205A004D6F76652059C4
:101F2000004D6F76652058005072696E742066729D
:101F30006F6D204D65646961000101014D616B6544
:101F40006C616E67656C6F20352052656164792E17
:101F5000005072696E74696E672E2E2E0050726981
:101F60006E742050617573656400205A3A002059E0
:101F70003A00583A00205A0020590020204D3932AA
:101F800020580053746570732070657220756E69F7
:101F900074003B2000220A00556E6B6E6F776E2036
:101FA000636F6D6D616E643A202200627573793AD9
:101FB0002070617573656420666F7220696E70753C
:101FC000740A00627573793A2070617573656420D4
:101FD000666F7220757365720A00627573793A20B4
:101FE00070726F63657373696E670A004D6564692B
:101FF000612052656D6F766564004D65646961208E
:10200000496E736572746564004D313132205368D6
:102010007574646F776E0053544F505045442E20B2
:10202000005072696E7465722073746F70706564AD
:102030002064756520746F206572726F72732E2034
:1020400046697820746865206572726F7220616ECF
:102050006420757365204D39393920746F2072659D
:1020600073746172742E202854656D70657261748A
:102070007572652069732072657365742E205365CF
:10208000742069742061667465722072657374616E
:102090007274696E67290A004E6F20436865636B2E
:1020A00073756D2077697468206C696E65206E7534
:1020B0006D6265722C204C617374204C696E653AB8
:1020C00020004D3239004E6F20436865636B737595
:1020D0006D2077697468206C696E65206E756D621D
:1020E00065722C204C617374204C696E653A200037
:1020F000636865636B73756D206D69736D6174637F
:10210000682C204C617374204C696E653A20004C39
:10211000696E65204E756D626572206973206E6F01
:1021200074204C617374204C696E65204E756D622D
:1021300065722B312C204C617374204C696E653AAA
:1021400020004D3131300053657269616C20737429
:1021500061747573206D69736D617463680A0053EF
:10216000442072656164206572726F720A002121D9
:10217000204B494C4C206361757365642062792063
:102180004B494C4C20627574746F6E2F70696E0AE7
:10219000002121204B494C4C2063617573656420FC
:1021A000627920746F6F206D75636820696E61635A
:1021B000746976652074696D65202D20637572726F
:1021C000656E7420636F6D6D616E643A20006F6B95
:1021D0000A00526573656E643A2000506C65617345
:1021E00065205265736574005052494E5445522023
:1021F00048414C5445440025533A202553004B494F
:102200004C4C45442E20005072696E7465722068F3
:10221000616C7465642E206B696C6C282920636185
:102220006C6C6564210A0000000022002500280073
:102230002B002E00310034000201000005010801CE
:102240000B0100002100240027002A002D0030008F
:10225000330001010000040107010A01050505051D
:10226000070508080808020202020A0A080804040E
:10227000040401010101010101010303030303033C
:102280000303040707070C0C0C0C0C0C0C0C0202CB
:10229000020206060606060606060B0B0B0B0B0BC8
:1022A0000B0B010210202008081020401020408055
:1022B000020102010804020101020408102040800A
:1022C0008040201008040201800402018040201098
:1022D00008040201080402010102040810204080E1
:1022E00001020408102040809A93549C11241FBEC0
:1022F000CFEFD1E2DEBFCDBF00E00CBF12E0A0E027
:10230000B2E0E4EBF5E501E00BBF02C007900D92EF
:10231000AA3BB107D9F721E1AAEBB2E001C01D92B7
:10232000A734B207E1F711E1C5E7D1E100E006C04B
:1023300021970109802FFE010E9496A7C437D1077B
:1023400080E00807A9F70E94DC940C94C9AA0C94B9
:1023500000000F931F93CF93DF93CDB7DEB7609745
:102360000FB6F894DEBF0FBECDBF8C01DC01ED913E
:10237000FC910280F381E02DBE016F5F7F4F1995C4
:10238000882309F464C08981807CC9F56F816370FA
:1023900070E0762F6627770F770F8885B4E08B9FE4
:1023A000C0011124682B792B8985829586958695A5
:1023B0008370682B6F5F7F4F90E080E02A852370E9
:1023C000220F3B8537FB332730F9232B3E813F70AB
:1023D000230F3327331F2750310904C0660F771F9F
:1023E000881F991F2A95D2F760960FB6F894DEBF22
:1023F0000FBECDBFDF91CF911F910F910895803413
:1024000019F568856695669570E090E080E0CB01EF
:10241000772766272A85622B098510E0102F002771
:10242000012E000C220B330B602B712B822B932B74
:102430006F5F7F4F8F4F9F4F4AE0660F771F881F58
:10244000991F4A95D1F7D0CF8BE0F801848360E0E3
:1024500070E0CB01C9CFFC0182810895FC019CE0B2
:10246000AEEAB3E001900D929A95E1F70895AF922C
:10247000BF92CF92DF92EF92FF920F931F93CF9371
:10248000DF93CCE2D4E00EE014E088E3A82E84E0F1
:10249000B82EC12CD12C7601C39469917991899180
:1024A00099910E94E9A02C853D854E855F850E940B
:1024B0004AA10E94E8A8F8016193719381939193D6
:1024C0008F01C616D706E806F90610F46B017C01E9
:1024D000AC16BD0611F76FEF7FEFCB01A701960198
:1024E0000E94F9A620931A0430931B0440931C0405
:1024F00050931D04DF91CF911F910F91FF90EF90AA
:10250000DF90CF90BF90AF9008950F931F93E62F69
:10251000DC01FC910F2F10E030E020E0062E04C01B
:1025200036952795179507950A94D2F700FF1CC09A
:102530000091590310E030E020E004C03695279563
:10254000179507956A95D2F700FF0EC041E050E05D
:1025500060E070E004C0440F551F661F771FEA95C6
:10256000D2F740954F234C931F910F91089541E06E
:1025700050E060E070E0082E04C0440F551F661F55
:10258000771F0A94D2F790915903942B9093590393
:1025900090915803492B4093580324E0829FC00137
:1025A0001124FC01E05CFD4E4591559165917491BB
:1025B000FC01EA5CFD4F40835183628373838B503F
:1025C0009C4FFC0110821182128213820895CF93D6
:1025D000DF931F92CDB7DEB7898360E0CE0101960D
:1025E00094DF61E0CE01019690DF62E0CE010196BA
:1025F0008CDF89810F90DF91CF910895CF92DF9288
:10260000EF92FF92CF93DF9320910602222399F15C
:10261000209158032695269520FF2DC0EC01C090EF
:102620001002D0901102E0901202F090130228855F
:1026300039854A855B85C701B6010E94C6A918166F
:1026400024F4C886D986EA86FB86C0901C02D09006
:102650001D02E0901E02F0901F02288539854A85F0
:102660005B85C701B6010E94E5A087FF04C0C8864C
:10267000D986EA86FB86DF91CF91FF90EF90DF90BD
:10268000CF9008958F929F92AF92BF92CF92DF9298
:10269000EF92FF92CF93FC01C080D180E280F38063
:1026A00020E030E040E251E4C701B6010E944AA1B7
:1026B00020E030E048EC52E40E944AA14B015C016A
:1026C00020E030E0A901C701B6010E94E5A020E0AA
:1026D00030E040EA50E487FF04C020E030E040EA08
:1026E00050ECC501B4010E949FA720E030E040E219
:1026F00051E40E947BA80E94E3A86B017C018BE25D
:10270000F7FE09C0F094E094D094C094C11CD11C91
:10271000E11CF11C8DE280933703C701B60120E173
:1027200037E240E050E00E941BA78AE0882E912CFF
:10273000A12CB12CCA01B901A50194010E941BA7CB
:10274000605D60933803C701B60128EE33E040E0D6
:1027500050E00E941BA7CA01B901A50194010E9483
:102760001BA7605D60933903C701B60124E630E022
:1027700040E050E00E941BA7CA01B901A5019401E5
:102780000E941BA7605D60933A038EE280933B0337
:10279000C701B601A50194010E941BA7C62FCA015B
:1027A000B901A50194010E941BA7605D60933C03E1
:1027B000C05DC0933D0387E393E0CF91FF90EF901E
:1027C000DF90CF90BF90AF909F908F900895CF9261
:1027D000DF92EF92FF92FC01C080D180E280F38013
:1027E00020E030E0A901C701B6010E94E5A087FF03
:1027F00068C0C701B601905820E030E040E251E4E3
:102800000E944AA120E030E040EA50E40E949FA7E5
:1028100020E030E040E251E40E947BA80E94E3A85F
:102820009B0160E22031F7E23F0730F0C90160E12F
:1028300077E20E946FA7605D60933903283E83E0D2
:10284000380708F445C0C90168EE73E00E946FA71D
:10285000CB016AE070E00E946FA7805D80933A032D
:1028600080E22436310558F0C90164E670E00E9428
:102870006FA7CB016AE070E00E946FA7805D809334
:102880003B0380E22A30310558F0EAE0F0E0C9016C
:10289000BF010E946FA7CB01BF010E946FA7805D9F
:1028A00080933C03C9016AE070E00E946FA7805DDD
:1028B00080933D0389E393E0FF90EF90DF90CF900A
:1028C000089520E030E040E251E4C701B60198CF1E
:1028D00080E2C4CF9C0197FF26C0EE27FF27E81BAC
:1028E000F90B2D398FEF38070CF05DC08DE2809326
:1028F0003A03CF0164E670E00E9483A7CB012AE08F
:1029000030E0B9010E9483A7805D80933B03CF0133
:10291000B9010E9483A7CB01B9010E9483A7805D02
:1029200080933C032AC0283E83E03807B4F1C901F4
:1029300068EE73E00E9483A7CB01EAE0F0E0BF01FC
:102940000E9483A7805D80933A03C90164E670E02A
:102950000E9483A7CB01BF010E9483A7805D809363
:102960003B03C901BF010E9483A7CB01BF010E94A5
:1029700083A7805D80933C03F901CF016AE070E09A
:102980000E9483A7805D80933D038AE393E00895CE
:102990008DE237FDC5CF80E2C3CFF90180E2243656
:1029A00031050CF0A4CF80E280933A0380933B037F
:1029B000EA30F1056CF38DE237FF80E280933B0350
:1029C000CF016AE070E00E9483A7605D60933C03E2
:1029D000D4CF9C0197FD2DC080E2243631055CF0F8
:1029E000C90164E670E00E9483A7CB016AE070E051
:1029F0000E9483A7805D80933B0380E22A303105EB
:102A00005CF0EAE0F0E0C901BF010E9483A7CB01BE
:102A1000BF010E9483A7805D80933C03C9016AE0E7
:102A200070E00E9483A7805D80933D038BE393E079
:102A300008953195219531098DE2DDCF282F81E36D
:102A4000243609F080E280933A0390E22A3040F085
:102A50003AE0822F632F0E9456A70E9456A7905DEE
:102A600090933B03822F6AE00E9456A7905D90935B
:102A70003C0385E280933D038AE393E00895CF937E
:102A8000DF93EC01CB01BA010E94EBA029EC38ECFA
:102A900048EC5EE30E947BA820E030E040E05FE38A
:102AA0000E949FA70E94E8A86883DF91CF910895B4
:102AB0000E94EBA029EC38EC48EC5EE30E947BA876
:102AC00020E030E040E05FE30E949FA70E94E8A87A
:102AD00024E6629FC001112481589F4F6FEF70E080
:102AE0000E9483A7862FAACFCF93DF93EC01CB015F
:102AF000BA010E94EBA00E94E3A879836883DF916A
:102B0000CF9108950E94EBA00E94E3A8CB0161CF72
:102B1000E091E403E23030F4F0E0E157FB4F8091C4
:102B20003303808308958091CF0F8823C1F08150B3
:102B30008093CF0FECE1FEE0882351F08150990B98
:102B40002BE1289FF001299FF00D1124EF53F14F45
:102B50008BE1A1E0BEE001900D928A95E1F7209112
:102B6000CF0F211105C08091D90F80648093D90FB8
:102B700081E090E0A0E0B0E0211103C080E090E0AF
:102B8000DC018093860490938704A0938804B0931B
:102B900089041092D10381E08093E30383E0809362
:102BA00030020895CF93DF9300D01F92CDB7DEB7E8
:102BB0000E94E8A80E94E9A069837A838B839C83A2
:102BC000CE01019604DE0F900F900F900F90DF91D1
:102BD000CF9108958F929F92AF92BF92CF92DF9242
:102BE000EF92FF92CF936B017C0120E030E0A901CE
:102BF0000E94E5A087FDAAC06DEB77E386E095E330
:102C0000A70196010E949FA76B017C0120E030E0A4
:102C1000A9010E94E5A087FF9EC0C701B601905898
:102C200020E030E040E251E40E944AA120E030E0A0
:102C300040E251E40E944AA120E030E040EA50E442
:102C40000E949FA720E030E040E251E40E947BA870
:102C50000E94E3A86B017C0180E28093370360E26D
:102C600080E1C81687E2D806E104F1048CF0C701C0
:102C7000B60120E137E240E050E00E941BA7CA0104
:102C8000B9012AE030E040E050E00E941BA7605DFF
:102C90006093380360E288EEC81683E0D806E1044A
:102CA000F1048CF0C701B60128EE33E040E050E0BB
:102CB0000E941BA7CA01B9012AE030E040E050E0C1
:102CC0000E941BA7605D6093390360E284E6C8162A
:102CD000D104E104F1048CF0C701B60124E630E030
:102CE00040E050E00E941BA7CA01B9012AE030E091
:102CF00040E050E00E941BA7605D60933A038AE0C9
:102D0000882E912CA12CB12CC701B601A5019401EC
:102D10000E941BA7C62FCA01B901A50194010E94F8
:102D20001BA7605D60933B038EE280933C03C05D14
:102D3000C0933D0387E393E0CF91FF90EF90DF9046
:102D4000CF90BF90AF909F908F9008956DEB77E3F9
:102D500086E095EB55CF20E030E040E251E4C7013A
:102D6000B60162CFCF92DF92EF92FF92CF93DF93C3
:102D700000D01F92CDB7DEB76B017C0120E030E0C0
:102D8000A9010E94E5A087FD1AC06DEB77E386E0FC
:102D900095E3A70196010E949FA769837A838B839D
:102DA0009C83CE01019613DD0F900F900F900F9032
:102DB000DF91CF91FF90EF90DF90CF9008956DEB72
:102DC00077E386E095EBE5CFCF92DF92EF92FF922B
:102DD0006B017C0120E030E0A9010E94E5A087FDA5
:102DE00025C06DEB77E386E095E3A70196010E948D
:102DF0009FA76B017C0120E030E0A9010E94E5A0C3
:102E000020E030E040E05FE387FF04C020E030E0F6
:102E100040E05FEBC701B6010E949FA70E94E3A8B4
:102E2000CB01FF90EF90DF90CF90D3CD6DEB77E3A8
:102E300086E095EBDACFCF93DF93EC01CB01BA01BB
:102E40000E94EBA020E030E040E251E40E947BA829
:102E5000688379838A839B83DF91CF9108950E9451
:102E6000EBA020E030E040E251E40E947BA8B2CE2B
:102E7000CF93DF93EC01CB01BA010E94EBA020E0DD
:102E800030E048EC52E40E947BA8688379838A830F
:102E90009B83DF91CF910895CF92DF92EF92FF92C3
:102EA000CF93DF9300D01F92CDB7DEB70E94EBA087
:102EB00020E030E048EC52E40E947BA86B017C01EA
:102EC00020E030E0A9010E94E5A02DEB37E346E0C9
:102ED00055E387FF04C02DEB37E346E055EBC70110
:102EE000B6010E949FA769837A838B839C83CE015E
:102EF0000196C8DB0F900F900F900F90DF91CF914C
:102F0000FF90EF90DF90CF900895CF93DF93EC0187
:102F1000CB01BA010E94EBA0688379838A839B83EB
:102F2000DF91CF910895CF93DF93EC01CB01BA01EC
:102F30000E94EBA0688379838A839B83DF91CF9182
:102F400008950E94EBA040CFCF93DF93EC01CB011B
:102F5000BA010E94EBA02AE037ED43E25DE30E9454
:102F60007BA80E94E8A8688379838A839B83DF918A
:102F7000CF9108950E94EBA02AE037ED43E25DE394
:102F80000E947BA80FCECF93DF93EC01CB01BA0157
:102F90000E94EBA02AE037ED43E25DE30E947BA8AC
:102FA000688379838A839B83DF91CF9108950E9400
:102FB000EBA02AE037ED43E25DE30E947BA8D2CE8E
:102FC0000E94EBA0CFCE53CA52CA51CA8091860E3E
:102FD0009091870E891B8F7089F48091F403813062
:102FE00069F09091D90F92FB882780F992FF07C072
:102FF00097FB882780F991E08927089581E008955B
:10300000FC0180810895FC0184910895AF92BF92E4
:10301000CF92DF92EF92FF920F931F93CF93DF93A4
:10302000EC015B018A01FB01199587FD16C0C82ED2
:10303000D12CF12CE12C2196F801C082D182E282C0
:10304000F382CE01DF91CF911F910F91FF90EF900E
:10305000DF90CF90BF90AF900895982F907E903CD6
:10306000A9F48F7190E0B0E0A0E06C017D0156E022
:10307000CC0CDD1CEE1CFF1C5A95D1F7CE0101963D
:10308000F50119958F73C82A2296D6CF982F907F75
:10309000903E11F58F7090E0B0E0A0E06C017D01F2
:1030A00036E0CC0CDD1CEE1CFF1C3A95D1F7CE01AE
:1030B0000196F50119958F73C82A46E0CC0CDD1CEA
:1030C000EE1CFF1C4A95D1F7CE010296F501199529
:1030D0008F73C82A2396B0CF982F987F903F79F5A9
:1030E000877090E0B0E0A0E06C017D0186E0CC0C40
:1030F000DD1CEE1CFF1C8A95D1F7CE010196F5016F
:1031000019958F73C82A96E0CC0CDD1CEE1CFF1CB1
:103110009A95D1F7CE010296F50119958F73C82AB9
:1031200026E0CC0CDD1CEE1CFF1C2A95D1F7CE014D
:103130000396F50119958F73C82A24967DCF982F91
:10314000907C903841F4807C803869F42196CE01DF
:10315000F5011995F8CF8E7F8D3F28F02196CE018D
:10316000F5011995F8CFC12CD12C760165CF90E0EF
:1031700080E008952FEB280F2A3108F047C0E22F96
:10318000F0E08091E3029091E402A091E502B09119
:10319000E60204C0B695A795979587952A95D2F72C
:1031A00080FD02C081700895E753FD4FE081EE235A
:1031B00041F18091130990911409E80FF92FF11D45
:1031C000808190ED980F9A3030F08E3251F48181E9
:1031D00080538A3098F4F093C602E093C50281E0F0
:1031E00008958D3211F08B3249F4818190ED980F62
:1031F0009A3088F38E3211F48281EACFF0E0E0E079
:10320000EACF1092C6021092C502E9CF80E008957D
:10321000B1DF882341F081E02091C5023091C602E0
:10322000232B09F480E008958EBD0DB407FEFDCF79
:103230000895909164009B7F90936400982F906A0A
:1032400096959CBD80FD03C091E0863009F490E026
:103250009DBD08950F931F938091F403813019F55C
:103260000E94D171009143031091440320914503C2
:1032700030914603601B710B820B930B28EE33E0F9
:1032800040E050E00E94F9A660913F037091400336
:103290008091410390914203620F731F841F951F19
:1032A0001F910F9108956091470370914803809199
:1032B000490390914A03D6CFCF93DF93EC018D81E0
:1032C000B8DF60E08B81DF91CF910C94CF6F61E02C
:1032D000FC0183810E94CF6F8FEFA6CF0F931F93C6
:1032E000CF938C01E9DF0E94DD71C82F882361F044
:1032F0008DEF9ADF0E94DD71C82FC801E8DF8C2FA7
:10330000CF911F910F91089582E1F8018483F5CF49
:10331000CF92DF92EF92FF920F931F93CF93DF93A1
:103320006B017A01EC01C354DD4F28813CE0389FEA
:103330008001399F100D112427FF24C0FB01118249
:10334000108288818F5F888388819801280F311DC2
:1033500087FD3A95C90120917F0EF60128171906BD
:1033600029F024F088818C300CF43CC0808191815C
:10337000049680349C4908F475C0F60180819181DF
:10338000049672C088819801280F311D87FD3A95F7
:10339000C90120917F0E2817190699F294F28881AD
:1033A000A801480F511D87FD5A95FA01EE0FFF1F26
:1033B000E40FF51FE95CF14F808187FFC2CF888160
:1033C000F801E80FF11D87FDFA95CF01EE0FFF1F01
:1033D000E80FF91FE95CF14F808160E08F770E9470
:1033E000CF6FAFCF808191812881A801420F511DFD
:1033F00027FD5A959A01FA01EE0FFF1FE20FF31F06
:10340000E95CF14F21813281820F931FF701918393
:10341000808388819801280F311D87FD3A95F90135
:10342000EE0FFF1FE20FF31FE95CF14F808187FF72
:1034300020C08881080F111D87FD1A95F801EE0F35
:10344000FF1FE00FF11FE95CF14F808161E08F7792
:10345000DF91CF911F910F91FF90EF90DF90CF9070
:103460000C94CF6F80E49CE9F701918380838FEF08
:103470008883DF91CF911F910F91FF90EF90DF90A4
:10348000CF9008950F931F93CF93DF930CE314E035
:10349000CEE1D4E0F80121913191419151918F0118
:1034A00060E070E080E89FE30E947BA869937993D5
:1034B00089939993F4E0CA32DF0761F70E94646B45
:1034C000DF91CF911F910F910C943712DBCFDACFA0
:1034D000D9CF6AE977E382E00C94AE916EE977E3A5
:1034E00081E00C94AE9162EA77E380E00C94AE91B7
:1034F000CF92DF92EF92FF920F931F93CF93DF93C0
:10350000CDB7DEB7CDB6DEB680919A0B67EE73E02D
:10351000882311F06AE97BE0FB0101900020E9F7C4
:10352000CF01861B970B01962DB73EB7281B390B91
:103530000FB6F8943EBF0FBE2DBF0DB71EB70F5F7D
:103540001F4F80E2EDB7FEB78183C80101960E944C
:10355000A8AA81E6E82E81E1F82E23E631E144E0D5
:1035600052E36FE671E186E791E10E946F6E0FB65C
:10357000F894DEBE0FBECDBEDF91CF911F910F91AB
:10358000FF90EF90DF90CF900895EF92FF920F930E
:103590001F9383EDE82E80E1F82E10E000E02EE38B
:1035A00031E14BE052E365ED70E18AED90E10E947C
:1035B0006F6E1F910F91FF90EF90089580913002F0
:1035C000882341F0609131037091320341E081E042
:1035D0000C94B26C0895CF92DF92EF92FF920F930A
:1035E0001F93CF93DF9300D000D01F921F92CDB7CF
:1035F000DEB78E010F5F1F4FD80130E020E0FB01E6
:10360000E20FF31FE491ED932F5F3F4F2830310518
:10361000B1F7877098E0899FB001112460648AEA4D
:103620009EE00E94477283E790E00197F1F77801EE
:10363000E8E0EE0EF11C8BE9C82ED12CF801619167
:103640008F018AEA9EE00E94A568C6010197F1F702
:10365000E016F10699F728960FB6F894DEBF0FBE74
:10366000CDBFDF91CF911F910F91FF90EF90DF9031
:10367000CF900895CF92DF92EF92FF920F931F9316
:10368000CF93DF9300D000D0CDB7DEB78A0146E0FC
:10369000469F9001479F300D1124BC01620F731F9C
:1036A00046E050E0CE0101960E9415A0C980DA8064
:1036B000EB80FC80F80140815181628173818FEF42
:1036C0009FEFC416D506E606F70640F081E090E0CD
:1036D0004C155D056E057F0508F080E026960FB657
:1036E000F894DEBF0FBECDBFDF91CF911F910F9138
:1036F000FF90EF90DF90CF9008950F931F93CF939B
:10370000DF93CDB7DEB72E970FB6F894DEBF0FBEAE
:10371000CDBF8A011E861D866F83788789879A8729
:103720002FEF2B87603871058105910538F48AEAFF
:103730009EE00E94A56881E090E02FC09E01235F7B
:103740003F4FAE01495F5F4F69EB70E085E69AE05D
:103750000E942A6A97FD2CC08D859E8526E0289FB1
:10376000B001299F700D11246B59754F46E050E050
:10377000CE0101960E9415A06D818AEA9EE00E940A
:10378000A56801301105B9F26E816623A1F28AEABB
:103790009EE00E94A56882E090E02E960FB6F89415
:1037A000DEBF0FBECDBFDF91CF911F910F91089566
:1037B0009E01235F3F4FAE01495F5F4F63E670E0BC
:1037C00083E198E00E942A6A97FD0BC08D859E8553
:1037D00026E0289FB001299F700D11246D5E774F60
:1037E000C5CF6FE3A4CF8091C5029091C602009728
:1037F00031F04AE050E070E060E00C94E19D60E060
:1038000070E0CB010895EFDF97FD0AC0ECDF6F3F5A
:1038100071058105910509F02CF4E5DF862F0895E7
:1038200080E008958FEF0895CF93DF93D82FC62FB0
:10383000EFDC882389F08091C5029091C602892B24
:1038400029F4C1E08C2FDF91CF910895DCDFC1E036
:103850008111F8CFC0E0F6CF8D2F8CDC882391F357
:10386000F0CF8091C5029091C602009731F04AE0F6
:1038700050E070E060E00C940D9F60E070E0CB01E0
:1038800008950F931F93CF938091C5029091C60224
:103890000097E9F0FC018F01C1912C2F2F7D81F061
:1038A000C53411F0C536B9F7F801108270E060E058
:1038B0000E948B9CF801C083CF911F910F910895B6
:1038C00070E060E0CF911F910F910C948B9C60E0B1
:1038D00070E0CB01F1CF8F929F92AF92BF92DF92B7
:1038E000EF92FF920F931F93CF93DF933CE6E32E6B
:1038F00034E0F32E06E312E0D0E0C0E08C2F885ACB
:1039000087DC882309F45BC0BCDF2091C702822ECC
:10391000912CB12CA12C0C2E04C0B694A794979492
:1039200087940A94D2F780FE3CC0F801208131814F
:10393000428153810E949FA7F70160837183828334
:1039400093832196F4E0EF0EF11C0C5F1F4FC33000
:10395000D105A1F686E45CDC8823B9F092DF20E093
:1039600030E0A9010E94C6A918167CF48ADF20E085
:1039700030E040E752E40E947BA8609329027093F4
:103980002A0280932B0290932C02DF91CF911F91FA
:103990000F91FF90EF90DF90BF90AF909F908F902E
:1039A0000895FE01EE0FFF1FEE0FFF1FEB50FC4FBF
:1039B00020813181428153810E949EA7BDCFF801B1
:1039C00080819181A281B381F70180839183A28359
:1039D000B383B7CFCF93DF93EC010E94FA761B82BB
:1039E000DF91CF910895CF93DF93EC01462F417083
:1039F0006C857D858E859F850E94D973882351F0C3
:103A0000888920E2829FC00111248152944FDF9166
:103A1000CF91089590E080E0FACFCF93DF93EB0150
:103A2000FC012381211104C080E0DF91CF91089532
:103A30002250223028F48FE28883198281E0F5CF6A
:103A400060E0D1DF009781F3DC0160E080E09EE27E
:103A50002D91203299F0883031F49E01260F311DCE
:103A6000F90190836F5F9E01260F311DAD0141501A
:103A70005109FA014081F90140836F5F8F5F8B30FC
:103A800039F7FE01E60FF11D1082D8CF3F924F9219
:103A90005F926F927F928F929F92AF92BF92CF92DE
:103AA000DF92EF92FF920F931F93CF93DF93CDB7E7
:103AB000DEB72C970FB6F894DEBF0FBECDBF5C010A
:103AC000DC0159968D909C90F40181859285A385A7
:103AD000B4859C01AD012F5F3F4F4F4F5F4F29874A
:103AE0003A874B875C87D50114964D905D906D9019
:103AF0007C901797411451046104710409F459C072
:103B0000BFEF4B1A5B0A6B0A7B0A312C730162010F
:103B10001D821E821F821886F40181859285A385ED
:103B2000B4852D813E814F815885281739074A0772
:103B30005B0708F056C089859A85AB85BC858C15D6
:103B40009D05AE05BF0550F482E0C82ED12CE12CB6
:103B5000F12C92E0492E512C612C712C9E012F5F8B
:103B60003F4FB701A601C4010E940F768823C9F117
:103B700089819A81AB81BC81892B8A2B8B2B01F1A6
:103B8000260137019FEF491A590A690A790A2D81DE
:103B90003E814F8158852F5F3F4F4F4F5F4F2D83A1
:103BA0003E834F8358873FEFC31AD30AE30AF30AD1
:103BB000B3CF408051806280738033243394A6CF8A
:103BC000C414D504E604F70411F70FEF1FEF2FEF2D
:103BD0003FE0B701A601C4010E947E75782E8111D5
:103BE0001AC0712C872D2C960FB6F894DEBF0FBE2D
:103BF000CDBFDF91CF911F910F91FF90EF90DF909C
:103C0000CF90BF90AF909F908F907F906F905F907C
:103C10004F903F900895F5014481558166817781E9
:103C2000411551056105710539F097018601C401FF
:103C30000E947E758823A9F2D5011496CD92DD925B
:103C4000ED92FC921797332051F0D701C6010196EF
:103C5000A11DB11DF40180839183A283B383F5017B
:103C600085899689A789B08D892B8A2B8B2B09F0A2
:103C7000B9CFC58AD68AE78AF08E81818068818330
:103C8000B1CF40E050E0BA010C9444774F925F927C
:103C90006F927F92AF92BF92CF92DF92EF92FF929C
:103CA0000F931F93CF93DF931F92CDB7DEB78C0195
:103CB0007B015A01C22EDB0159968D919C91F8012E
:103CC000928F818FCB01DDDF712CF701808591858B
:103CD000A285B385418952896389748984179507C0
:103CE000A607B70708F052C055E0B695A795979577
:103CF00087955A95D1F7F82FFF70DF2ED7011396CD
:103D00008C91823010F480E0DAC041E050E0BE01D6
:103D10006F5F7F4FC7010E9466780197A1F7F70197
:103D200080859185A285B3854F96A11DB11D8087A1
:103D30009187A287B387F0E2DF9EB0011124615220
:103D4000744F61157105F9F2DB018C91882341F004
:103D5000853E09F04BC0772029F077247394B5CFC6
:103D600071100EC08091DF0D9091E00DA091E10DDA
:103D7000B091E20DF80184879587A687B787D08A2E
:103D8000DB018C918111E9CF772473948C2D82749F
:103D9000823409F0B8CF772009F4A1C0F801D088A7
:103DA00061E0C80120DE009709F4ADCF20E2DC011C
:103DB0001D922A95E9F72BE0F501DC0101900D92A7
:103DC0002A95E1F721E238E2FC01318B208B40E0BB
:103DD00058E057874687338B228B318F208F578B44
:103DE000468B0E949073811109C08DCF4BE050E04B
:103DF000C5010E9474AA892B09F067CFF0E2DF9E0B
:103E0000D00111249D012152344FF9018385817124
:103E100021F08C2D827109F000C1F801818D928D05
:103E20004091DF0D5091E00D6091E10D7091E20D38
:103E30004487558766877787D08AFD01E152F44F22
:103E400044885588712C612C320155244424D801B2
:103E500055964D925D926D927C925897428D538DFE
:103E600070E060E0442955296629772955964D93DD
:103E70005D936D937C935897D9011B962C91287173
:103E800009F0BDC0848D958DA68DB78DF801818B0D
:103E9000928BA38BB48B81E083838C2D8F70F80180
:103EA00081831482158216821782108611861286EB
:103EB000138681E0C4FE03C0C8010E94D7770F902B
:103EC000DF91CF911F910F91FF90EF90DF90CF90F6
:103ED000BF90AF907F906F905F904F900895D70103
:103EE00013968C911397823009F40DCF51968D91D2
:103EF0009D910D90BC91A02D803E9F4FAF41B1058B
:103F000008F001CFC701C2DD882309F4FCCE0E946E
:103F10009073882309F4F7CED7015996ED91FC915F
:103F20005A9714964D905D906D907C901797B2E0E3
:103F30004B1A510861087108858504C0440C551C52
:103F4000661C771C8A95D2F786859785A089B189EA
:103F5000480E591E6A1E7B1E81E08093E30D40923D
:103F6000DF0D5092E00D6092E10D7092E20DEFEDE9
:103F7000FBE080E092E0DF019C011D922150304087
:103F8000E1F7DD24D394D7015996ED91FC9184811A
:103F9000D816C0F48091E40D9091E50DDC01ED910F
:103FA000FC910288F389E02D2FED3BE0B301A201E3
:103FB0004D0D511D611D711D1995882309F4A3CE66
:103FC000D394E1CF258580E092E0A0E0B0E004C08A
:103FD000880F991FAA1FBB1F2A95D2F7F7014189A5
:103FE000528963897489840F951FA61FB71F818B1F
:103FF000928BA38BB48B8FED9BE0D12CD7CE20314D
:1040000061F498012F5E3F4F0E949176882329F03A
:1040100084E0D80113968C9340CFD80113961C925C
:1040200072CEFC0123812111D5CC08952F923F92AD
:104030004F925F926F927F928F929F92AF92BF92B8
:10404000CF92DF92EF92FF920F931F93CF93DF9364
:10405000CDB7DEB7C354D1090FB6F894DEBF0FBE9B
:10406000CDBF4C015B016A01222E19821C821C8E7D
:104070001F8E6115710511F510E0CE014C96D1DF50
:10408000CE010196CEDF812FCD5BDF4F0FB6F894C6
:10409000DEBF0FBECDBFDF91CF911F910F91FF907B
:1040A000EF90DF90CF90BF90AF909F908F907F90D8
:1040B0006F905F904F903F902F900895FC01838107
:1040C0008111DACFFA0180818F32A1F18B01CE010B
:1040D00001967C013C0180E2382E2E019CE1490EC4
:1040E000511C2396EFAE23972496FFAE2497229679
:1040F0003FAE229721963FAE21973FAE3EAE3DAEFA
:104100003CAE3BAE3AAE39AE38AE3FAA960190E037
:1041100047E0D9018D91882309F447C08F3209F413
:1041200044C08E3209F54A3009F4A6CF98E04AE03F
:104130009D01EFCFFB01838182508B01823060F0C3
:10414000618D728DCE014C960E944F7A8E01045E75
:104150001F4F882309F490CFC6016C010196F60128
:1041600020812F32D1F3B3CFECE5FBE12491222360
:1041700021F031968213FACF7FCF491708F47CCF14
:10418000813208F479CF8F3709F476CF3FE9380FC1
:104190003A3108F420EEE7E3F0E0EC0FFD1FE90F01
:1041A000F11D820F80839F5FC3CF8FA9803209F4F6
:1041B00063CF6901F90180812F5F3F4F8F32C9F3CF
:1041C0008823F1F021E0AE01495C5F4FB801C701DF
:1041D0005DDD882309F450CF0A151B0511F0C801D5
:1041E000F9DB942D852D6E147F0431F023969FAD5D
:1041F000239724968FAD24978701E92EF82E77CF49
:10420000222DAE01495C5F4FB801C4013FDD182F7C
:1042100034CF0F930FB70F9300916E000B7F009375
:104220006E0078940F930BB70F930CB70F921F92F9
:104230002F933F934F935F936F937F938F939F93AE
:10424000AF93BF93EF93FF9311240E947D30FF91B2
:10425000EF91BF91AF919F918F917F916F915F91FE
:104260004F913F912F911F900F900CBF0F910BBF5B
:104270000F910460F89400936E000F910FBF0F919F
:10428000189580911D09811102C0A895089580910B
:10429000BA038111089581E08093BA038091BB0332
:1042A000811103C01092BA030895A8951092BB0320
:1042B0000E94D171F7CFBC0120919F033091A003E0
:1042C00040919F035091A0032417350731F481E0FA
:1042D0002617370709F080E008959A01F1CF0F9370
:1042E0000FB70F9300916E000F930B7F00936E003A
:1042F00000916F000D7F00936F000F930BB70F932A
:104300000CB70F921F922F933F934F935F936F932E
:104310007F938F939F93AF93BF93EF93FF9311245A
:10432000B0D3FF91EF91BF91AF919F918F917F910A
:104330006F915F914F913F912F911F900F900CBF04
:104340000F910BBF0F910260F89400936F000F91D3
:1043500000936E000F910FBF0F91189500C000C021
:104360008091C90380FF24C08091020180958270F2
:10437000809300018FEF80935E038091C90386953F
:1043800080FF1DC080910B0180958470809309018E
:104390008FEF80935F038091C9038695869580FF98
:1043A00015C08A988FEF8093600300C000C0089505
:1043B0008091020182708093000181E0DCCF8091C6
:1043C0000B0184708093090181E0E3CF8A9A81E038
:1043D000EACF4F925F926F927F928F929F92AF92AD
:1043E000BF92CF92DF92EF92FF92CF93DF93EC01D7
:1043F000C880D980EA80FB8020E030E842EA53E4BC
:10440000C701B6010E949FA74B015C01A70196015D
:1044100060E070E882EA93E40E949EA72B013C01D1
:1044200020E030E04AEF53E46C817D818E819F81F2
:104430000E949EA79B01AC010E944AA16B017C01D6
:10444000A5019401C501B4010E944AA1A7019601EA
:104450000E949FA70E940CAA4B015C01A30192013C
:10446000C301B2010E944AA1A70196010E949FA721
:104470000E940CAAC884D984EA84FB84EEE1F9E0A6
:1044800080829182A282B3826483758386839783BC
:10449000C086D186E286F386DF91CF91FF90EF90C0
:1044A000DF90CF90BF90AF909F908F907F906F9054
:1044B0005F904F9008959091860E8091870E98138B
:1044C00006C080912A0490912B04892B19F00E9438
:1044D000187EF1CF08954F925F926F927F928F92E4
:1044E0009F92AF92BF92CF92DF92EF92FF920F9383
:1044F0001F93CF93DF93CDB7DEB76A970FB6F894CB
:10450000DEBF0FBECDBF9A8F898F5B018A01DC01B0
:10451000D2966D917D918D919C91D5970E94E9A045
:104520006B017C01F50120813181428153810E9420
:104530004AA10E9465A82B013C01D8012D913D9113
:104540004D915C91C701B6010E944AA10E9465A8E5
:104550004B015C01C301B2010E94E8A8698B7A8B10
:104560008B8B9C8B683771058105910540F428E79A
:1045700030E040E050E0298B3A8B4B8B5C8BC501DF
:10458000B4010E94E8A86D877E878F87988B683773
:1045900071058105910540F488E790E0A0E0B0E066
:1045A0008D879E87AF87B88BE98DFA8DFE96208127
:1045B00031814281538129833A834B835C83CA01D1
:1045C000B9010E94EBA02B013C0169897A898B8992
:1045D0009C890E94E9A069877A878B879C8720E065
:1045E00030E0A901C301B2010E94E5A0882309F4CB
:1045F0003AC1A7019601C701B6010E944AA14B0129
:104600005C0129853A854B855C85CA01B9010E9408
:104610004AA19B01AC01C501B4010E949EA74B01B8
:104620005C01A3019201C301B2010E949FA79B01FB
:10463000AC01C501B4010E947BA80E9465A80E943C
:10464000E8A86D837E838F83988769817A818B81C7
:104650009C8190958095709561957F4F8F4F9F4F6E
:104660000E94EBA04B015C016D857E858F8598894A
:104670000E94E9A069837A838B839C8320E030E0E9
:10468000A901C501B4010E94E5A0882309F4EFC087
:1046900029813A814B815C81CA01B9010E944AA1FA
:1046A0006D8B7E8B8F8B988FA7019601C701B6010A
:1046B0000E944AA19B01AC016D897E898F89988DEA
:1046C0000E949EA76B017C01A5019401C501B40164
:1046D0000E949FA79B01AC01C701B6010E947BA865
:1046E0000E9414A9A98DBA8D91968D909D90AD9040
:1046F000BC909497750164012D813E814F8158854E
:10470000C21AD30AE40AF50A0E94E8A8C61AD70A10
:10471000E80AF90AF7FE6EC020E030E0A901C30103
:10472000B2010E94E5A0882309F4A5C0C501B40127
:104730000E94E9A06B017C01A3019201C301B201B7
:104740000E949FA79B01AC01C701B6010E944AA12C
:104750006B017C0129853A854B855C85CA01B901CD
:104760000E944AA19B01AC01C701B6010E949EA70D
:104770006B017C0129813A814B815C81CA01B901BD
:104780000E944AA19B01AC01C701B6010E949FA7EC
:104790006B017C0120E030E040E850E4C301B2014D
:1047A0000E944AA19B01AC01C701B6010E947BA8EF
:1047B0000E9465A86B017C0120E030E0A9010E9405
:1047C000C6A918161CF0C12CD12C7601C701B60160
:1047D0000E94E8A86D837E838F839887861697064C
:1047E000A806B90620F48D829E82AF82B886C12CBD
:1047F000D12C76018D819E81AF81B885E98DFA8DAE
:1048000085A396A3A7A3B0A7C80ED91EEA1EFB1EB8
:10481000C1A6D2A6E3A6F4A629893A894B895C8968
:1048200026AB37AB40AF51AF2D853E854F855889BC
:1048300022AF33AF44AF55AF6A960FB6F894DEBFE0
:104840000FBECDBFDF91CF911F910F91FF90EF90E1
:10485000DF90CF90BF90AF909F908F907F906F90A0
:104860005F904F90089560E070E0CB01E6CE60E08D
:1048700070E0CB0135CF60E070E0CB0199CF909133
:104880006F0081E091FD02C080E0089590916F007B
:104890009D7F90936F000895EFE6F0E08081826045
:1048A00080830895CF93C82FEADF94E0C99F9001D9
:1048B0001124F901EE55FC4F22553C4FD9014D9181
:1048C0005D916D917C91408351836283738391E00C
:1048D0009093A103882311F0CF91DECFCF9108955B
:1048E000CF92DF92EF92FF9280914B0330995DC09F
:1048F000816080934B0380914B03319958C0826053
:1049000080934B0380914B03359953C0846080930F
:104910004B03C0909203C0FE0FC08091C90380FD7D
:104920000BC080914B0380FF07C08091CD03816055
:104930008093CD0380E0B6DFD12CF12CE12CD701A0
:10494000C601B695A7959795879580FF10C0809171
:10495000C903869580FD0BC080914B0381FF07C082
:104960008091CD0382608093CD0381E09BDF82E064
:10497000F694E794D794C7948A95D1F7C0FE1BC0EC
:104980008091C9038695869580FD15C080914B0363
:1049900082FF11C08091CD0384608093CD0382E0BB
:1049A000FF90EF90DF90CF907DCF8E7FA2CF8D7F55
:1049B000A7CF8B7FACCFFF90EF90DF90CF90089583
:1049C0005EDF10928204109283041092840410928D
:1049D0008504811161CF08950F931F938091860EF6
:1049E0009091870E891B8F7009F449C09091830EB6
:1049F000992361F0833040F48FEF890F29F0809381
:104A0000830E90E080E038C01092830E8091870E74
:104A100028E4829FC00111248F569B4FFC01208106
:104A200020FDEFCF40918204509183046091840473
:104A300070918504EC5BFF4F0081118122813381ED
:104A4000401B510B620B730B409382045093830401
:104A500060938404709385042091870E2F5F2F70DC
:104A60002093840E3091870E2091850E321304C05E
:104A70002091840E2093850E1F910F910895A0DF41
:104A8000C0CF2F923F924F925F926F927F928F9200
:104A90009F92BF92CF92DF92EF92FF920F931F935C
:104AA000CF93DF938FEF9FEF9093890080938800DF
:104AB0007AE0B72E312C212CEEE48E2EEBE19E2EE7
:104AC000789480919B0390919C03A0919D03B09159
:104AD0009E03892B8A2B8B2B09F075C18091A10332
:104AE0008823D1F080919F039091A0031092A1039D
:104AF000892B91F01092A00310929F0310929203C1
:104B00009091860E8091870E981731F08091870ED4
:104B10008F5F8F708093870E80919F039091A00389
:104B2000892B09F450C140919703509198036091EB
:104B3000990370919A038091930390919403A091AB
:104B40009503B0919603C0908503D12CF12CE12CF4
:104B5000841B950BA60BB70BC816D906EA06FB06F5
:104B600010F4D701C601E82F840F951FA61FB71FA9
:104B70008093970390939803A0939903B0939A031B
:104B8000F1E0C0906503D0906603E0906703F09079
:104B900068038091710390917203A0917303B091A7
:104BA0007403C80ED91EEA1EFB1EC0927103D09278
:104BB0007203E0927303F0927403F7FC33C08091A8
:104BC0005E03082E000C990BAA0BBB0B4091AE03A1
:104BD0005091AF036091B0037091B103840F951FA2
:104BE000A61FB71F8093AE039093AF03A093B003AB
:104BF000B093B1038091610390916203A09163032C
:104C0000B091640397018601081B190B2A0B3B0B1B
:104C1000D901C8018093710390937203A093730329
:104C2000B09374034091690350916A0360916B03E0
:104C300070916C038091750390917603A091770336
:104C4000B0917803480F591F6A1F7B1F409375036B
:104C500050937603609377037093780377FD33C0A6
:104C600080915F03082E000C990BAA0BBB0B0091DF
:104C7000B2031091B3032091B4033091B503800FB8
:104C8000911FA21FB31F8093B2039093B303A0930D
:104C9000B403B093B5038091610390916203A09136
:104CA0006303B09164038A019B01081B190B2A0B53
:104CB0003B0BD901C8018093750390937603A093B1
:104CC0007703B093780340906D0350906E0360902B
:104CD0006F03709070038091790390917A03A09193
:104CE0007B03B0917C03840D951DA61DB71D809399
:104CF000790390937A03A0937B03B0937C03B7FD71
:104D000033C040906003042C000C550866087708F7
:104D10000091B6031091B7032091B8033091B90305
:104D2000400E511E621E731E4092B6035092B7038E
:104D30006092B8037092B90340906103509062038F
:104D400060906303709064038C019D010419150940
:104D500026093709280139014092790350927A03D4
:104D600060927B0370927C03F11104C02091840057
:104D700030918500F7FC06C020910201209521703A
:104D80002093000177FF889AB7FF8B9A20918400C7
:104D9000309185002091840030918500F7FC05C09A
:104DA0002091020121702093000177FF8898B7FFBE
:104DB0008B98EE2321F08091840090918500E15042
:104DC000F0E009F0DECE80919B0390919C03A091CE
:104DD0009D03B0919E03892B8A2B8B2B09F0D9C39D
:104DE000E0919F03F091A003309709F43AC48091B9
:104DF000970390919803A0919903B0919A034091E1
:104E000093035091940360919503709196038417D6
:104E10009507A607B70708F446C01092A0031092A2
:104E20009F03109292039091860E8091870E98179F
:104E300009F417C48091870E8F5F8F708093870E5F
:104E400060EDC62E67E0D62EE12CF12C80919F03F9
:104E50009091A003892B09F094C3BEDD9093A00329
:104E600080939F03892B09F48CC3C0919F03D09139
:104E7000A003888183FF69C2CE0145960E942E124D
:104E80001092A00310929F03109292039091860EAD
:104E90008091870E981709F38091870E8F5F8F702E
:104EA0008093870EDACF40918E0350918F036091EB
:104EB000900370919103481759076A077B0708F41C
:104EC000D8C080918A0390918B03A0918C03B091FC
:104ED0008D0345A556A567A570A9CC27859FD12D23
:104EE000969F9001A69F300DA59F200D311D869F96
:104EF000D00D211D3C1F959FD00D211D3C1FA49F4F
:104F0000D00D211D3C1F949FD10D2C1F3C1FD69509
:104F10002C1F3C1F789F200D311D799F300D1124CF
:104F200046A957A960AD71AD420F531F611D711D98
:104F3000409386035093870360938803709389039B
:104F4000C2A8D3A8E4A8F5A8C416D506E606F706B5
:104F500040F4C0928603D0928703E0928803F092D7
:104F60008903409086035090870360908803709077
:104F7000890322E33BE141E0F901C590D590E5903A
:104F8000F490C414D504E604F70450F476946794BE
:104F900057944794440F2C5F3F4F8216930661F756
:104FA0004093850310E2411651046104710428F412
:104FB00020E2422E512C612C712C20E2421A510821
:104FC00061087108411438E053066104710408F463
:104FD0002EC044E0549E900111242E5C384EF901FD
:104FE000329645915491F42DEE27F59FB001F49F30
:104FF000610D7E1F06946E1F7E1F1124AB0170E0B1
:1050000060E0F901C590D490F12CE12CC41AD50AC6
:10501000E60AF70A8C0D9D1DAE1DBF1D80938A0305
:1050200090938B03A0938C03B0938D030FCFB301A8
:10503000A20176956795579547959A012C7F2E5C2E
:105040003C4EF901C590D490F901329645915491A6
:10505000042D0770049F9001059F300D112403E07B
:10506000369527950A95E1F7C21AD30AF12CE12C5F
:10507000D1CF40918103509182036091830370915D
:105080008403481759076A077B0708F0CDC0809151
:105090007D0390917E03A0917F03B091800345A58D
:1050A00056A567A570A92227859F312D969F60017F
:1050B000A69FD00CA59FC00CD11C869F300DC11C93
:1050C000D21E959F300DC11CD21EA49F300DC11C55
:1050D000D21E949F310DC21ED21E3695C21ED21E04
:1050E000789FC00CD11C799FD00C1124F12CE12C9D
:1050F00040918603509187036091880370918903E2
:1051000042AC53AC64AC75ACC416D506E606F706E3
:1051100058F44C195D096E097F0944165506660658
:10512000770610F42A013B0122E33BE141E0F9015B
:10513000C590D590E590F490C414D504E604F70426
:1051400050F47694679457944794440F2C5F3F4FE4
:105150008216930661F74093850310E241165104CD
:105160006104710428F4C0E24C2E512C612C712C86
:1051700020E2421A510861087108411438E05306D0
:105180006104710408F42EC044E0549E900111247F
:105190002E5C384EF901329645915491F42DEE274C
:1051A000F59FB001F49F610D7E1F06946E1F7E1F58
:1051B0001124AB0170E060E0F901C590D490F12CAE
:1051C000E12CC41AD50AE60AF70A8C0D9D1DAE1D06
:1051D000BF1D80937D0390937E03A0937F03B093C4
:1051E000800334CEB301A201769567955795479514
:1051F0009A012C7F2E5C3C4EF901C590D490F901A8
:10520000329645915491042D0770049F9001059F9B
:10521000300D1124F3E036952795FA95E1F7C21A7F
:10522000D30AF12CE12CD1CF809120029091210260
:10523000A0912202B0912302B7FF5BC0C2A8D3A8FD
:10524000E4A8F5A882E39BE121E0FC01459155919A
:10525000659174914C155D056E057F0548F4F694D3
:10526000E794D794C794220F04968816990669F795
:105270002093850310E2C116D104E104F10428F45F
:1052800050E2C52ED12CE12CF12C20E2C21AD1081B
:10529000E108F108C11438E0D306E104F10408F490
:1052A00031C044E0D49EC00111248E5C984EFC01B4
:1052B0003296259134917C2D6627739FA001729FB1
:1052C000410D561F0694461F561F112470E060E0E2
:1052D000FC0185919491B0E0A0E0841B950BA60B96
:1052E000B70B8093200290932102A0932202B093E7
:1052F0002302C0902002D0902102E0902202F09080
:105300002302A4CDD701C601B695A7959795879599
:105310008C7F8E5C9C4EFC0125913491FC01329671
:10532000459154918C2D8770C82EC49EC001C59E96
:10533000900D112443E0969587954A95E1F7281B37
:10534000390BC901B0E0A0E0CCCF4D885E886F88F2
:10535000788C81E0411451046104710409F480E007
:10536000C98CDA8CEB8CFC8CC114D104E104F104FF
:1053700009F082604D8D5E8D6F8D78A141155105CC
:105380006105710509F084608093920310927D039A
:1053900010927E0310927F031092800310928A0372
:1053A00010928B0310928C0310928D0389A19AA105
:1053B000ABA1BCA18093930390939403A093950316
:1053C000B0939603002711279801081B190B2A0B8D
:1053D0003B0B00937103109372032093730330937C
:1053E000740300937503109376032093770330932F
:1053F00078030093790310937A0320937B0330930F
:105400007C03440C551C661C771C4092650350922B
:1054100066036092670370926803CC0CDD1CEE1C7F
:10542000FF1CC0926903D0926A03E0926B03F09272
:105430006C03440F551F661F771F40936D035093F5
:105440006E0360936F0370937003880F991FAA1FF8
:10545000BB1F8093610390936203A0936303B09397
:10546000640310929703109298031092990310927C
:105470009A038DA19EA1AFA1B8A580938E039093AE
:105480008F03A0939003B093910389A59AA5ABA530
:10549000BCA58093810390938203A0938303B09370
:1054A000840389A99091C903891721F08093C903C6
:1054B0000E94AE218091C803811112DA0FEF1FEF15
:1054C000980100932002109321022093220230932E
:1054D00023024EA95FA968AD79AD4093860350932E
:1054E0008703609388037093890382E39BE121E043
:1054F000FC01C590D590E590F490C416D506E6065B
:10550000F70648F47695679557954795220F0496C8
:105510008816990669F72093850340325105610585
:10552000710520F440E250E060E070E04052510923
:1055300061097109411518E051076105710508F409
:105540006EC024E0529FC00111248E5C984EFC0175
:10555000329625913491AA27439FF001429FE10D95
:10556000FA1F0694EA1FFA1F1124AF0170E060E0F1
:10557000FC01C590D490F12CE12CC41AD50AE60A9E
:10558000F70AC0929B03D0929C03E0929D03F09295
:105590009E0380919B0390919C03A0919D03B091E9
:1055A0009E03AC01BD01009731E0A307B10520F0D7
:1055B0004FEF5FEF60E070E0841B950BA60BB70B1D
:1055C00080939B0390939C03A0939D03B0939E03B1
:1055D000F89480918400909185004096BA94BB2005
:1055E00009F43DC0240E351E2816390608F468CA91
:1055F00030928900209288007894DF91CF911F919A
:105600000F91FF90EF90DF90CF90BF909F908F9081
:105610007F906F905F904F903F902F900895DB01A7
:10562000CA01B695A795979587958C7F8E5C9C4E01
:10563000FC01C590D490FC013296259134914770BD
:10564000429FC001439F900D112433E096958795AA
:105650003A95E1F7C81AD90AF12CE12C92CF1C0136
:10566000C7CF80EDC82E87E0D82EE12CF12CF5CBEA
:105670008F929F92AF92BF92CF92DF92EF92FF9262
:10568000CF93DF93EC012091440430914504409185
:10569000460450914704688579858A859B850E94D8
:1056A0004AA10E94D2A96B017C0120914004309153
:1056B000410440914204509143046C817D818E816C
:1056C0009F810E944AA10E94D2A94B015C012091B6
:1056D0003C0430913D0440913E0450913F04688168
:1056E00079818A819B810E944AA10E94D2A96093FC
:1056F000880E7093890E80938A0E90938B0E809201
:105700008C0E90928D0EA0928E0EB0928F0EC09243
:10571000900ED092910EE092920EF092930E909194
:10572000860E8091870E981709F43DC08091860EF1
:105730009091870E891B80958F7019F40E94187EB6
:10574000F5CF8091860E8F5F8F70A091860E98E4C2
:10575000A99FD0011124FD01EF56FB4FEF011992D3
:105760009A95E9F798E09083AA55BB4F9CE0E8E84A
:10577000FEE001900D929A95E1F72091860E9091AE
:10578000870E291303C094E69093830E8093860EB0
:10579000DF91CF91FF90EF90DF90CF90BF90AF90CF
:1057A0009F908F9079C80E945B2269D8C82F88E8A3
:1057B0009EE00E942E12C111EBCFDF91CF91FF909E
:1057C000EF90DF90CF90BF90AF909F908F90089513
:1057D000CF92DF92EF92FF92CF93DF93C82F4FD8F3
:1057E00094E0C99FE0011124FE01E255FC4FC08006
:1057F000D180E280F38081114FD8C25EDB4FC701B8
:10580000B6010E94EBA0288139814A815B810E9408
:105810004AA1DF91CF91FF90EF90DF90CF90089554
:10582000CF92DF92EF92FF92CF93DF93C82F27D8CA
:1058300094E0C99FE0011124FE01EE55FC4FC080A9
:10584000D180E280F380811127D8C25EDB4FC7018F
:10585000B6010E94EBA0288139814A815B810E94B8
:105860004AA1DF91CF91FF90EF90DF90CF90089504
:105870002F923F924F925F926F927F928F929F9260
:10588000AF92BF92CF92DF92EF92FF920F931F934E
:10589000CF93DF93CDB7DEB7A0970FB6F894DEBFF6
:1058A0000FBECDBF8CE694E00E94FE122AE037EDD9
:1058B00043E25CE36091290270912A0280912B02FD
:1058C00090912C020E944AA16B017C0160912702F9
:1058D00070912802072E000C880B990B0E94EBA0F8
:1058E0009B01AC01C701B6010E944AA1698F7A8F62
:1058F0008B8F9C8F6D877E878F87988B40906C04F1
:1059000050906D0460906E0470906F0480917004EC
:1059100090917104A0917204B0917304898B9A8B59
:10592000AB8BBC8B2091360230913702409138020C
:1059300050913902C301B2010E949EA74B015C0144
:1059400020913A0230913B0240913C0250913D023D
:1059500069897A898B899C890E949EA76B017C0149
:1059600020E030E0A901C501B4010E94E5A0811149
:105970000DC020E030E0A901C701B6010E94E5A0FA
:1059800020E030E0A901882309F463C120E030E879
:1059900042EA53E4C301B2010E949FA76D8B7E8B44
:1059A0008F8B988FA301920160E070E882EA93E404
:1059B0000E949EA76D8F7E8F8F8F98A320E030E08E
:1059C0004AEF53E469897A898B899C890E949EA752
:1059D0009B01AC010E944AA1698B7A8B8B8B9C8BBB
:1059E0002D893E894F89588DCA01B9010E944AA16B
:1059F00029893A894B895C890E949FA70E940CAA39
:105A00002B013C012D8D3E8D4F8D58A1CA01B9014E
:105A10000E944AA129893A894B895C890E949FA7E3
:105A20000E940CAA698B7A8B8B8B9C8B20E030E8D0
:105A300041E854E4C301B2010E94E5A087FF19C107
:105A400020E030E841E854E469897A898B899C89AF
:105A50000E94E5A087FF0DC120913E0230913F02D8
:105A6000409140025091410260917404709175041C
:105A700080917604909177040E949EA76D8B7E8B17
:105A80008F8B988FA5019401C501B4010E944AA192
:105A90002B013C01A7019601C701B6010E944AA152
:105AA0009B01AC01C301B2010E949FA72B013C01E5
:105AB0002D893E894F89588DCA01B9010E944AA19A
:105AC0009B01AC01C301B2010E949FA70E940CAAD6
:105AD0002B013C012DEB37E346E855E30E94E5A09E
